:02000002D0002C
:1040000000400D00D4B40D00000006000C000501B6
:084010000401E80500000000B6
:0440180024A60D00CD
:1040200009480A49884208B505D0094A824202D0A7
:10403000121A05F0DFFE0748074A0021121A05F0A0
:10404000E4FE014808BD00BF80DB0320C4B30D00BF
:1040500068DC032068DC0320F0E7032070B504F07F
:104060008BF9074C074BE41AA40800251E46A5420D
:1040700004D056F8253098470135F8E770BD00BFE9
:10408000C0B30D0058B30D0000F016BA08B500F02B
:104090009BFBBDE8084004F031B903F0FDB903F023
:1040A000FBB903F001BA03F0FFB90078B0FA80F071
:1040B00040097047012303707047704703685A68CE
:1040C00098681B6812F0010F4FEA620218BF81580E
:1040D000104418BFCB58184770470000F0B502F1E4
:1040E000080383B023F0070302AFADEB030D02AC6E
:1040F000154620460E4605F07DFE0023635504F06C
:104100001DF8144A144B01218DE8600004F0AAFB4D
:104110001249204605F0AAFE024610B90146FF20CA
:1041200010E00F49204605F0A1FE024608B9FF2124
:1041300008E00C49204605F099FEFF22014608B12F
:104140001146104604F05AF9642004F04DFA043781
:10415000BD46F0BD5EA60D004CA60D0067A60D0085
:104160006BA60D0071A60D002F2810B5044605D9C9
:10417000094A00210A2003F0C9F801E01F2803D9E9
:1041800004F01F04054B01E04FF0A043D3F81005E5
:10419000E04000F0010010BDAD710D0000030050C3
:1041A000F8B5264B264E5B688361038932681B0194
:1041B000D118D55C4B7803F01F0343EA451504463C
:1041C0002846FFF7D1FF2846FFF7CEFFA3893268C4
:1041D0001B01D118D55C4B7803F01F0343EA45154A
:1041E00007462846FFF7C0FF2846FFF7BDFF237CA0
:1041F00017F0FF0F03F00303C0B218BF43F004032E
:1042000008B143F008039A10013B22740D2B14D817
:10421000DFE803F0070A0D0A1310070710130A0D51
:104220000A076369013307E06369013B04E06369DE
:10423000023301E06369023B6361F8BD001000E0F6
:1042400070DE032010B50029B8BF49420446C9B248
:1042500001F028FE2046012101F0FEFD10BD022ADA
:1042600038B5044605D0032A0FD0012A11D10B68B6
:1042700009E00C200D68FFF710FF034618B195E820
:10428000070083E80700236003E00C21006804F0C6
:104290007FFD002038BD000010B5164C88B002F03C
:1042A0008DFF2368C01AB0F57A7F20D302F086FF15
:1042B0002060114C2378C3B9642004F095F90F4BAA
:1042C00001221B6822701321ADF8161002930221FF
:1042D0003C238DF815108DE80C000DF116010DF141
:1042E000150306A804F0DCFB01E00023237008B0EE
:1042F00010BD00BFF8DC0320A0DE0320E8DD0320B2
:1043000008B5132004F023FD18B9BDE80840FFF7F5
:10431000C3BF08BD0221132004F008BD38B50C1E30
:10432000054602D1FFF78EFF0DE004DD012101F00B
:1043300093FDE1B204E0022101F08EFD6142C9B2B9
:10434000284601F0AFFD204638BD000010B50446F8
:1043500005F060F8034BC3E90001034BC3E900011A
:10436000204610BD78DE032090DD0320F0B589B033
:10437000044602A880E806001D460C2000230F46D4
:10438000039E0693FFF789FE10B1076046608560C3
:104390000C4B07930C4B06939DF840300490009310
:1043A00020469DF93C309DF8382004A904F082F89D
:1043B000069B04461BB104A90322084698472046E1
:1043C00009B0F0BDBD400D005F420D002DE9F04386
:1043D0000F46044689B016460221384604F0A6FC72
:1043E0000221304604F0A2FC002323606360636175
:1043F000A3614FF4FA60DFF8AC90A760E66002F0CA
:10440000D5FE2389D9F800201B01D118D55C4B7843
:1044100003F01F0343EA45152846FFF7A5FE28468B
:10442000FFF7A2FEA389D9F800201B01D118D55CA3
:104430004B7803F01F0343EA451510F100082846A6
:1044400018BF4FF00108FFF78FFE2846FFF78CFEDC
:1044500018B148F002085FFA88F8002584F8108047
:104460004FF0FF388DE82001DFF83C90CDF8109038
:104470000595029504AA234606CA3846FFF776FF3B
:104480008DE82001CDF818900795029508AA2346DB
:1044900012E906003046FFF769FF204609B0BDE883
:1044A000F08300BF70DE0320A1410D0013460A46D1
:1044B000012104F0D7B900007FB503F03FFE4FF4AF
:1044C000E13103F02FFE03F039FE0121684A04F0C8
:1044D000C9F90C21674802F0E8FA28B903F02EFE6A
:1044E000654904F0AAF8FEE7642004F07DF803F0C3
:1044F00025FE624A6249FFF7D9FF012003F06EFFF3
:1045000003F01CFE5D4A5F49FFF7D0FF684602F0EA
:104510001DFF00995C4802F04DF8684604F0F8F978
:1045200003F00CFE554A5949FFF7C0FF564801F009
:104530005DFF68B15649544802F02FFA554A564972
:10454000514802F0B7F803F0F9FD4C4A534903E033
:1045500003F0F4FD494A5249FFF7A8FF514802F021
:1045600009FC03F0EBFD454A4F49FFF79FFFFFF7BA
:10457000D1FE03F0E3FD414A4C49FFF797FF03F0FA
:104580003BFD01464A4801F089FD03F0D7FD3B4A57
:104590004849FFF78BFF03F0D1FD384A012104F0B1
:1045A00061F94FF4C861444801F0B9FB434B4448FA
:1045B000002400250121C3E9004501F05BF99FEDCE
:1045C000281B9FED290B3E4801F0EAF832213C48B8
:1045D00001F0C0F83B4BC3E900453B4BC3E9004544
:1045E0003A4B00261E603A4B31461868FFF72AFE08
:1045F000384BC3E90045384B31461868FFF722FEB7
:10460000364B37480121C3E9004501F033F99FEDEE
:10461000141B9FED150B324801F0C2F8642130489D
:1046200001F098F801212F4801F024F99FED0C1BAF
:104630009FED0D0B2B4801F0B3F86421294801F0E0
:1046400089F803F07BFD0D4A2749FFF72FFF03F0A0
:1046500075FD264A012104F005F904B070BD00BFC4
:104660000000000000E06F400000000000E06FC0AC
:104670008BA60D00A8DD032094A60D0046A60D0014
:10468000D1A60D00DFA60D0090DC0320EDA60D00E5
:10469000FCA60D0013A70D0002A70D0006A70D0034
:1046A00019A70D006CDC032035A70D0049A70D00EC
:1046B000A8E303205DA70D00A8DE0320A0DD0320F2
:1046C00008DD032090DD032078DE032020DF0320B7
:1046D000E4DD032088DC0320E8DC032068DE03201F
:1046E00040DF0320F0DD03206CA70D007BA70D0049
:1046F0000EB410B5C7B049AB044653F8042B019370
:104700004FF4807106A802F0EFFE254801F06EFE1E
:1047100028B106AA2146224801F0CCFF3AE003F076
:104720000DFD044603F047FF1E4A034601212046C3
:1047300004F098F802A802F009FE0299184801F066
:1047400039FF02A804F0E4F803F0F8FC164A174910
:10475000FFF7ACFE124801F049FE80B11449104841
:1047600002F01BF9134A14490D4801F0A3FF03F0AE
:10477000E5FC044603F01FFF104A034606E003F081
:10478000DDFC044603F017FF0D4A034601212046D5
:1047900004F068F847B0BDE8104003B0704700BFB0
:1047A00090DC03208EA70D0038A60D00EDA60D00AD
:1047B000FCA60D0013A70D0002A70D00ACA70D006D
:1047C000C0A70D00000000002DE9F04F2DED0A8B71
:1047D000A5B0FFF795FD0DF14E01B34802F0EDFADB
:1047E00080B103F0ABFCBDF84E4005462146AE4813
:1047F00002F0D4FA23460090AC4A0121284604F086
:1048000031F8E8E7AA4801F0F1FD18B1A84801F035
:1048100098FF2DE003F092FCA64AA749FFF746FE59
:104820001BA802F093FD1B99A14801F0C3FE1BA831
:1048300004F06EF803F082FC9E4AA049FFF736FEB2
:104840009B4801F0D3FD68B19D49994802F0A5F855
:104850009C4A9D49964801F02DFF03F06FFC954A54
:104860009A4903E003F06AFC924A9949FFF71EFE59
:104870001BA9984802F018FA9FED977ADDED227A8D
:10488000894867EE877A0021FDEEE77A17EE902AD5
:1048900002F08CFA03F08FFE044602F08FFC05460E
:1048A000229804F0C9FDCDE90601219804F0C4FD69
:1048B000CDE90401209804F0BFFD1F9B01931D9BCF
:1048C000009322462B46CDE9020184498448854C59
:1048D000FFF70EFF229804F0AFFD4FF08043002257
:1048E00004F04AFC1422C4E900017A4914A802F039
:1048F00053F903F060FE054602F060FC68A3D3E9BB
:1049000000230646DDE9180104F0EAFD64A3D3E9BB
:104910000023CDE90401DDE9160104F0E1FD60A307
:10492000D3E90023CDE90201DDE9140104F0D8FD4B
:1049300033462A46CDE900016B496948FFF7D8FEA6
:104940006A4801F0B9FB03F036FE119002F036FC24
:1049500000211090654801F011FC012105466348D3
:1049600001F00CFC02210646604801F007FC03211F
:1049700007465E4801F002FC042180465B4801F0D6
:10498000FDFB05218146594801F0F8FB06218246CE
:10499000564801F0F3FB07218346544801F0EEFB33
:1049A00008210E90514801F0E9FB09210F904F4872
:1049B00001F0E4FB0F9B08930E9B09908DE8E0014A
:1049C0000793119A109B4A494A48CDF818B0CDF880
:1049D00014A0CDF81090FFF78BFE05214348464FF9
:1049E000464D01F0CBFBB0F5FA6F40F09780012106
:1049F0003E483970297001F0C1FBA0F2DC50B0F5DF
:104A0000FA7F04DA3E4B9842B8BF184601E04FF4F3
:104A1000FA7004F0FFFC3B4E3B4FC6E90001D7E9BA
:104A2000002304F0C5FF68B903F088FBD6E9002332
:104A30000121CDE90023354A03F014FFD6E9002314
:104A4000C7E900230221294801F098FBA0F2DC50BD
:104A5000B0F5FA7F04DA2A4B9842B8BF184601E055
:104A60004FF4FA7004F0D6FC294E2A4FC6E9000133
:104A7000D7E9002304F09CFF002859D103F05EFB26
:104A8000D6E900230121CDE90023234A03F0EAFE01
:104A9000D6E90023C7E900234AE000BFAFF3008056
:104AA00012143FC6DCA54C406CDC0320EEA70D00C1
:104AB00090DC032059A60D0006A80D00EDA60D0000
:104AC000FCA60D0013A70D0002A70D0006A70D0000
:104AD00019A70D00A8DD03200000C84223A80D007F
:104AE0008DA80D00C0DD032097A80D00A8E30320CA
:104AF00001A90D0094A90D0080DD0320B8DD03207D
:104B00000CFEFFFF78DE032098DB03209FA90D0039
:104B100090DD032088DB0320BAA90D003B783BB170
:104B20000521884801F02AFBB0F5FA6F40F0EC83CC
:104B30000821844801F022FBB0F5FA6F2CD12B78C4
:104B4000023B012B0CD9804B02221A7003F0F6FABB
:104B5000D4E900230121CDE900237C4A03F082FE41
:104B60000121784801F00AFBA0F2DC5004F052FC6D
:104B70000022774B04F0B4FC0022764B04F0DAFDFF
:104B8000C4E9000103F0DAFAD4E900230121CDE9F8
:104B90000023714A03F066FE03F0D0FA03681B6934
:104BA0009847002800F0878003F0C8FA03685B6923
:104BB000984733284AD033DC31283FD042DC2028C4
:104BC00079D10021654800F055FE654B002600278D
:104BD000C3E90067634BC3E90067634B00211868B2
:104BE000FFF730FB0021614800F044FE604BC3E951
:104BF0000067604BC3E900675F4B00211868FFF74F
:104C000021FB0020FFF7A2FB5C4B012118605348F9
:104C100000F030FE0121554800F02CFE00231EE07C
:104C200036281BD003DC352845D1022317E038286D
:104C300017D039283FD1FFF72FFB3CE04F4E3068AB
:104C4000643806E04D4E3068643002E04B4E306808
:104C50004042FFF77BFB0123306000E008232B700C
:104C600029E02B78384F464E072B06D1454800F0F7
:104C700089FE002333703B701DE007233B70424BDD
:104C8000D3E90001364BC3E90001404B3D4893EDA9
:104C9000000B01F00CF83E4B3A4893ED000B01F08D
:104CA00003F83C4B3748196801F004F801233370CE
:104CB000394B00221A6003F0CCFB384B5E6903F0DD
:104CC000CAFB03F0C6FB364BD3F8148003F0C3FBDA
:104CD00002F074FA2B780E90013B072B00F21D8333
:104CE000DFE813F0CF00140068001B031B031B0355
:104CF0007502080003F05FFC044602F05FFA2246EA
:104D0000034628492848FFF7F3FC06E3D4E90001ED
:104D100004F096FE0130022800F2FF8203232B707C
:104D200003F00CFA044602F049FA204BD3E90023C1
:104D30000121CDE9002303461D4A204603F092FDE0
:104D4000EBE200BFA8E30320B8DD0320D4A90D00E7
:104D50000080564000407F40DAA90D0040DF03206C
:104D600088DE032088DC0320E4DD0320F0DD03205F
:104D700090DE032068DE0320E8DC032020DF032030
:104D8000ECDC0320B8DF032018DF0320A8DB0320BE
:104D9000A0DB032080DB032088DD032024DF032049
:104DA000C8DD0320F4A90D0028AA0D00C0DD0320F2
:104DB00033AA0D00D4E9000104F042FE0028B8BF78
:104DC00040420E2811DD02232B7003F0B7F905468F
:104DD00002F0F4F9924BD3E900230121CDE900233D
:104DE0000346904A284603F03DFD8F4800F0CAFB79
:104DF000002846D08D4D8E49D5E90023C1E9002316
:104E00008C49C1E9002303F0D6FB074602F0D6F92E
:104E1000894B8146844893ED008BD4E900ABD5E9FA
:104E2000004500F0A1FD8048B0EE409AF0EE609A97
:104E300000F09DFD7C48B0EE40AAF0EE60AA00F0C4
:104E400099FD7948B0EE40BAF0EE60BA00F095FDF9
:104E50007A4B7B4901280CBF084618460C908DED13
:104E60000ABB8DED08AB8DED069BCDE904458DEDBC
:104E7000028BCDE900AB4B463A4672497248FFF7C8
:104E800037FC724B1A681F4622B9714A16600E9A97
:104E90001A60B3E00E9BC2EB0309B9F1000F40F3B7
:104EA000AD806B4BDFF8D4A11B684EF66020F31A7F
:104EB000584304F0AFFA044648460D4604F0AAFAF7
:104EC0000022644B04F00CFB02460B4620462946A8
:104ED00004F030FCCAE900015F4800F053FB0028F1
:104EE00000F08C8003F02AF9044603F064FB0146CD
:104EF00014A803F01DFB1499204603F0B1FB14A87D
:104F000003F006FD03F057FB054602F057F9534C3A
:104F1000474B8146504893ED008B94ED009BDAE9B6
:104F200000AB00F021FD4C48B0EE40AAF0EE60AAC4
:104F300000F01DFD4848B0EE40BAF0EE60BA00F057
:104F400019FD4548B0EE40CAF0EE60CA00F015FD0C
:104F50003A4B3B4901280CBF084618464B46DFF840
:104F600020910C902A463E493E488DED0ACB8DEDAE
:104F700008BB8DED06AB8DED049B8DED028BCDE96D
:104F800000ABFFF7B5FBD4E90023D9E9000104F039
:104F9000F5F81FA3D3E9002304460D4604F012FDE3
:104FA00058B11DA3D3E900232046294604F028FD6B
:104FB00030B919A5D5E9004502E015A5D5E90045A8
:104FC000C9E900452046294604F03AFD264B014632
:104FD0001868FFF7A3F903F0EEFA044602F0EEF8C2
:104FE000D9E900232149CDE9002303462246204880
:104FF000FFF77EFB164B1E600E9B3B601D4B1C6833
:105000001D46002C3ED11C4AC2F80080E5E000BFDE
:105010000000000000E06F400000000000E06FC0F2
:10502000C0DD032050AA0D0008DD0320F0DC0320C2
:1050300090DD032078DE0320A0DD0320E7A70D002C
:10504000DDA70D006AAA0D0009AB0D0098DD032055
:10505000A4DE032000C0924040DF032088DE03204E
:105060001AAB0D00B5AB0D00E4DD0320C3AB0D00A2
:105070001AAC0D0080DE032084DD032000DD032058
:1050800088DC03200E9B1C1B002C40F34681DFF8BC
:105090000093DFF800A3D9F800004EF66023C0EBC0
:1050A0000800584304F0B6F9064620460F4604F0BF
:1050B000B1F90022A04B04F013FA02460B46304629
:1050C000394604F037FBCAE900019C4800F05AFA5F
:1050D000002800F0228103F06EFA044602F06EF818
:1050E000974E984B0746954893ED008B96ED009BA5
:1050F000DAE900AB00F038FC9048B0EE40AAF0EEE0
:1051000060AA00F034FC8D48B0EE40BAF0EE60BA10
:1051100000F030FC8948B0EE40CAF0EE60CA00F002
:105120002CFC894B8949224601280CBF08461846A9
:10513000874C0C903B46874987488DED0ACB8DED17
:1051400008BB8DED06AB8DED049B8DED028BCDE99B
:1051500000ABFFF7CDFAD6E90023D4E9000104F053
:105160000DF871A3D3E9002306460F4604F02AFC8C
:1051700058B16FA3D3E900233046394604F040FC10
:1051800030B96BA7D7E9006702E067A7D7E90067E6
:10519000C4E900673046394604F052FC6F4B0146C3
:1051A0001868FFF7BBF803F006FA064602F006F8A7
:1051B000D4E900236A49CDE9002303463246694811
:1051C000FFF796FA0E9BC9F800802B60A5E0664BAE
:1051D0001C681F4624B9654A16600E9A1A609CE046
:1051E0000E9B1C1B002C40F39880DFF880A1DFF899
:1051F000A8B1DAF800004EF66023301A584304F0E4
:1052000009F980462046894604F004F900224A4BF9
:10521000574C04F065F902460B464046494604F0F7
:1052200089FA544BC3E90001534800F0EDFB60B329
:10523000524A002313702B7000220023D4E900018E
:1052400003F09CFF38A3D3E9002306460F4604F081
:10525000B9FB58B136A3D3E900233046394604F0F0
:10526000CFFB30B932A7D7E9006702E02EA7D7E914
:1052700000673946C4E90067304604F0E1FB0146A7
:10528000DBF80000FFF74AF847E03D4BD4E90001A6
:10529000D3E9002303F072FF23A3D3E90023804660
:1052A000894604F08FFB60B121A3D3E90023404677
:1052B000494604F0A5FB40B90FF27409D9E9008909
:1052C00003E00FF26409D9E900894946C4E900897D
:1052D000404604F0B5FB0146DBF80000FFF71EF87E
:1052E00003F069F9054601F069FFD4E90023254977
:1052F000CDE9002303462A462348FFF7F9F90E9B20
:10530000CAF800603B6008E0002630463E70FFF7B8
:105310001DF81E4B2E7018600AE425B0BDEC0A8BF8
:10532000BDE8F08FAFF300800000000000E06F40A8
:105330000000000000E06FC000C09240F0DD0320DC
:1053400090DE032078DE0320E7A70D00DDA70D0027
:1053500068DE03202AAC0D00C6AC0D00E8DC03209B
:10536000D5AC0D002DAD0D0098DD0320A4DE03208B
:1053700088DC032000DD0320B8DF0320ECDC032001
:1053800088DE03203EAD0D001AAC0D0020DF0320A7
:1053900084DD032098DE0320E4DD032010B5102116
:1053A000044603F0F5FC204610BD0000000000009C
:1053B00070B52DED068B564B564E574D82B00024DE
:1053C0009FED498B1C609FED4AAB01F027FFB0EECB
:1053D000482AF0EE682AB0EE4A1AF0EE6A1A9FEDFB
:1053E000469B4E4BB0EE490AF0EE690A1860324611
:1053F000009429464A4B4B4800F072FAB0EE482A16
:10540000F0EE682AB0EE4A1AF0EE6A1AB0EE490AD7
:10541000F0EE690A0094444B444A4549454800F07F
:105420005FFA324629464448444D00F055FCB0EE40
:10543000482AF0EE682A9FED321B9FED330B404B5C
:105440000094404A40494148414C00F049FA082242
:1054500006214048FEF7BAFF042205213E48FEF728
:10546000B5FF6021204600F0CDFC0321204600F06E
:105470008FFC3A4B04211860204600F089FC384B21
:10548000384C186028223721284601F0C1FA2246FC
:105490003549284603F06EFC03F0ECFB334D0A233C
:1054A00001461022284601F04FFC2246304928468A
:1054B00003F060FC2F4D30494FF4007301932F4BE4
:1054C000009340F25B723C23284600F0A7FE2C4973
:1054D0002246284602B0BDEC068BBDE8704003F0C2
:1054E00049BC00BFAFF300800000000000000000D6
:1054F0009A9999999999B93FFCA9F1D24D62D03FF7
:10550000000000000000E03F00000000000000403C
:10551000E8DD032088DE032000DD032070DE0320A9
:1055200090DD032040DF032078DE032090DE03209F
:1055300098DE0320F0DD0320B8DF0320A8DD032080
:10554000A0DD0320F0DC0320C0DD032008DD032004
:10555000A8DE0320C8DD032024DF0320E4DD0320D0
:10556000E8DC032068DC0320D9400D006CDC03205C
:10557000156D0D0090DC032090DB0320DD400D0055
:10558000A1690D002DE9F04F90F8705087B00446E6
:105590000DB900256FE001F011FE236CA26D0390A0
:1055A000C31A9342F5D3636BE16BD3E90089D1E968
:1055B000000142464B4603F0DFFDD4E90823CDE964
:1055C000040103F08DFFD4E9122303F0D7FDD4E9E1
:1055D0001AAB06460F46C4E9126752465B4604F012
:1055E0000FFA10B1C4E912AB0EE094ED187B30460F
:1055F00053EC172B39468DED007B04F0E3F918B11D
:105600009DED007B84ED127BD4E90623DDE90401E6
:1056100003F066FFD4E9122303F0B0FDD4E91423AC
:1056200006460F464046494603F0A6FDD4E90A2344
:1056300003F056FF02460B463046394603F09CFD08
:1056400006460F4602460B465046594604F0BAF944
:1056500050B9D4E918AB304652465B46394604F09F
:10566000B1F908B9B246BB46A36BC3E900ABC4E9C4
:105670001489039B2364284607B0BDE8F08F00001F
:105680002DE9F34755EC104B82460022002310EE23
:10569000100A294659EC118B57EC126B04F092F961
:1056A000002851D1002200234046494604F08AF9DF
:1056B000002849D1002200233046394604F082F9FF
:1056C000002841D1CAE90289CAE90467CAE900454C
:1056D000DAF8580003F08EFE00221D4B04F02AF881
:1056E000CAE90645CDE9000102460B464046494657
:1056F00003F0F6FE80468946DDE900233046394650
:10570000CAE9088904F016F8DAF8303006460F4680
:10571000012BCAE90A6717D122462B460020002137
:1057200003F02AFD4246CAE906014B46002000214B
:1057300003F022FD3246CAE908013B460020002161
:1057400003F01AFDCAE90A0102B0BDE8F08700BF04
:1057500000408F40F8B50D1E044620DD284603F0BA
:1057600059FE0646A06D0F4603F044FE02460B4666
:105770003046394603F0DEFF02460B4606460F462A
:10578000D4E9080103F0ACFE3246C4E908013B4607
:10579000D4E90A0103F0CEFFC4E90A01A565F8BD0A
:1057A0002DE9F84F55EC104B57EC116B824611EE7A
:1057B000102A3B4610EE100A294604F017F900287B
:1057C00033D19AF87030CAE91845CAE91A6763B349
:1057D000DAF838B0DBE90089304642464B463946B4
:1057E00004F0F0F810B1CBE9006708E042464B4600
:1057F0002046294604F004F908B1CBE90045DAE96E
:105800001267DAE91A45304622462B46394604F03B
:10581000F7F840B9DAE91845304622462B463946B2
:1058200004F0D0F808B1CAE91245BDE8F88F2DE9B7
:10583000D043836BD3E90067C0E91267436BD0E9BB
:105840001A89D3E900230446C0E9142339464246A5
:105850004B46304604F0D4F840B9D4E918893046B4
:1058600042464B46394604F0ADF808B1C4E9128906
:10587000BDE8D08338B54B1E5D425D4190F8703075
:1058800083F001039D42044601D1FFF7D0FF84F865
:10589000705038BD38B590F8703004460D46D3B11D
:1058A000036B994217D0D0E906230021002003F0B2
:1058B00063FCD4E90823C4E906010020002103F0B9
:1058C0005BFCD4E90A23C4E908010020002103F0AD
:1058D00053FCC4E90A01256338BD00000000000044
:1058E00010B52DED068BB0EE408AF0EE608AB0EE7A
:1058F000419AF0EE619AC3630023826380F87030AE
:1059000000220023C0E91823B0EE42AAF0EE62AAFA
:1059100013A3D3E90023C0E91A2364230446836553
:1059200041639DF82010FFF7B5FFB0EE4A2AF0EE74
:105930006A2AB0EE491AF0EE691AB0EE480AF0EEA3
:10594000680A2046FFF79CFE01F038FCBDEC068B90
:10595000A36DC01A2064204610BD00BFAFF30080C5
:105960000000000000E06F4090ED000B704790EDEC
:10597000020B704790ED040B704790F87000704771
:1059800001F04CBC002380F8243070470000000078
:10599000D0B504468368D0E9F601C3E90001D4E933
:1059A000F4231046194603F0E9FB0022144B03F0E0
:1059B00097FDD4E9F22306460F46D4E9F00103F03F
:1059C000DBFB0DA3D3E9002303F08AFD02460B465F
:1059D0003046394603F0AEFEE36AC4E9F801A06A36
:1059E000C01A03F007FD0022064B03F0A3FEC4E932
:1059F000FA01D0BDAFF300806E861BF0F92109409B
:105A00000000104000408F402DE9F74FD0F8B82338
:105A10000023092A824680F8BD3307DD90F8242050
:105A200022B180F82430FFF7B3FF2FE101F0C6FB6D
:105A3000DAF83030DAF83420C31A9342834601D2C0
:105A4000002028E1DAF80430CAF83000D3E9004534
:105A50009AF8243001228AF8BD23D3B9CAE9F04567
:105A6000CAE9F245CAE90445DAF80860CAF83C30E8
:105A7000CAF8B8338AF8BC338AF82420D6E9002360
:105A8000DAE9F401CAE9F62303F078FBC6E900017C
:105A900011E0DAE9F0232046294603F0B1FF08B10E
:105AA000CAE9F045DAE9F2232046294603F08AFFE5
:105AB00008B1CAE9F245DAE90467DAE9068930464D
:105AC00042464B46394603F059FB02460B462046F8
:105AD000294603F095FF40B1DAE9F423DAE9F6014B
:105AE000DAF8086003F048FB14E042464B463046C3
:105AF000394603F041FB02460B462046294603F097
:105B000061FF48B1DAE9F423DAE9F601DAF808606E
:105B100003F034FBC6E90001DAF8387001230AEB20
:105B2000C7068AF800308AF8013007F1FF38483696
:105B3000B8F1000F28DB16ED047B9AF800308DEDEC
:105B4000007B5BB153EC172B204629464FF001092F
:105B500003F056FF00B981468AF800909AF80130A8
:105B60005BB1DDE90023204629464FF0010903F02F
:105B700029FF00B981468AF801909DED007B08F16C
:105B8000FF3826ED027BD3E7082FCAE910457FF7DF
:105B900057AF9AF80030BBB1DAF83C3013B90123A3
:105BA000CAF83C30DAF83C30013308D10123CAF896
:105BB0003C308AF8BC33DAF82830CAF82C30CAF8FE
:105BC00028B0DAF8B8331CE09AF80130EBB1DAF813
:105BD0003C301BB94FF0FF33CAF83C30DAF83C20B8
:105BE000012A0AD14FF0FF33CAF83C30DAF8B83353
:105BF0008AF8BC230133CAF8B833DAF8B833092B72
:105C000003DC0AEBC303C3E9DA459AF8BC33002B83
:105C10003ED0DAF8B843022C3ADD0AEBC404D4E9EA
:105C2000D667D4E9D80132463B4603F0A5FA03F023
:105C300007FF80EAE075D4E9D423A5EBE075394687
:105C4000304603F099FA03F0FBFE0028B8BF40424B
:105C50002844401003F0DEFBDAE9F22304460D4647
:105C6000DAE9F00103F088FA0DA3D3E9002303F089
:105C700037FC02460B462046294603F0A3FE38B106
:105C80005046FFF785FE00238AF82430012002E009
:105C900000208AF8BC0303B0BDE8F08FAFF30080AA
:105CA0009A9999999999A93F80EDF40B704780EDE5
:105CB000060B7047002902DD182906DC00E00121EF
:105CC0008900FA23816343637047642383630A2353
:105CD00059434163704700000023D0B5036280F848
:105CE0002430094F094B8260002600224160C0E940
:105CF0000667C0E9F4230A210446FFF7DBFF01F041
:105D00005DFA20632046D0BD0000E03F00003E4029
:105D100001F084BA00231A466C3000F0D0B870B598
:105D200006460C4606F16C0502F07EFF02F0AEF866
:105D3000284600F02DF907EE904A7480B8EE670A05
:105D4000284600F031F900240023E1B21A46284623
:105D5000013400F0B4F8102CF6D170BDB2F5805FBC
:105D6000134600F16C0026BF00234FF4805200223E
:105D700000F0A5B810B41AB95DF8044BFFF7CABF1C
:105D800000234FF480526C305DF8044B00F097B85C
:105D9000042930B52DD80139C9B20C2303FB010207
:105DA000147B0CBB117301EB410200EB820290608B
:105DB00069B101290FD0022910D0032915BF092389
:105DC00006230A24052414BF0825072509E0092312
:105DD0000A24082505E00B240D2502E003230424F2
:105DE0000D461571547193710C2303FB01000430AF
:105DF00030BD002030BD00224260027282704270CD
:105E00000270704737B5031D0D46044600F134019A
:105E10001846FFF7F0FF0C338B42F9D1002384F8CA
:105E2000443084F84C30A4F8423084F8603084F870
:105E30006830A4F85E30402104F16C0000F03DF8B9
:105E40002570294601A800F038F89DF8043084F840
:105E50006C30204603B030BD022938B504460D46EB
:105E60000AD0042913D001291BD181784068FFF79B
:105E700051FF2A46617805E041784068FFF74AFF04
:105E8000A17801226068BDE83840FFF773BF417810
:105E90004068FFF73FFFA1786068BDE83840FFF732
:105EA00039BF38BD0A0101784068FFF757BF01F0DC
:105EB000B5B90368C9B29B68184701707047F8B557
:105EC000074615461C460E4602F0AEFE397802F033
:105ED0001AF802F0A9FE062101EB8601FFF7E9FF9F
:105EE00002F0A2FE2946FFF7E4FF02F09DFE290A18
:105EF000FFF7DFFF02F098FE2146FFF7DAFF02F01E
:105F000093FE210AFFF7D5FF02F08EFEBDE8F840B0
:105F100002F001B838B504460D4602F085FE21783E
:105F200001F0F1FF02F080FE036829469B68984764
:105F300002F07AFE01F0EFFF02F076FE01222178F6
:105F400001F0DEFF02F070FE03685B699847C0B2A3
:105F500038BD70B5064614460D4602F065FE317830
:105F600001F0D1FF02F060FE036829469B68984764
:105F700002F05AFE036821469B68984702F054FEDF
:105F8000BDE8704001F0C7BF00221146FFF7E1BF36
:105F900010B5044602F048FE01F078FF2046BDE847
:105FA0001040FFF7F1BF0000DFED2E7A87EE800A88
:105FB00070B504462DED028BB7EE008A30EE488AAC
:105FC00002F0BCF8284902F038FB02F0B7F8B0EE56
:105FD000480A022102F037FC18EE100A03F02CFAEE
:105FE000224B002203F0CAF841EC100B03F030F80A
:105FF00051EC100B03F04CFDC6B202F09FF81C49A7
:1060000002F01BFB02F09AF80A223146054602F024
:1060100031FB284602F018FB00212046FFF77AFFEB
:1060200000F06F02054642F0100220460021FFF703
:1060300090FF32462046FE21FFF78BFF2A460021C3
:106040002046FFF786FF052002F0CEFABDEC028B5A
:1060500065F05E022046D2B20021BDE87040FFF735
:1060600078BF00BF20BCBE4596AD0D000000E03FEC
:10607000ACAD0D0001F0D2B8042310B5037041603F
:10608000044601F09BF80023A06084F82C3084F8CB
:106090002D30A4F8423084F8443010BD38B50C4699
:1060A00005464FF4E131204601F0A0FF2146284685
:1060B000BDE83840FFF7E0BFF8B5044600260425E8
:1060C000606803681B699847002856DD01F076F880
:1060D000A368A060C31A022B606888BF267003689B
:1060E0005B6998472278C3B2032AE9D8DFE802F057
:1060F000020E2126202B3ED8DA1EDB43A4F84230C4
:1061000084F82C6084F82D20012315E094F82C10DD
:106110004A1C2144D2B284F82C200B73B4F84210EC
:10612000CB1AA4F8423094F82D309342C8D1022300
:1061300002E084F8443003232370C1E7000294F89E
:106140004430B4F8422000F47F401844824212D117
:10615000237B402B0FD122460123977B507B03F0FA
:10616000FE0102332144DBB240EA0720152BC8852B
:1061700002F10202F1D12570A2E7F8BD09299ABF08
:1061800000EB4100C08D0020704701F047B80000CF
:1061900038B584690A4B036005467CB16368013BEE
:1061A00063605BB9236820469B689847A368013BFE
:1061B000A3601BB923682046DB689847284638BD92
:1061C0005CAE0D0010B50446FFF7E2FF20461C212F
:1061D00002F0DEFD204610BD38B51D46059B036369
:1061E00000230446436302B1826419B104F138000C
:1061F00002F0E8FB049B2365069BE069A4F84C5081
:10620000FF2BB8BFFF23A4F8543008B1FDF74BFFB4
:10621000B4F85400FDF743FFE06138BD2DE9FF41BC
:1062200004460025174698460E4601F0CBFCE56172
:106230000A4904F1380002F0B2FB0B9B02930A9B5F
:1062400001932046A564CDF800803B46324629469E
:10625000FFF7C2FF204604B0BDE8F08184B00D0016
:1062600010B50446204601F011FC0028FAD0204663
:1062700001F0B5FAC0B210BD2DE9F0470546C4697A
:106280008846FFF7EDFF2070EB6993F800A04FF010
:1062900001090AF0F00A00274E462846FFF7E0FF02
:1062A000EB69985500F07F0313FB09F31F44741C3E
:1062B0000306A4B2BFB24FEAC91901D52646ECE7DE
:1062C000631EBAF1300F88F8003013D12846D5F894
:1062D0001C80FFF7C5FF08F804002846F41CD5F819
:1062E0001C800236FFF7BCFFB6B2A4B208F8060065
:1062F000022300E000231B1B9EB2A3199BB29F4206
:106300000BD92846FFF7ACFFB5F85430A34284BF41
:10631000EB6918550134A4B2EFE7B5F85400A04278
:106320002CBF20460020BDE8F087F7B507468E4613
:106330001E461D46002402A905F07F032144ED09F5
:1063400018BF43F08003013401F8043CE4B2002D8F
:10635000F1D1C4F10403D11802F803E0A54206DA32
:106360002B1B01A81344285C58710135F6E7721CF9
:106370002244384601F089F9054600F01FFF013438
:1063800078623444A8B2231A5842584103B0F0BD91
:1063900010B5C369E0221A70C36900225A7004461E
:1063A0000222C16901F071F9204601F057FB00F0AB
:1063B00005FF6062A06210BD0233F0B59BB20D46CE
:1063C0006C1A15F8016BA4B23EB1B0F854709F423C
:1063D00003D95C1CD654A3B2F2E7191B0A4421125C
:1063E00002F8021C02F8014C1846F0BD38B505460B
:1063F00001F061F9002814BF0124002402D12846CD
:1064000001F02CFB204638BD2DE9F04387B004464F
:10641000894617461E46DDF83880FFF7E7FF054638
:10642000002840F0BD80A16C39B90346B4F84C2077
:10643000A16B204601F016FA09E0684601F02CFF36
:106440002B46B4F84C206946204601F08DFA00280E
:1064500000F0A280012323849DF84C30042B15D139
:10646000524B18689A88ADF804200090E2699B7935
:1064700000988DF80630531DC2F80500BDF80410D1
:106480009DF806209A7199800C2312E0484BD4F8AD
:106490001CC0186859681B7A6A4603C213706B46A1
:1064A00003CBCCF80500CCF8091013788CF80D302C
:1064B0000E23B8F1000F0AD09DF840209DF83C1043
:1064C000520142F0060242EAC102D2B200E00222C8
:1064D0009DF8481009B902F0FD022FB116B942F03B
:1064E000800201E042F0C002E169CA54226DE16914
:1064F000581C12120A549A1CE169206D8854033307
:10650000E26949462046FFF757FFB8F1000F0BD06C
:106510000346E26941462046FFF74EFFE2691199C2
:1065200003462046FFF748FF67B10346E269394654
:106530002046FFF741FF2EB10346E269314620466F
:10654000FFF73AFF431F9BB2E26910212046FFF795
:10655000ECFE00F033FE4FF47A766062A0622046D3
:1065600001F094FA40B900F029FEA36AC01A236D25
:1065700073439842F3D90FE069462046FFF77CFE4B
:10658000042809D1E369DE7836B900F017FE012549
:10659000A06284F82C6004E0204601F05FFA00E07D
:1065A0000025284607B0BDE8F08300BFBEAD0D0052
:1065B000C5AD0D007FB5042305930123049300238B
:1065C00003930293019300931A46FFF71DFF07B050
:1065D0005DF804FB2DE9F14F0D9E9DF828809DF894
:1065E0002C509DF8307004468B4691469A46FFF732
:1065F000FDFE00284CD0B4F85420E069002103F0DF
:1066000004FC0523E26959462046FFF7D5FE6B1EC0
:10661000012B12D8238CE26901339BB223841B1215
:106620001354411C89B2E369228C5A54023080B25F
:106630001EB1238C5A1C22843380002291B283180D
:106640008A459BB20AD9B4F854609E4202F1010215
:1066500004D919F80160E169CE54EFE7B8F1000FF1
:106660000CBF302131210FB141F00801022D02D1C0
:1066700041F0040103E0012D08BF41F00201053B98
:10668000E2699BB2204601B0BDE8F04FFFF74DBE76
:1066900001B0BDE8F08F1FB5089C0394002402945C
:1066A0009DF81C4001949DF818400094FFF792FF5C
:1066B00004B010BD7FB5054610460E46144603F0E3
:1066C000E7FB0023029301930093224603463146E1
:1066D0002846FFF7E0FF04B070BD38B504460D460C
:1066E000FFF784FE90B1E36962221A70E369022227
:1066F0005A70E3692A129A70E369DD700422E16935
:10670000204600F0C2FF003018BF012038BD38B568
:1067100004460D46FFF76AFE90B1E36972221A70D3
:10672000E36902225A70E3692A129A70E369DD7004
:106730000422E169204600F0A8FF003018BF0120C4
:1067400038BD2DE9F04F83B000AF0446FFF74EFE91
:106750008146002800F0F68000F030FD226D4FF4F5
:106760007A735343A26A821A9A42054603D8626A30
:10677000821A934217D294F82C302BB1204601F0A4
:106780006DF94FF00009DDE0E269C0211170E269A6
:106790005370E1690222204600F077FF0123656211
:1067A000A56284F82C30204601F070F9002800F032
:1067B000C980F91D2046FFF75FFD0246002800F062
:1067C000C180E369A562187800F0F00130297DD11D
:1067D000D4F830B0BBF1000F00F0B48097F807C0D8
:1067E00003EB0C00EA46817890F801E001EB0E2EF5
:1067F0001FFA8EFE0EF1080121F00701ADEB010D2D
:10680000684600218EB2B64506D90CEB01061E443F
:10681000F67846540131F5E7002100F80E101E7895
:1068200006F00606022E0CF10301CCEB02021ED18B
:106830007144CEEB020213F801801944053A4978FD
:1068400001EB08280CF1050171441944D847E369AC
:1068500040221A70E3695E70E3691FFA88F84FEA14
:1068600028229A70E369042283F8038020E0042E32
:1068700024D17144CEEB020213F801801944053A89
:10688000497801EB08280CF1050171441944D847F7
:10689000E36950221A70E36902225A70E3691FFA11
:1068A00088F84FEA28229A70E369324683F8038019
:1068B000E169204600F0E9FE656205E0033A7144B3
:1068C000CEEB02021944D847D5463BE0502908D107
:1068D0009978DB7803EB012189B22046FFF7FDFEB2
:1068E00030E040290CD0602908D19978DB7803EB9F
:1068F000012189B22046FFF70AFF23E070290DD15C
:10690000616BF9B1042A1DD110F0060F1AD19878E5
:10691000DB7803EB002080B2884713E0902911D088
:10692000C0290AD1D0221A70E36900225A70E169A5
:106930000222204600F0A9FE04E0D02904BF002373
:1069400084F82C3048460C37BD46BDE8F08F70B552
:1069500004460E461546FFF749FDE8B1238C013386
:106960009BB203B901232384238CE2691B12537168
:10697000E369228C9A71E269314607232046FFF7CA
:106980001BFDE3691D54031FE26920469BB282216F
:10699000BDE87040FFF7C9BC70BD0022FFF7D7BF4C
:1069A00010B50446FFF722FD10B12046FFF7F0FCBA
:1069B000E06908B1FDF777FB04F1380001F0A8FFAA
:1069C0002046FFF7E5FB204610BD00F027BC000085
:1069D00038B50C46054628220021204603F015FA5A
:1069E0000B220949204603F070FA00230122E372CA
:1069F000E260AA68636200232261A3610322E3616B
:106A0000024B6261236238BDCEAD0D000AD7233C34
:106A100010B5024C04608160427110BDE0AD0D0004
:106A200070B5064614460D4602F0FEF8717901F085
:106A30006AFA02F0F9F8036829469B68984702F061
:106A4000F3F8036821469B68984702F0EDF801F0DF
:106A500062FA012070BD08B50A4601733D21FFF7B7
:106A6000DFFF1E20BDE8084001F0BEBD38B504467A
:106A70000D4602F0D9F8617901F045FA02F0D4F838
:106A8000036829469B68984702F0CEF801F043FA64
:106A900002F0CAF80122617901F032FA02F0C4F87A
:106AA00003685B699847C0B238BD38B50D460446E7
:106AB00002F0BAF801F0EAF900212046FFF7D6FF0C
:106AC000A02809D120460021FFF7C5FF20223F2141
:106AD0002046FFF7A5FF0BE04FF47A7001F084FD2C
:106AE00000212046FFF7C2FFA028EBD0002038BDD0
:106AF00000212046FFF7BAFFA02803D00A2001F0AA
:106B000073FDF5E7322001F06FFD00223E212046A3
:106B1000FFF786FF0A2001F067FD002207212046CB
:106B2000FFF77EFF00223F212046FFF779FF0A2072
:106B300001F05AFD29462046FFF78DFF142001F091
:106B400053FD012038BDF8B5054616461C460F46D4
:106B500002F06AF8697901F0D6F902F065F8036885
:106B600039469B68984702F05FF801F0D4F902F0CB
:106B70005BF82246697901F0C3F9013C751E344483
:106B8000A54207D002F050F803685B69984705F802
:106B9000010FF5E70120F8BDF7B50D4617460021B6
:106BA0001822044603F031F900230093ADF80430B5
:106BB000284606236A463946FFF7C5FF9DF8003090
:106BC0009DF801009DF803609DF8055043EA002000
:106BD0009DF8023043EA06269DF80430142F43EA5C
:106BE000052500B236B22DB223D003D8082F37D0F6
:106BF0000E2F04E0282F33D02E2F31D01A2F49D159
:106C000002F008FC0022254B02F06AFCC4E90001F6
:106C1000304602F0FFFB0022204B02F061FCC4E989
:106C20000201284602F0F6FB00221C4B02F058FC41
:106C30002EE002F0EFFB0022194B02F07BFDC4E9CD
:106C40000001304602F0E6FB0022154B02F072FD17
:106C5000C4E90201284602F0DDFB0022104B15E0DA
:106C600002F0D8FB00220F4B02F064FDC4E90001E2
:106C7000304602F0CFFB00220A4B02F05BFDC4E974
:106C80000201284602F0C6FB064B002202F052FD2C
:106C9000C4E90401204603B0F0BD00BF0000B03FCE
:106CA00000208C400000594070B50C46242686B068
:106CB000054632460021204603F0A7F82660AB685F
:106CC00063600323A36000F079FA1A222061294649
:106CD0006846FFF761FFDDE9000102F0F9FE60613F
:106CE000DDE9020102F0F4FEA061DDE9040102F039
:106CF000EFFEE061012006B070BD00F08FBA00F039
:106D00008DBA000008B500F089FA014B186008BD83
:106D1000F0E3032010B5054B03600446006900F062
:106D2000C3FB034B00221A60204610BDFCAD0D00D2
:106D3000F4E3032010B50446FFF7ECFF20461C21C6
:106D400002F026F8204610BD10B50446074822720E
:106D5000002284E80300E360A282A261980000F0B0
:106D60009BFB034B20611C60204610BDFCAD0D0059
:106D7000F4E3032010B50446017A406801F08CF872
:106D80006068044901F0CAF860680349BDE8104032
:106D900001F0C8B8916E0D00D16E0D00C368994224
:106DA0003ABF036953F8210000207047C368994235
:106DB0003CBF036943F82120704770B583698BB1EC
:106DC00000220125836905FA02F4234096B206D019
:106DD0000E80836923EA04038361012070BD0132C0
:106DE000202AEFD1184670BD02292DE9F041044652
:106DF0000FD1406803685B699847C0B2A0826068A1
:106E000003685B699847A38A43EA0020A082BDE833
:106E1000F081062939D1406803685B6998470546C7
:106E2000606803685B699847EDB245EA002085B267
:106E3000606803685B6998478046606803685B69BF
:106E400098470646606803685B699847074660682C
:106E500003685B699847E3689D4216D25FFA88F839
:106E6000360248EA006006F47F4606433804236988
:106E700000F47F0030431F2D43F8250005D8A36997
:106E8000012000FA05F51D43A561BDE8F081000071
:106E9000034B0146186808B1FFF7A6BF704700BF53
:106EA000F4E3032007B500230193C268838A934269
:106EB00038BF026940683CBF52F823300193036831
:106EC0000422DB680DEB0201984703B05DF804FB78
:106ED000024B186808B1FFF7E5BF7047F4E30320E1
:106EE00000F09CB900F09AB900F098B908B5024BCF
:106EF0001B681B68019308BD4C02030008B5024BD8
:106F00001B685B68019308BD4C02030008B5024B87
:106F10001B681B69019308BD4C02030008B5024BB6
:106F20001B685B69019308BD4C02030008B5024B66
:106F30001B689B69019308BD4C02030008B5024B16
:106F40001B68DB69019308BD4C02030008B5024BC6
:106F50001B681B6A019308BD4C02030008B5024B75
:106F60001B689B69019308BD3802030008B5024BFA
:106F70001B68DB69019308BD3802030008B5024BAA
:106F80001B681B6A019308BD3802030008B5024B59
:106F90001B689B6A019308BD3802030008B5024BC9
:106FA0001B681B6B019308BD3802030008B5024B38
:106FB0001B689B6B019308BD3802030008B5024BA8
:106FC0001B68DB68019308BD2802030008B5024B6B
:106FD0001B689B69019308BD2802030008B5024B9A
:106FE0001B68DB69019308BD2802030008B5024B4A
:106FF0001B681B6A019308BD2802030008B5024BF9
:107000001B685B6A019308BD2802030008B5024BA8
:107010001B689B6A019308BD2802030008B5024B58
:107020001B68DB6A019308BD2802030008B5024B08
:107030001B681B6B019308BD2802030008B5024BB7
:107040001B685B6B019308BD2802030008B5024B67
:107050001B689B6B019308BD2802030008B5024B17
:107060001B68DB6B019308BD2802030008B5024BC7
:107070001B681B6C019308BD2802030008B5024B76
:107080001B681B6D019308BD2802030008B5024B65
:107090001B681B68019308BD3C02030008B5024B46
:1070A0001B68DB68019308BD3C02030008B5024B76
:1070B0001B681B69019308BD3C02030008B5024B25
:1070C0001B685B69019308BD3C02030008B5024BD5
:1070D0001B689B69019308BD3C02030008B5024B85
:1070E0001B68DB69019308BD3C02030008B5024B35
:1070F0001B681B6A019308BD3C02030008B5024BE4
:107100001B689B6A019308BD3C02030008B5024B53
:107110001B68DB6A019308BD3C02030008B5024B03
:107120001B685B69019308BD6402030008B5024B4C
:107130001B681B6A019308BD6402030008B5024B7B
:107140001B689B6A019308BD6402030008B5024BEB
:107150001B689B68019308BD4802030008B5024BF9
:107160001B681B69019308BD4802030008B5024B68
:107170001B685B69019308BD4802030008B5024B18
:107180001B685B6C019308BD4802030008B5024B05
:107190001B689B6C019308BD4802030008B5024BB5
:1071A0001B685B68019308BD1802030008B5024B19
:1071B0001B68DB68019308BD1802030008B5024B89
:1071C0001B685B69019308BD1802030008B5024BF8
:1071D0001B68DB69019308BD1802030008B5024B68
:1071E0001B689B6D019308BD1802030008B5024B94
:1071F0001B685B69019308BD6C02030008B5024B74
:107200001B68DB69019308BD3002030008B5024B1F
:107210001B681B6A019308BD3002030008B5024BCE
:107220001B681B68019308BD2C02030008B5024BC4
:107230001B689B68019308BD2C02030008B5024B34
:107240001B68DB68019308BD2C02030008B5024BE4
:107250001B685B69019308BD2C02030008B5024B53
:107260001B689B69019308BD2C02030008B5024B03
:107270001B68DB69019308BD2C02030008B5024BB3
:107280001B681B6A019308BD2C02030008B5024B62
:107290001B685B6A019308BD2C02030008B5024B12
:1072A0001B689B68019308BD6802030008B5024B88
:1072B0001B68DB68019308BD6802030008B5024B38
:1072C0001B685B68019308BD6002030008B5024BB0
:1072D0001B689B68019308BD6002030008B5024B60
:1072E0001B68DB68019308BD6002030008B5024B10
:1072F0001B689B69019308BD6002030008B5024B3F
:107300001B68DB69019308BD6002030008B5024BEE
:107310001B685B6B019308BD6002030008B5024B5C
:107320001B681B6D019308BD6002030008B5024B8A
:107330001B689B68019308BD4402030008B5024B1B
:107340001B685B69019308BD4402030008B5024B4A
:107350001B68DB69019308BD4402030008B5024BBA
:107360001B681B6B019308BD4402030008B5024B68
:107370001B68DB6B019308BD4402030008B5024B98
:107380001B685B68019308BD4002030008B5024B0F
:107390001B689B68019308BD4002030008B5024BBF
:1073A0001B68DB68019308BD4002030008B5024B6F
:1073B0001B681B69019308BD4002030008B5024B1E
:1073C0001B685B69019308BD4002030008B5024BCE
:1073D0001B689B69019308BD4002030008B5024B7E
:1073E0001B68DB69019308BD4002030008B5024B2E
:1073F0001B681B6A019308BD4002030008B5024BDD
:107400001B681B6B019308BD4002030008B5024BCB
:107410001B685B6B019308BD4002030008B5024B7B
:107420001B681B68019308BD2002030008B5024BCE
:107430001B685B68019308BD2002030008B5024B7E
:107440001B685B69019308BD2002030008B5024B6D
:107450001B689B6D019308BD2002030008B5034B18
:107460001B68D3F88830019308BD00002002030098
:1074700008B5034B1B68D3F89430019308BD000096
:107480002002030008B5034B1B68D3F8A03001931A
:1074900008BD00002002030008B5024B1B681B68F2
:1074A000019308BD1C02030008B5024B1B685B6812
:1074B000019308BD1C02030008B5024B1B689B68C2
:1074C000019308BD1C02030008B5024B1B681B6931
:1074D000019308BD1C02030008B5024B1B689B69A1
:1074E000019308BD1C02030008B5024B1B685B6AD0
:1074F000019308BD1C02030008B5024B1B68DB6A40
:10750000019308BD1C02030008B5024B1B681B6BEE
:10751000019308BD1C02030008B5024B1B68DB6B1E
:10752000019308BD1C02030000231A464068FFF7C0
:1075300025BF002202214068FFF730BF002211461C
:107540004068FFF723BF002211464068FFF72EBFB7
:1075500000231A4619464068FFF730BF00231A4639
:1075600019464068FFF732BF002281F001014068F0
:10757000FFF734BF00224068FFF740BF00221146EA
:107580004068FFF743BF002211464068FFF72EBF57
:107590002DE9F043002495B016460D46074600F04D
:1075A0002DFE214620220CA8009402F02EFC402340
:1075B0000C9321466B460CAA3046FFF777FE044633
:1075C000002844D1024601216868FFF7EFFE02213E
:1075D000804622466868FFF7E9FE009E8146214604
:1075E000002E34D0002932D17368022B02D00A2B2E
:1075F00009D02AE0B8F1000F27D07169384604316C
:1076000000F03FFE20E0B9F1000F1ED07469112296
:1076100001A802F0FAFB06238DF8143001AD04F145
:1076200008031834186859682A4603C20833A3426D
:107630001546F7D101A906A807AD00F0EDFD0FCD65
:107640003C1D0FC42B6823700121F669C8E7009820
:10765000FFF724FE384615B0BDE8F083024B034A1D
:107660001A6000225A607047F8E303200CAE0D0048
:1076700037B502AC036804F8011DDD6B01224FF041
:10768000FF332146A84703B030BD10B40368DC6B5C
:107690004FF0FF33A4465DF8044B604737B502ACAA
:1076A000036804F8011DDD6B214613460122A8473B
:1076B00003B030BD704738B543691A68002A0446E4
:1076C00005DAB3F88620B3F884309A4201D0012558
:1076D0000BE003681B699847002814BF01250025AB
:1076E00003D123682046DB6A9847284638BD4369A2
:1076F0001868C043C00F704770470020704710B52E
:107700001421044601F044FB204610BDFCF7C9BC1F
:107710007FB5164600224260029203925A1C04462C
:107720000D4608D04FF47A72B3FBF2F1029102FBDE
:1077300011314A43039260690823009341F2050224
:107740006B4440F6FF710068FFF708FC002808DB77
:1077500060690023324629460068FFF71FFC0028B5
:1077600004DAFFF7D9FE03686360002004B070BD3F
:1077700010B5036804469B689847A368013BA36063
:107780002BB923682046DB68BDE81040184710BDC0
:1077900070B504464D69054B44F8043B8C350646EC
:1077A0000FCD0FC42B682370304670BDB0AF0D00F5
:1077B00010B54369B3F88620B3F884309A42044682
:1077C00005D06269B2F884301344187910BD03689B
:1077D0001B6998470028F4D14FF0FF3010BD10B559
:1077E0004369B3F88620B3F884309A42044608D03F
:1077F0006269B2F88430591C1344A2F884101879D5
:1078000010BD03681B6998470028F1D14FF0FF3085
:1078100010BDF8B543691746B3F88620B3F8843035
:107820009A4205460E4606D103681B69984710B96F
:107830004FF0FF3414E06969B1F88430B1F8864044
:10784000E41ABC4228BF3C46194422460431304663
:1078500002F0D0FA6A69B2F884302344A2F8843086
:107860002046F8BD2DE9F0439846036893B0DB6AE3
:107870000D4606461746984712AB002443F8484D7C
:10788000224621462846FFF711FD814600283DD1BA
:10789000009B002B56D05B69002B53D006A800F04C
:1078A000ADFC009B5C696378022B01D1211D13E0C4
:1078B0000A2B14D11122494601A802F0A6FAA368A6
:1078C00033BBE36823BB4FF6FF702569FFF72EFC3F
:1078D00085421DD104F1140106A800F0D2FC06A8CF
:1078E00000F0ACFC00282DD0336807ADD3F8209011
:1078F000184B0C930FCD0DAC0FC42B6823703A4678
:1079000043460CA93046C84781461BE0A14619E012
:1079100004F1080301AD1834186859682A4603C2F7
:107920000833A3421546F7D1062301A90CA80DADD3
:107930008DF8143000F070FC0FCD07AC0FC42B682D
:107940002370CCE70098FFF7A9FC484613B0BDE8C8
:10795000F08300BFB0AF0D0042690023A2F884306D
:107960004269A2F8863070472DE9F0411E4603684F
:107970000C468AB0DB6A054617469847237DD5F842
:107980001480042B0CBF02200A2006220121FFF7DD
:107990000DFBC8F800006B691B68002B18DB28463C
:1079A000FFF7DAFFD6B1002303A9F0B20393ADF8D5
:1079B0001030FFF71BFC58B968690623009341F2A9
:1079C0000B0203AB40F6FF710068FFF7C7FA28B15E
:1079D0002B682846DB6A002498473BE01C26324689
:1079E000002103A802F011FA237D8DF80C60042B0E
:1079F0000CD1022338468DF80D30FFF79FFBADF810
:107A00000E006068FFF792FB049013E00A233846EB
:107A10008DF80D30FFF792FB05AEADF80E00231D7B
:107A200004F1140718685968324603C20833BB4290
:107A30001646F7D16B691C2203A91868FFF79EFA56
:107A40000028C5D104340FCC6D698C350FC523686F
:107A50002B70012420460AB0BDE8F08110B54369BF
:107A600004461868002801DBFFF780FA63694FF0CD
:107A7000FF321A606069112200218C3002F0C5F9D2
:107A80002046BDE81040FFF767BF000030B54269EF
:107A9000B2F886308BB004461BB1B2F884209A420B
:107AA00040D06369186800283FDBB3F886507F2D0B
:107AB0003BD8191DC5F1800208232944FFF766FA57
:107AC00000280CDD6369B3F886200AB9A3F8842086
:107AD0006269B2F886301844A2F8860025E0FFF704
:107AE0001BFD03680B2B20D0FFF716FD03680B2B43
:107AF0001BD02023002502930395FFF70DFD03689B
:107B000001930E4B009302AA2B460D493220FFF73A
:107B100005FC63691868FFF729FA63694FF0FF32C3
:107B20001A6002E0FFF718FFBBE76269B2F886301F
:107B3000B2F88400181A0BB030BD00BFA7AE0D001C
:107B4000A0AE0D0010B5002304460160A0F88430FB
:107B5000A0F88630883000F051FB204610BD0000B0
:107B60004FF47A7270B500238260144A4360026059
:107B7000436183610446A0200E46FCF78EFA054659
:107B800010B13146FFF7DEFF1420FCF786FA0346FA
:107B900028B1012242608260094A02600561A06941
:107BA0006561A36128B14368013B43600BB9FFF7EE
:107BB000DFFD2046FFF7D0FE204670BD5CAE0D0015
:107BC00040AE0D0010B54FF0FF310446FFF7C8FF7F
:107BD000204610BD10B504460068002801DBFFF701
:107BE000C5F9204610BD10B504692046FFF7F2FF25
:107BF00024B12046BDE81040FCF753BA10BD002266
:107C000011464068FFF7F2BB002211464068FFF7BB
:107C1000FDBB00224068FFF7F1BB002281F00101AB
:107C20004068FFF7DBBB00231A4601214068FFF7DD
:107C3000CDBB00231A4619464068FFF7BFBB0022A0
:107C400011464068FFF7B2BB002211464068FFF7BB
:107C50009DBB002202214068FFF7A0BB00231A460B
:107C60004068FFF78BBB38B5054688B104684CB156
:107C7000A3681BB1032221462046984710212046C5
:107C800001F086F828461421BDE8384001F080B89C
:107C900038BD10B103685B681847704710B50368BA
:107CA0000446BBB15868FFF751FA78B923685A7C8B
:107CB00012B95868FFF752FA23685868FFF756FA66
:107CC00020680023236028B1FFF7CDFF206808B1AA
:107CD000FFF7C9FF204610BD38B50446D0F8C401EF
:107CE00008B1FCF7E0F9D4F8C00108B1FFF74EFA8B
:107CF000D4F8BC5135B12846FFF7D0FF04212846FF
:107D000001F046F8206808B1FFF7C3FF204638BDF0
:107D100010B5044B044640F8083BFFF7DDFF204652
:107D200010BD00BFC0AE0D0038B50E4C0E4B236029
:107D30000025022304F5E4706360A560C4F8C45113
:107D4000C4F8C851FFF71AFA084BC4F8CC5184F8AC
:107D5000D05123602046064A0649BDE8384001F06C
:107D600009B800BF00E403200CAE0D00C0AE0D004A
:107D700068DC0320117D0D0010B504460170084633
:107D8000FFF73CFA00236360204610BD0078FFF740
:107D90003DBA002211464068FFF708BB0022114699
:107DA0004068FFF723BB002211464068FFF72EBB57
:107DB00000224068FFF722BB002281F001014068E9
:107DC000FFF70CBB00231A4619464068FFF7FEBABE
:107DD00000231A4619464068FFF7F0BA0022114600
:107DE0004068FFF7D3BA002202214068FFF7D6BAF5
:107DF00000231A464068FFF7C1BA0000024B042274
:107E00005A60024A1A607047D4E50320F4AE0D00B0
:107E10007047F8B5064615460C468F18BC4206D08A
:107E2000336814F8011B9B6830469847F6E72846EC
:107E3000F8BD0022007CFFF7D9B80021007CFFF7D5
:107E4000DDB80021007CFFF7E1B80021007CFFF7DE
:107E5000E5B80021007CFFF7E9B810B5142104460D
:107E600000F096FF204610BD10B504460023636065
:107E70004FF47A73A360044B2174084623601146C3
:107E8000FFF7F4F8204610BD28AF0D0000231A4676
:107E90001946007CFFF792B80A4600230121007CB6
:107EA000FFF78CB870B50C4686B0142506462A46F6
:107EB000002101A801F0A9FF23788DF8083063683C
:107EC0000393E36804930022237A307CADF80450D6
:107ED00001A90593FFF7D2F806B070BD1FB50033B6
:107EE0008DF800104FF06401039118BF012369461B
:107EF00001928DF80830FFF7D5FF05B05DF804FB5F
:107F00000123FFF7EBBF0022007CFFF75FB80022E0
:107F1000007CFFF763B80121FFF7F9BF0022007C66
:107F2000FFF794B80022007CFFF798B80021007C8E
:107F3000FFF784B870474174704708B5007CFFF7BD
:107F4000DDF820EAE07008BD08B5007CFFF7AEF868
:107F500020EAE07008BD08B5007CFFF7B7F830EA0A
:107F6000200028BF4FF0FF3008BD08B5007CFFF7A8
:107F7000A5F830EA200028BF4FF0FF3008BD007C94
:107F8000FFF7ACB810B51421044600F001FF2046FD
:107F900010BD70B5457C04460E4625B9007CFFF740
:107FA000ADF8002805DD3146207CBDE87040FFF7C4
:107FB00075B8284670BD000010B504460846114645
:107FC000002262604FF47A72A260054A22600122A8
:107FD000207462741A46FFF759F8204610BD00BF9E
:107FE00050AF0D000023007CFFF790B80022FFF790
:107FF000F9BF007CFFF77AB8F8B5194C25684DB980
:108000008420FCF74AF8064618B18422294601F07C
:10801000FCFE2660134D2E684EB98420FCF73DF817
:10802000074618B18422314601F0EFFE2F600E4F53
:10803000396811F0010611D13846FCF736F868B1FD
:1080400022682B6809483146FFF7B6FF3846FCF72F
:1080500031F8074A0749054800F08CFE0348F8BD8F
:10806000F8E50320F0E50320F4E50320DCE5032038
:1080700068DC0320357F0D0041747047704708B5F8
:108080000021007CFEF752FF30EA200028BF4FF0AD
:10809000FF3008BD08B50121007CFEF747FF30EA3C
:1080A000200028BF4FF0FF3008BD08B5007CFEF768
:1080B00035FF20EAE07008BD08B5007CFEF726FF1A
:1080C00020EAE07008BD007CFEF740BF10B5142127
:1080D000044600F05DFE204610BD38B50446007C25
:1080E0000D46FEF71BFF002801DC607C28B1294605
:1080F000207CFEF723FF20EAE07038BD10B504466F
:10810000002363604FF47A73A360054B236001235F
:108110000846217463741146FEF7E8FE204610BD40
:1081200080AF0D000022007CFEF7E8BE10B51422DF
:108130000446002101F069FE204610BD30B50E4D09
:1081400087B001A8FFF7F2FF296811F0010410D1F0
:108150002846FBF7AAFF60B101AA21460748FFF7AE
:10816000CDFF2846FBF7A6FF054A0649034800F065
:1081700001FE024807B030BDFCE5032000E6032005
:1081800068DC03207D800D00704710B5182104467F
:1081900000F0FEFD204610BDF0B5037D062B8DB02E
:1081A0000E4600F104074FF0000402D000F108056C
:1081B00018E00CAD394605F8304D2F232A460A2029
:1081C000FEF7ACFF284601F063FE33680246DB6829
:1081D0002946304698470FE024B12E21304600F062
:1081E00030FA044415F8011D0A22304600F042FA24
:1081F000BD420444F0D120460DB0F0BD10B5054B92
:108200000446112240F8043B002101F0FEFD204607
:1082100010BD00BFB0AF0D000346074A10B543F8CC
:10822000042B01F1100251F8044B43F8044B914226
:10823000F9D10A781A7010BDB0AF0D00037D042B80
:1082400001D1406808E0062B0AD1436853B983681E
:1082500043B9C36833B90069003018BF01207047C3
:10826000002070470120704710B59DF8084044EA8F
:10827000032343EA024242EA016104234160037599
:1082800010BD37B50D788B784A78C97800912946AA
:10829000FFF7EAFF03B030BD10B5034B036004469F
:1082A000FFF7EFFF204610BDB0AF0D0010B583689B
:1082B000044613B1032201469847204610BD000032
:1082C00008B50C4B33B1FFF739FF03681B699847BA
:1082D000002809DC084B63B1FFF78EFE03681B69B9
:1082E0009847002803DC08BDAFF30080F2E7AFF346
:1082F000008008BD000000000000000008B5FFF786
:10830000DFFFFEF75BFF014B186008BD14E7032099
:108310000248034A0349121A01F06CBD00F403201D
:1083200004F40320C0B30D0007B5002300931A46E0
:108330006FF07701FFF79CF803B05DF804FB0000D5
:1083400007B543880A2B08D0502B09D1094B1B686D
:108350003BB103B05DF804EB1847FFF7E5FF06E01B
:10836000002300931A466FF07701FFF781F803B0FE
:108370005DF804FB14E6032038B5104C104D23685B
:10838000AB42104B0CBF012200221A7002D0FFF743
:10839000BFFF2560FEF702FF044601F03FFD0A4BD8
:1083A00013B12046AFF3008000210748FEF7DEFF3F
:1083B00000210648BDE83840FFF750B800F403201C
:1083C0001E1C279A18E603200000000041830D00C0
:1083D00010B50446FFF76AFF204610BD10B50446ED
:1083E000FEF784FF844208D01CB1BDE81040FEF7C0
:1083F0006DBFBDE81040FEF771BF10BD70B50546FA
:108400000E461446FEF772FF50B144EA062040EAD9
:108410000540FEF753FFE720BDE87040FEF76EBF52
:1084200070BD00000348044A04490023836000F043
:10843000A1BC00BF1CE6032068DC0320D1830D0033
:10844000826810B50AB900F0B6FCC368BDE81040F8
:108450001847FEF71BBFFEF711BF38B50023836036
:108460008B6804460D462BB102229847EB68E36007
:10847000AB68A360204638BDF8B50D4B53F82050CB
:1084800006460F461C4635B12846FFF70FFF102160
:10849000284600F07DFC1020FBF7FFFD054610B1DB
:1084A0003946FFF7DAFF44F826502846F8BD00BFEA
:1084B0002CE60320F0B50C4685B0054617461E464F
:1084C000FEF7D4FE21462846FFF7D6FF0446C8B182
:1084D000002104238E4203918DF80C30A5BF9DF836
:1084E00028308DF80E300B4603AB009302463B4616
:1084F0000749A8BF8DF80D602846FEF7AFFE08B10A
:10850000002002E0201C18BF012005B0F0BD00BF14
:1085100041840D0008B50020FEF720FF28B1FEF7CA
:108520000DFF80F00100C0B208BD012008BD0000B1
:1085300037B50E4B1B6819440D4B1B68044602A847
:10854000194440F8041D01F05DFB01F011FB0546E4
:1085500001F09EFC2844002300F8013C29462046F7
:1085600000F01DFA204603B030BD00BFC4E6032072
:10857000C0E6032010B50020FEF730FE044668B9BF
:10858000FEF74CFF01280BD12046FEF75FFF38B9FC
:10859000FFF7C0FF30B9FEF7C9FEF9E7012010BDB3
:1085A000002010BDFFF7B6FF0020FEF717FE0030D9
:1085B00018BF012010BD08B5FFF7DCFFBDE808407B
:1085C000FEF704BE024B1A68024B1A60704700BFE8
:1085D000B0DB0320BCE60320014B024A1A6070475F
:1085E000C8E6032053B00D000021FEF727BFF8B501
:1085F00006460D468F180024BD420CD0336815F88E
:10860000011B9B6830469847002801DB0444F3E7D0
:10861000002C08BF04462046F8BD70B505460C4640
:10862000084649B101F034FC2B6802462146284631
:10863000DB68BDE87040184770BD08B5FFF7EDFF77
:1086400008BD03689B68184738B50D210546FFF73C
:10865000F8FF0A2104462846FFF7F3FF204438BDFF
:1086600038B50546FFF7D9FF04462846FFF7ECFF6B
:10867000204438BD30B58BB00B4600218DF8241056
:10868000012A98BF0A220DF12304B3FBF2F505FB82
:10869000123303F0FF03092B94BF30333733DBB2BF
:1086A000214604F801392B46002DEED1FFF7B5FF26
:1086B0000BB030BD2DE9F04757EC106B82460D46EC
:1086C00010EE102A3B4610EE100A394601F0A2F9CE
:1086D00008B14E4912E027F000494FF0FF324C4BF1
:1086E0003046494601F096F968B94FF0FF32484BE1
:1086F0003046494601F070F928B946495046FFF71F
:108700008CFFBDE8F0874FF06042434B304639465E
:1087100001F076F908B14149F0E74FF06042404B73
:108720003046394601F04EF90028F4D100220023EA
:108730003046394601F046F940B12D215046FFF749
:1087400080FF07F1004304461F4600E00446354918
:108750004FF0000800205FFA88F39D4206D90022FE
:10876000314B00F0E7FF08F10108F4E732463B46E1
:1087700000F004FD0F46064601F08AF90A22014680
:1087800080465046FFF776FF0444E5B3404600F0CC
:1087900031FE02460B463046394600F0EDFC0646F7
:1087A0000F4650462149FFF738FF044400221E4B74
:1087B0003046394600F094FE06460F4601F040F977
:1087C000B0F1000907DA2D215046FFF73AFFC9F151
:1087D0000001804602E049464FF000080A22504658
:1087E000FFF748FF40440444484600F013FE0246A9
:1087F0000B463046394600F0BFFC013D15F0FF0541
:1088000006460F46D2D12046BDE8F087BCB00D0029
:10881000FFFFEF7FC6B00D00FFFFEF41C0B00D00BE
:10882000FFFFEFC10000E03F00002440C4B00D0096
:1088300038B5C9B20546FFF73DFF04462846FFF7A5
:1088400003FF204438BD38B5044610EE100A0D462B
:1088500000F0F2FD41EC100B29462046BDE83840FF
:10886000FFF7E6BF0CB42DE9F04387B000AF07F186
:108870003804054654F8049B3C600E4623464A469D
:108880001421381DFEF730FE132805D8391D28465F
:10889000FFF7C3FE044613E000F1080323F00703CB
:1088A000E846ADEB030D411C23464A4668463C6052
:1088B000FEF71AFE69462846FFF7AFFE0446C54696
:1088C0001EB12846FFF7C0FE044420461C37BD46B3
:1088D000BDE8F04302B0704710B50446006808B127
:1088E000FEF754FC204610BD10B5064C0023204670
:1088F0002360FEF743FC2046034A0449BDE81040CC
:1089000000F038BACCE6032068DC0320D9880D00DB
:1089100010B504460068FEF7C7FD204610BD10B52F
:108920000446006808B1FEF7BFFD00232360A36082
:10893000636010BD38B504460D4600680131FEF78E
:10894000BBFD10B184E82100012038BD10B50368DB
:10895000044613B143688B4207D22046FFF7EAFF73
:1089600020B1A3680BB922681370012010BD70B547
:108970000E46114604461546FFF7E8FF18B9204693
:10898000FFF7CDFF09E02A463146A560206801F0D7
:1089900031FA2268A3680021D154204670BD38B551
:1089A0000023044603604360836003730D4639B1BE
:1089B000084601F06DFA294602462046FFF7D7FF28
:1089C000204638BD38B505460C4641B1084601F091
:1089D0005FFA214602462846FFF7C9FF01E0FFF78C
:1089E0009EFF284638BD10B50446006818B1FEF752
:1089F0005BFD0023236010BD10B50446FFF7F3FFB5
:108A0000204610BD38B5B1F9043083800B460D46C1
:108A100053F8062FC0F806209B8843810446FFF7D1
:108A2000E2FF2B6813B1236000232B60204638BD82
:108A3000B1F9043010B50BB90A689AB10C685CB191
:108A4000A288012A03D0042A06D1022205E0A489C3
:108A50004C818A710B8105E004220B814FF6FF7374
:108A60008A714B8151F8063F03608B88838010BD6B
:108A700010B500240470448000294FF6FF748480F0
:108A800007DD0139994209D232F811308380012380
:108A900001E002D10223037010BD418010BD00002F
:108AA000F0B58BB017461A46129B01930E46002470
:108AB000119B0294054600933946109B3046FEF701
:108AC000E1FC3B463246014605A8FFF7D1FF07947B
:108AD000ADF820400D4C9DF81410BDF91620BDF8DE
:108AE00018308DF82210204607A9ADF82420ADF8E3
:108AF0002630FFF787FF07A8FFF775FF28462146B6
:108B0000FFF796FF28460BB0F0BD00BFD0E603206C
:108B100010B5094C00204FF6FF732060A080A071B3
:108B200020816381FEF782FC2046044A0449BDE8A7
:108B3000104000F01FB900BFD0E6032068DC03201E
:108B4000F9890D00002211464068FEF74FBC002253
:108B500011464068FEF75ABC00224068FEF74EBC42
:108B6000002281F001014068FEF738BC00231A465C
:108B700019464068FEF72ABC00231A461946406889
:108B8000FEF71CBC002211464068FEF70FBC002215
:108B900011464068FEF7FABB002202214068FEF74A
:108BA000FDBB00231A464068FEF7E8BB024B0322D8
:108BB0005A60024A1A607047DCE60320D4B00D0008
:108BC00070B5044614252A46094E002101F01DF90E
:108BD000258020253146A5602561284600F0DAF879
:108BE00031466060284600F0D5F8E060204670BD50
:108BF00000B10D0070B5044614252A46094E002127
:108C000001F003F9258020253146A560256128461D
:108C100000F0C0F831466060284600F0BBF8E06024
:108C2000204670BD00B10D0030B50E4D296811F021
:108C3000010487B013D12846FBF737FA78B101A8B1
:108C4000FFF7BEFF01AA21460748FFF70DF92846A6
:108C5000FBF730FA054A0649034800F08BF8024852
:108C600007B030BDE4E60320FCE6032068DC032007
:108C7000117E0D0010B50E4C2368DB0786B013D4AF
:108C80002046FBF712FA78B101A8FFF7B3FF01AA5B
:108C900001210848FFF7E8F82046FBF70BFA064ADF
:108CA0000649044800F066F8024806B010BD00BF4F
:108CB00010E70320E8E6032068DC0320117E0D00A6
:108CC00070B5184E316811F0010504460AD13046DE
:108CD000FBF7EBF930B129461348FFF74DF8304662
:108CE000FBF7E8F91048FFF751F828B1A4F10B039E
:108CF000022B01D8002070BDFFF796FFFFF716F991
:108D000008B1012CF6D9FFF777F9FFF772F918B11E
:108D1000A4F10903012BEDD9232C8CBF00200120E5
:108D200070BD00BF18E703201CE70320232838B5D7
:108D300004460D460AD8FF2908D0FFF7C1FF28B125
:108D400029462046BDE83840FEF770BA38BD10B558
:108D50000446FEF773FA0438C0B2012808D9204649
:108D6000FFF7AEFF20B12046BDE81040FEF76EBA17
:108D7000002010BD0B460146184600F035BF00002C
:108D8000024B1868BFF35F8F704700BF24E70320D2
:108D9000FBF787B900F000B810B5002814BF0446EF
:108DA00001242046FEF778FB20B9FFF7E9FF08B160
:108DB0008047F6E710BD08B5FEF79EFB184B1A6812
:108DC000D1075CBF01221A60164B1A68D2075CBF3C
:108DD00001221A60144B1A68D0075CBF01221A6086
:108DE000124B1A68D1075CBF01221A60104B1A6837
:108DF000D2075CBF01221A600E4B1A68D0075CBF15
:108E000001221A600C4B1A68D1075CBF01221A605C
:108E10000A4B1A68D2075CBF01221A60704700BF74
:108E200044E7032040E703203CE7032038E7032022
:108E300034E7032030E703202CE7032028E7032052
:108E4000244B1A68D0075CBF01221A60224B1A68B3
:108E5000D1075CBF01221A60204B1A68D2075CBFA1
:108E600001221A601E4B1A68D0075CBF01221A60EB
:108E70001C4B1A68D1075CBF01221A601A4B1A6892
:108E8000D2075CBF01221A60184B1A68D0075CBF7A
:108E900001221A60164B1A68D1075CBF01221A60C2
:108EA000144B1A68D2075CBF01221A60124B1A6871
:108EB000D0075CBF01221A60104B1A68D1075CBF53
:108EC00001221A600E4B1A68D2075CBF01221A6099
:108ED000704700BF74E7032070E703206CE70320AE
:108EE00068E7032064E7032060E703205CE70320D2
:108EF00058E7032054E7032050E703204CE7032002
:108F000048E70320244B1A68D0075CBF01221A608F
:108F1000224B1A68D1075CBF01221A60204B1A68E5
:108F2000D2075CBF01221A601E4B1A68D0075CBFD3
:108F300001221A601C4B1A68D1075CBF01221A601B
:108F40001A4B1A68D2075CBF01221A60184B1A68C4
:108F5000D0075CBF01221A60164B1A68D1075CBFAC
:108F600001221A60144B1A68D2075CBF01221A60F2
:108F7000124B1A68D0075CBF01221A60104B1A68A6
:108F8000D1075CBF01221A600E4B1A68D2075CBF82
:108F900001221A60704700BFA4E70320A0E7032066
:108FA0009CE7032098E7032094E7032090E7032041
:108FB0008CE7032088E7032084E7032080E7032071
:108FC0007CE7032078E70320184B1A68D1075CBFC1
:108FD00001221A60164B1A68D2075CBF01221A6080
:108FE000144B1A68D0075CBF01221A60124B1A6832
:108FF000D1075CBF01221A60104B1A68D2075CBF10
:1090000001221A600E4B1A68D0075CBF01221A6059
:109010000C4B1A68D1075CBF01221A600A4B1A6810
:10902000D2075CBF01221A60704700BFC4E703206B
:10903000C0E70320BCE70320B8E70320B4E7032020
:10904000B0E70320ACE70320A8E7032000000000FE
:1090500051EC100BC1F30A532DE9F041A3F2FF3597
:10906000132D0C460F4610EE106A1DDC002D43DB5D
:109070003D4B43FA05F801EA0803034319D038A32E
:10908000D3E9002300F07AF80022002300F0B8FCB6
:1090900020B1002C49DB27EA08040026234632468B
:1090A00043EC102BBDE8F081332D06DDB5F5806F64
:1090B00032D041EC100BBDE8F081A3F213434FF026
:1090C000FF3828FA03F810EA080FF2D024A3D3E9F6
:1090D000002300F053F80022002300F091FC002848
:1090E000DCD0002C27DB3C4626EA08062346324625
:1090F00043EC102BBDE8F08119A3D3E9002300F065
:109100003DF80022002300F07BFC0028C6D0002C94
:109110001CDB00263446C1E710EE102A0B4600F097
:109120002DF841EC100BBDE8F0814FF4801343FAA9
:1091300005F52F44AFE7142D10D00123C5F13405F8
:1091400003FA05F5AE1928BFFF18CCE724F000425A
:10915000064B324318BF1C4600269FE70137C2E783
:109160009C7500883CE4377EFFFF0F000000F0BFD5
:1091700081F0004102E000BF83F0004330B54FEAC8
:1091800041044FEA430594EA050F08BF90EA020F35
:109190001FBF54EA000C55EA020C7FEA645C7FEAC8
:1091A000655C00F0E2804FEA5454D4EB5555B8BFEB
:1091B0006D420CDD2C4480EA020281EA030382EA5C
:1091C000000083EA010180EA020281EA0303362DEE
:1091D00088BF30BD11F0004F4FEA01314FF4801CC1
:1091E0004CEA113102D0404261EB410113F0004FD3
:1091F0004FEA03334CEA133302D0524263EB43038A
:1092000094EA050F00F0A780A4F10104D5F1200E27
:109210000DDB02FA0EFC22FA05F2801841F1000182
:1092200003FA0EF2801843FA05F359410EE0A5F156
:1092300020050EF1200E012A03FA0EFC28BF4CF087
:10924000020C43FA05F3C01851EBE37101F000453D
:1092500007D54FF0000EDCF1000C7EEB00006EEB4A
:109260000101B1F5801F1BD3B1F5001F0CD34908D4
:109270005FEA30004FEA3C0C04F101044FEA44522B
:1092800012F5800F80F09A80BCF1004F08BF5FEAB2
:10929000500C50F1000041EB045141EA050130BD92
:1092A0005FEA4C0C404141EB010111F4801FA4F135
:1092B0000104E9D191F0000F04BF01460020B1FA8A
:1092C00081F308BF2033A3F10B03B3F120020CDAC2
:1092D0000C3208DD02F1140CC2F10C0201FA0CF0A0
:1092E00021FA02F10CE002F11402D8BFC2F1200C05
:1092F00001FA02F120FA0CFCDCBF41EA0C019040BB
:10930000E41AA2BF01EB0451294330BD6FEA040403
:109310001F3C1CDA0C340EDC04F11404C4F12002EE
:1093200020FA04F001FA02F340EA030021FA04F300
:1093300045EA030130BDC4F10C04C4F1200220FA57
:1093400002F001FA04F340EA0300294630BD21FA95
:1093500004F0294630BD94F0000F83F4801306BF5B
:1093600081F480110134013D4EE77FEA645C18BF4F
:109370007FEA655C29D094EA050F08BF90EA020FE6
:1093800005D054EA000C04BF1946104630BD91EADE
:10939000030F1EBF0021002030BD5FEA545C05D1E1
:1093A0004000494128BF41F0004130BD14F5800420
:1093B0003CBF01F5801130BD01F0004545F0FE4194
:1093C00041F470014FF0000030BD7FEA645C1ABFC9
:1093D000194610467FEA655C1CBF0B46024650EA00
:1093E000013406BF52EA033591EA030F41F400212C
:1093F00030BD00BF90F0000F04BF0021704730B5B2
:109400004FF4806404F132044FF000054FF0000186
:1094100050E700BF90F0000F04BF0021704730B547
:109420004FF4806404F1320410F0004548BF40421C
:109430004FF000013EE700BF42004FEAE2014FEA71
:1094400031014FEA02701FBF12F07F4393F07F4F4C
:1094500081F06051704792F0000F14BF93F07F4F7E
:10946000704730B54FF4607401F0004521F00041C1
:1094700020E700BF50EA010208BF704730B54FF047
:1094800000050AE050EA010208BF704730B511F04C
:10949000004502D5404261EB41014FF4806404F184
:1094A00032045FEA915C3FF4DCAE4FF003025FEA06
:1094B000DC0C18BF03325FEADC0C18BF033202EB8E
:1094C000DC02C2F1200300FA03FC20FA02F001FAE8
:1094D00003FE40EA0E0021FA02F11444C1E600BF87
:1094E00070B54FF0FF0C4CF4E06C1CEA11541DBF3A
:1094F0001CEA135594EA0C0F95EA0C0F00F0DEF805
:109500002C4481EA030621EA4C5123EA4C5350EAE9
:10951000013518BF52EA033541F4801143F480133A
:1095200038D0A0FB02CE4FF00005E1FB02E506F0CB
:109530000042E0FB03E54FF00006E1FB03569CF020
:10954000000F18BF4EF0010EA4F1FF04B6F5007F26
:1095500064F5407404D25FEA4E0E6D4146EB060698
:1095600042EAC62141EA55514FEAC52040EA5E5021
:109570004FEACE2EB4F1FD0C88BFBCF5E06F1ED8CB
:10958000BEF1004F08BF5FEA500E50F1000041EB02
:10959000045170BD06F0004646EA010140EA0200AF
:1095A00081EA0301B4EB5C04C2BFD4EB0C0541EAD1
:1095B000045170BD41F480114FF0000E013C00F3E6
:1095C000AB8014F1360FDEBF002001F0004170BD0A
:1095D000C4F10004203C35DA0C341BDC04F1140423
:1095E000C4F1200500FA05F320FA04F001FA05F2AF
:1095F00040EA020001F0004221F0004110EBD3707C
:1096000021FA04F642EB06015EEA430E08BF20EAA7
:10961000D37070BDC4F10C04C4F1200500FA04F34A
:1096200020FA05F001FA04F240EA020001F00041DC
:1096300010EBD37041F100015EEA430E08BF20EA4F
:10964000D37070BDC4F1200500FA05F24EEA020E97
:1096500020FA04F301FA05F243EA020321FA04F0C6
:1096600001F0004121FA04F220EA020000EBD3707D
:109670005EEA430E08BF20EAD37070BD94F0000F7D
:109680000FD101F00046400041EB010111F4801FB1
:1096900008BF013CF7D041EA060195F0000F18BF62
:1096A000704703F00046520043EB030313F4801F9E
:1096B00008BF013DF7D043EA0603704794EA0C0F58
:1096C0000CEA135518BF95EA0C0F0CD050EA41066E
:1096D00018BF52EA4306D1D181EA030101F00041EB
:1096E0004FF0000070BD50EA410606BF1046194613
:1096F00052EA430619D094EA0C0F02D150EA01361F
:1097000013D195EA0C0F05D152EA03361CBF10465F
:1097100019460AD181EA030101F0004141F0FE41FE
:1097200041F470014FF0000070BD41F0FE4141F482
:10973000780170BD70B54FF0FF0C4CF4E06C1CEA82
:1097400011541DBF1CEA135594EA0C0F95EA0C0F37
:1097500000F0A7F8A4EB050481EA030E52EA0335F2
:109760004FEA013100F088804FEA03334FF0805513
:1097700045EA131343EA12634FEA022245EA111540
:1097800045EA10654FEA00260EF000419D4208BFF1
:10979000964244F1FD0404F5407402D25B084FEA9E
:1097A0003202B61A65EB03055B084FEA32024FF44A
:1097B00080104FF4002CB6EB020E75EB030E22BFA7
:1097C000B61A754640EA0C005B084FEA3202B6EB67
:1097D000020E75EB030E22BFB61A754640EA5C0016
:1097E0005B084FEA3202B6EB020E75EB030E22BFA6
:1097F000B61A754640EA9C005B084FEA3202B6EBA7
:10980000020E75EB030E22BFB61A754640EADC0065
:1098100055EA060E18D04FEA051545EA16754FEAC7
:1098200006164FEAC30343EA52734FEAC2025FEAE5
:109830001C1CC0D111F4801F0BD141EA00014FF074
:1098400000004FF0004CB6E711F4801F04BF014345
:109850000020B4F1FD0C88BFBCF5E06F3FF6AFAE61
:10986000B5EB030C04BFB6EB020C5FEA500C50F1F1
:10987000000041EB045170BD0EF0004E4EEA113174
:1098800014EB5C04C2BFD4EB0C0541EA045170BD7B
:1098900041F480114FF0000E013C90E645EA060EBF
:1098A0008DE60CEA135594EA0C0F08BF95EA0C0FED
:1098B0003FF43BAF94EA0C0F0AD150EA01347FF435
:1098C00034AF95EA0C0F7FF425AF104619462CE70C
:1098D00095EA0C0F06D152EA03353FF4FDAE10466F
:1098E000194622E750EA410618BF52EA43067FF4C0
:1098F000C5AE50EA41047FF40DAF52EA43057FF450
:10990000EBAE12E74FF0FF3C06E000BF4FF0010C5A
:1099100002E000BF4FF0010C4DF804CD4FEA410CBE
:109920007FEA6C5C4FEA430C18BF7FEA6C5C1BD08B
:1099300001B050EA410C0CBF52EA430C91EA030F0C
:1099400002BF90EA020F0020704710F1000F91EA69
:10995000030F58BF994208BF90422CBFD8176FEA37
:10996000E37040F0010070474FEA410C7FEA6C5C05
:1099700002D150EA013C07D14FEA430C7FEA6C5C0C
:10998000D6D152EA033CD3D05DF8040B704700BF38
:109990008446104662468C461946634600E000BF86
:1099A00001B5FFF7B7FF002848BF10F1000F01BD58
:1099B0004DF808EDFFF7F4FF0CBF012000205DF823
:1099C00008FB00BF4DF808EDFFF7EAFF34BF0120A8
:1099D00000205DF808FB00BF4DF808EDFFF7E0FF41
:1099E00094BF012000205DF808FB00BF4DF808ED92
:1099F000FFF7CEFF94BF012000205DF808FB00BFF9
:109A00004DF808EDFFF7C4FF34BF012000205DF8DA
:109A100008FB00BF4FEA410C7FEA6C5C02D150EAC0
:109A2000013C0AD14FEA430C7FEA6C5C02D152EA56
:109A3000033C02D14FF0000070474FF00100704727
:109A40004FEA410212F5001215D211D56FF4787366
:109A5000B3EB625212D94FEAC12343F0004343EA09
:109A6000505311F0004F23FA02F018BF40427047E4
:109A70004FF00000704750EA013005D111F000406E
:109A800008BF6FF0004070474FF00000704700BF04
:109A90004A0011D212F5001211D20DD56FF478736D
:109AA000B3EB62520ED44FEAC12343F0004343EAC2
:109AB000505323FA02F070474FF00000704750EA0D
:109AC000013002D14FF0FF3070474FF00000704777
:109AD0004FEA4102B2F1E04324BFB3F5001CDCF1D0
