:02000002D0002C
:1040000000400D00FC950D00000006000C000501AD
:084010000401DB0700000000C1
:04401800308B0D00DC
:1040200009480A49884208B505D0094A824202D0A7
:10403000121A04F027FD0748074A0021121A04F05B
:104040002FFD014808BD00BFA0DD032034950D0001
:1040500040DE032040DE0320F4E7032070B5074E66
:10406000074C03F0EFFAA41BA4080025A54200D1D9
:1040700070BD56F8043B98470135F7E708950D00E9
:104080002C950D0000F0DCB908B500F005FBBDE88B
:10409000084003F099BA02F04DBF02F04BBF02F0A6
:1040A00051BF0078B0FA80F04009704701230370D7
:1040B000704770472F2810B504460DD9094A0021D2
:1040C0000A2002F081FE084B04F01F04D3F810050B
:1040D000E04000F0010010BD1F28F4D84FF0A043CD
:1040E000F4E700BF996C0D00000300502DE9F84380
:1040F0004C4B4D4E5B688361876833784B4DBFF303
:104100005B8F13F0010F044609D13046FFF7C9FF5A
:1041100028B102F0E1FD28603046FFF7C7FF1FFA23
:1041200087F82B684FEA081813F808703378BFF344
:104130005B8FD9074FEA471909D43B48FFF7B1FF16
:1041400028B102F0C9FD28603748FFF7AFFF2B68A0
:1041500043445F7807F01F0747EA09073846FFF72F
:10416000A9FF3846FFF7A6FFD4F80C803378BFF3D9
:104170005B8FDA07C7B209D42B48FFF792FF28B14B
:1041800002F0AAFD28602848FFF790FF1FFA88F880
:104190002B684FEA081813F808903378BFF35B8F49
:1041A000DB074FEA491909D41F48FFF77AFF28B106
:1041B00002F092FD28601C48FFF778FF2B689844B6
:1041C00098F8015005F01F0545EA09052846FFF754
:1041D00071FF2846FFF76EFF237CC0B203F0030394
:1041E0000FB143F0040308B143F008039A10013BF8
:1041F00022740D2B0BD8DFE803F0070C0F0C0A120A
:104200000707120A0C0F0C07636901336361BDE8ED
:10421000F8836369013BF9E763690233F6E7636991
:10422000023BF3E7001000E044DE032048DE0320F9
:10423000022A38B5044607D0032A11D0012A01D139
:104240000B682360002038BD0C200D68FFF723FFAA
:1042500003460028F5D095E8070083E80700F0E75B
:1042600000680028EED00C2103F06FFEEAE710B4DE
:1042700003685A6899681B68541001EB6200D20702
:1042800048BF0A595DF8044B48BFD35818470EB4CD
:1042900003B503AB012153F8042B019303F030FC69
:1042A00002B05DF804EB03B07047000030B1044B7E
:1042B000044A012814BF1846104670470248704748
:1042C000448B0D00528B0D004C8B0D0030B5294CEA
:1042D0008BB002F0E9FC2368C01AB0F57A7F0CD2EB
:1042E00003F0ACF8044602F0DFFC234A23490346FE
:1042F0002046FFF7CCFF0BB030BD02F0D5FC2060AC
:104300001F4C23789BBB03F099F8054602F0CCFCC8
:10431000194A1C4903462846FFF7B9FF642003F0F9
:10432000B1FA194B01221B6822701321ADF81E103F
:10433000029302213C23CDE900238DF81D100DF1DD
:104340001D030DF11E0108A803F084FC03F076F8AC
:10435000054602F0A9FC05902078FFF7A7FF059B12
:104360000090054A09492846FFF791FFC3E700235B
:104370002370EBE750DE0320598B0D006A8B0D0094
:104380004CDE0320808B0D0054DE0320B78B0D0024
:1043900030B5132085B003F0C0FDD0B903F04EF85E
:1043A000044602F081FC0C4A03901078FFF77EFF70
:1043B0000546132003F0B1FD039B084A0849CDE9E7
:1043C00000502046FFF763FF05B0BDE83040FFF71F
:1043D0007DBF05B030BD00BF4CDE0320C68B0D0095
:1043E000D68B0D0008B503F029F80549054AFFF7FB
:1043F0004EFFBDE808400221132003F07DBD00BF41
:10440000038C0D00F48B0D0038B50C1E054607D14A
:1044100001F02AFF0121284601F000FF204638BDA7
:1044200007DD012101F0FAFEE1B2284601F01CFF90
:10443000F4E7022101F0F2FE6142C9B2F5E70000A3
:1044400038B502F0FBFF4FF4E13102F0EBFF02F070
:10445000F5FF5B495B4D5C4CFFF719FF0C212846CB
:1044600002F0F3F848B902F0E9FF214603F035FA0B
:104470004FF47A7003F006FAF0E702F0DFFF534AD8
:104480005349FFF704FF642003F0FCF9012003F017
:1044900011F902F0D3FF4D4A4E49FFF7F8FE4E489E
:1044A00002F02CFA02F0CAFF484A4C49FFF7EFFE2F
:1044B000FFF798FF02F0C2FF444A4949FFF7E7FEC1
:1044C00002F034FF0146474801F0C4FF02F0B6FF96
:1044D0003E4A4549FFF7DBFE02F0B0FF3B49FFF7DC
:1044E000D6FE42484FF4C86101F0FCFD404B414804
:1044F000002400250121C3E9004501F057FB9FED91
:104500002C1B9FED2D0B3B4801F0E0FA394814219C
:1045100001F0B6FA384BC3E90045384BC3E9004512
:10452000374B00241C60374B21461868FFF76CFF9F
:1045300003F0E8FE344BC3E90001344B2146186810
:10454000FFF762FF03F0DEFE314BC3E900010121FA
:10455000304801F02BFB9FED161B9FED170B2D48EC
:1045600001F0B4FA2B480A2101F08AFA01212A4805
:1045700001F01CFB9FED0E1B9FED0F0B264801F079
:10458000A5FA0A21244801F07BFA02F057FF0F4AEE
:104590002249FFF77CFE02F051FF2149FFF777FE29
:1045A00022462046FF21BDE8384003F093B800BF03
:1045B0000000000000E06F400000000000E06FC05D
:1045C000088C0D0000E30320118C0D004E8C0D00B3
:1045D000548C0D00628C0D0010E30320708C0D00D4
:1045E000848C0D003CE50320988C0D00C4E403206E
:1045F000E8E2032070E20320E8E30320B8E40320AC
:1046000034E5032058E30320E0E3032028E40320FB
:10461000B0E4032068E3032038E40320A78C0D00F6
:10462000B68C0D0037B5044602F008FF054602F0CF
:104630003BFB094A0949009403462846FFF727FE39
:10464000204603F05FFE064BC3E90001054BC3E9BA
:104650000001204603B030BDC98C0D00D88C0D0080
:10466000B8E40320E8E303200EB400B5C2B043ABC6
:104670004FF4807153F8042B019302A802F06AFCF6
:1046800002F0DCFE02A9FFF702FE42B05DF804EB87
:1046900003B07047000000002DE9F04F2DED0A8BAC
:1046A0009FB0FFF775FE0C4D0C4E0DF152012846E0
:1046B00002F047F9A0B102F0C1FEBDF852200F92FE
:1046C00004461146284602F02DF90F9A034631465A
:1046D0002046FFF7DCFDE8E710E30320FA8C0D002D
:1046E00015A9B148B14E02F0AFF81C9803F01CFEBA
:1046F000D6E9002304F0D8F80446002859D102F086
:104700009DFE054602F0D0FA0F901C9803F00CFEB7
:104710000F9ACDE90001A6492846FFF7B8FD9FEDA5
:10472000A57ADDED1C7AA448A44D67EE877A214670
:10473000FDEEE77A17EE902A02F0FCF803F080F81D
:10474000109002F0B1FA0F901C9803F0EDFDCDE946
:1047500006011B9803F0E8FDCDE904011A9803F067
:10476000E3FDCDE90201199901911799944800914F
:10477000DDE90F329349FFF777FF1C9803F0D4FD72
:104780000023002203F072FCC5E9000102F056FE8E
:10479000044602F089FA0246D5E90001CDE900019C
:1047A00089492046FFF773FD1C9803F0BDFDC6E95B
:1047B00000018648DFF8589201F05AFE834801F064
:1047C000D4FED9F80030834204464BD003F038F8C9
:1047D000139002F069FA002112907C4801F0BEFEAD
:1047E00001210F90794801F0B9FE0221109077481D
:1047F00001F0B4FE03211190744801F0AFFE0421D2
:104800000546724801F0AAFE052106466F4801F0F0
:10481000A5FE062107466D4801F0A0FE072180464F
:104820006A4801F09BFE08218246684801F096FE26
:1048300009218346654801F091FE119B0293109B6C
:1048400001930F9B0093CDE908B0CDE9068ACDE92D
:104850000467DDE912325E495E480395FFF704FF05
:10486000C9F8004059485C4C072101F077FE40F23E
:10487000DC53984200F0CE80B0F5FA6F0CD023786C
:10488000022B09D10023237002F0D8FD4B4B534972
:10489000D3E90023FFF7FBFC4C48514E062101F001
:1048A0005DFE40F2DC53984200F0C280B0F5FA6F32
:1048B00000F03C8133785BB10020FFF7B3FE494B39
:1048C0000022186022703270FF21104602F002FFB1
:1048D0003E48052101F042FEB0F5FA6F35D142485D
:1048E000002101F063F9414B4FF000084FF000093F
:1048F000C3E900893E4BC3E900893E4B002118689B
:10490000FFF782FD3C48002101F050F93B4BC3E921
:1049100000893B4BC3E900893A4B00211868FFF737
:1049200073FD0020FFF77EFE2E4B012118602E48FC
:1049300001F03CF93048012101F038F90022FF2153
:1049400010463270227002F0C5FE02F077FD036857
:104950001B699847002800F09C8102F06FFD0368F6
:104960005B699847054602F069FD064602F09CF92E
:10497000254A2649009503463046FFF788FC202D3E
:1049800000F03481313D082D00F28381082D00F2C2
:104990008081DFE815F05B01DD01E5017E01ED01BD
:1049A000FA017E010702300200E3032060DE0320EB
:1049B000138D0D000000C84210E3032060E20320C5
:1049C000898D0D001F8D0D00938D0D003CE503209A
:1049D000AA8D0D003D8E0D0058DE0320488E0D007F
:1049E00059DE032034E5032068E3032060E303205D
:1049F000E0E3032058E3032038E4032030E40320FD
:104A0000B0E4032028E40320D58E0D00D88C0D00DF
:104A10002CE303202378023B012B7FF63DAF0223DA
:104A2000237002F00BFDAA4BAA49D3E9002331E71A
:104A30003178DFF8C492DFF810A359B9012333703D
:104A40002370A54B0022C9E90023CAE900230846C8
:104A5000FF223BE70021A148DFF8F0B201F07EFD24
:104A60000221A0F2DC5580469C4801F077FD9C4B6A
:104A70000F901A681093AA42A0F2DC5703D1DBF81A
:104A80000030BB420AD002F0D9FC2B4695493A4689
:104A9000FFF7FDFB109BCBF800701D600F9BA3EB95
:104AA0000800B0F5FA7F904BDFF85082A8BF4FF4B2
:104AB000FA709842B8BF184603F024FC02460B4631
:104AC000C8E90023DAE9002303F0EEFE50B902F052
:104AD000B5FCD8E900238549FFF7D9FBD8E90023C5
:104AE000CAE900233D448048B5F5FA7FA8BF4FF4DA
:104AF000FA75A842B8BF284603F004FC7C4D024674
:104B00000B46C5E90023D9E9002303F0CDFE0028B8
:104B10007FF4DEAE02F092FCD5E900237549FFF781
:104B2000B6FBD5E90023C9E90023D1E63278724DFE
:104B3000DFF814825AB9684900200123C5E9000151
:104B4000C8E90001337023701146FF20BEE6012141
:104B500062486A4F01F002FDA0F2DC50624BB0F5F2
:104B6000FA7FA8BF4FF4FA709842B8BF184603F016
:104B7000C9FB02460B46C7E90023D8E9002303F02E
:104B800093FE50B902F05AFCD7E900235749FFF7CA
:104B90007EFBD7E90023C8E9002302214F48544F88
:104BA00001F0DCFCA0F2DC504F4BB0F5FA7FA8BF5F
:104BB0004FF4FA709842B8BF184603F0A3FB0246C0
:104BC0000B46C7E90023D5E9002303F06DFE00285A
:104BD0007FF47EAE02F032FCD7E900234549FFF7AF
:104BE00056FBD7E90023C5E9002371E644480021BC
:104BF00000F0DCFF434B00260027C3E90067424B6F
:104C0000C3E90067414B00211868FFF7FDFB4048EE
:104C1000002100F0CBFF3F4BC3E900673E4BC3E9E7
:104C200000673E4B00211868FFF7EEFB0020FFF7FE
:104C3000F9FC3B4B01211860314800F0B7FF3448C4
:104C4000012100F0B3FF0023237022E0354E364BE4
:104C5000D6E90001002203F009FA344B93ED002B52
:104C6000334BC6E9000141EC100B93ED001B3148BA
:104C700000F09AFE02F0E2FB054602F015F803464A
:104C8000D6E900012C4ACDE900012C492846FFF75E
:104C9000FEFA02F04AFD2A4B5E6902F048FD02F07E
:104CA00044FD284B5B690F9302F041FD01F0FCFFCE
:104CB0002378013B0546072B00F2B680DFE813F0AE
:104CC0005301B900D500B400B400B400E3029E0063
:104CD00060E20320678E0D000000F0BF3CE503207A
:104CE000A0DD0320878E0D000CFEFFFFA08E0D00BF
:104CF000E8E30320BB8E0D00A8DD0320B8E4032009
:104D000068E3032060E30320E0E3032058E303208B
:104D100038E4032030E40320B0E4032028E4032037
:104D200034E50320D0DD03200000F03FF0E2032053
:104D3000F8E2032070E20320D58E0D00DA8E0D001C
:104D400030E3032000E40320B0DD0320A4DD0320D2
:104D50008D4E8E4BD6E90001002203F085F97CE7E9
:104D60008B4D28684042FFF75DFC012328606BE70C
:104D700002F064FB054601F097FF864A8649034628
:104D80002846FFF784FA02235EE702F057FB054648
:104D900001F08AFF7F4A814903462846FFF777FAE8
:104DA000082351E723787E4D072B05D17D4800F07D
:104DB00091FF00232B7047E7072323707A4BD3E939
:104DC00000017A4BC3E90001794B764893ED000B63
:104DD00001F06FF9774B734893ED000B01F066F922
:104DE000754B7048196801F067F901232B70734BFC
:104DF00000221A604DE7FFF769FA4AE702F01EFB4E
:104E0000044601F051FF634A644903462046FFF718
:104E10003EFA02F015FD0F9001F046FF0F9A684927
:104E200003466848FFF720FC1FB0BDEC0A8BBDE8C5
:104E3000F08F654DD5E90003002223F00041634B5C
:104E400003F03CFD0028EFD00323237002F0F6FAB4
:104E5000044601F029FF0246D5E90001CDE9000131
:104E60005B492046FFF713FADEE7574FD7E9000307
:104E7000002223F00041574B03F03EFD78B102239E
:104E8000237002F0DBFA044601F00EFF0246D7E978
:104E90000001CDE9000150492046FFF7F8F94F48DD
:104EA00000F0FCFC00285ED04D4C4E494E4FDFF820
:104EB0001891D4E90023C1E900234C49C1E900233A
:104EC00002F0BCFA804601F0EFFE0246D4E9000190
:104ED000CDE90401D7E90001CDE90201D9E90001DA
:104EE000CDE9000142494046FFF7D1F902F0A8FCA4
:104EF000119001F0D9FE1090384894ED00BBD9E92B
:104F00000089D7E900AB00F0BBFE3448B0EE408A20
:104F1000F0EE608A00F0B7FE3048B0EE409AF0EE56
:104F2000609A00F0B3FE2D48B0EE40AAF0EE60AA01
:104F300000F0AFFE2F4C304901280CBF0846204638
:104F40000C908DED0AAB8DED089B8DED068B8DEDF4
:104F500004BBCDE902ABCDE90089DDE91032274978
:104F60002748FFF781FB274B1A68002A52D1264AAF
:104F700016601D60254B1C68002C40F0C080244A40
:104F80000F9911601D604FE7D0DD03200000F03F56
:104F900034E50320D58E0D00F98E0D00148F0D0021
:104FA00038E5032068DE032058E2032060E3032095
:104FB000C0DD0320C8DD0320B8DD0320C0E40320EA
:104FC0002C8F0D00608F0D0060E203200000084070
:104FD0006B8F0D0000003940898F0D0070E20320B7
:104FE00068E20320E8E30320E8E20320B8E40320BA
:104FF000A48F0D00F38C0D00E98C0D00FB8F0D00CC
:105000009A900D00F4E30320F0E30320FCE3032077
:10501000F8E30320A5EB020ABAF1000FAADDA24FC4
:10502000A24C38684EF66023301A584303F06AF9F0
:1050300080465046894603F065F99D4B002203F0F7
:10504000CBF902460B464046494603F0EFFAC4E965
:105050000001984800F022FCA24600288AD0964C15
:10506000DFF8B0B2D4E90001DBE9002302F0FEFF73
:1050700089A3D3E900238046894603F01FFC00285A
:1050800038D087A3D3E900234046494603F034FCD7
:1050900018B90FF20C29D9E900894946C4E90089F9
:1050A000404603F049FC854B01461868FFF7ACF910
:1050B00002F0C4F9DBE90023CDE90423804B8149E8
:1050C000D3E90023CDE90223DAE90023CDE9002367
:1050D0007D4A2B46FFF7DBF802F0B0F9D4E9002354
:1050E0007A49CDE900232B46774AFFF7D0F8784B71
:1050F0003E603EE70FF2A019D9E90089CDE72C1BED
:10510000002C7FF791AE734B0F9A1B68DFF8F48188
:10511000D31A4EF66020584303F0F4F806462046B2
:105120000F4603F0EFF8624B002203F055F90246F8
:105130000B463046394603F079FAC8E90001664863
:1051400000F0ACFB00283FF46FAE02F079FB119049
:1051500001F0AAFD614E624C10905F48D8E900ABA7
:1051600096ED00BB94ED00CB00F08AFD5A48B0EEFE
:10517000408AF0EE608A00F086FD5748B0EE409A13
:10518000F0EE609A00F082FD5348B0EE40AAF0EED7
:1051900060AA00F07EFDA0465249534C01280CBF86
:1051A00008462046514C52490C90DDE910325148D6
:1051B0008DED0AAB8DED089B8DED068B8DED04CB4F
:1051C0008DED02BBCDE900ABFFF74EFAD8E9002325
:1051D000D4E9000102F04AFF2FA3D3E90023B1462E
:1051E0000F46064603F06AFB002848D02CA3D3E9FB
:1051F00000233046394603F07FFB10B928A7D7E9D2
:1052000000673946C4E90067304603F095FB3A4B26
:1052100001461868FFF7F8F802F012FB109001F051
:1052200043FD0346D4E90001109ACDE9000133495A
:105230003348FFF719FA02F001F9D8E90023CDE964
:105240000423D9E90023CDE902232E4B2E49D3E9CB
:105250000023CDE900231C4A2B46FFF718F802F083
:10526000EDF8D4E900232949CDE90023164A2B465D
:10527000FFF70DF8174B0F9A1A60254B82E606A729
:10528000D7E90067BDE7124B1F68002F44D1064ADB
:10529000166077E6AFF300800000000000E06F408A
:1052A0000000000000E06FC0F0E3032050E30320A3
:1052B00000C0924068E30320E0E3032058E30320AA
:1052C000E8E30320AB900D00D58E0D00DF900D00BC
:1052D000F4E30320F8E3032038E40320B8E40320D8
:1052E00030E40320E98C0D00F38C0D00B0E40320C2
:1052F000F7900D0093910D0028E40320A2910D007A
:10530000FA910D0020E403200B920D0040920D0055
:10531000FCE3032060E30320C71B002F7FF784AD6D
:10532000DFF8F0B1DFF8F0A1DBF800004EF6602303
:10533000301A584302F0E6FF80463846894602F0AC
:10534000E1FF674B674F002203F046F802460B4629
:105350004046494603F06AF9CAE900016248DFF8AD
:10536000BC8100F0F9FCD146CDF83CB000284FD00C
:105370005E4B4FF0000983F8009002F05FF806469C
:10538000594800F035FE5848B0EE408AF0EE608A89
:1053900000F04AFE5448B0EE409AF0EE609A00F0F9
:1053A00067FE2B468DED040B514A52498DED029B51
:1053B0008DED008B3046FEF76AFF84F800900022E6
:1053C0000023D7E9000102F051FE41A3D3E90023F5
:1053D00004460D4603F072FAB0B13FA3D3E90023AF
:1053E0002046294603F088FA10B93BA5D5E90045C7
:1053F0002946C7E90045204603F09EFA0146D8F841
:105400000000FFF701F80FE531A5D5E90045EFE70A
:10541000394CD7E90001D4E9002302F027FE2CA380
:10542000D3E9002382468B4603F048FA002848D08F
:1054300029A3D3E900235046594603F05DFA18B971
:105440000FF2940BDBE900AB5946C7E900AB5046BD
:1054500003F072FA0146D8F80000FEF7D5FF01F01C
:10546000EDFFD4E90023CDE90423244B2449D3E9FB
:105470000023CDE90223D9E90023CDE900231C4A0A
:105480002B46FEF704FF02F0DBF9109001F00CFC54
:105490000346D7E90001109ACDE9000119491A48DD
:1054A000FFF7E2F801F0CAFFD7E900231749CDE979
:1054B00000232B460E4AFEF7EAFE0F9B1E60144B9C
:1054C00060E50FF20C0BDBE900ABBDE7AFF300804A
:1054D0000000000000E06F400000000000E06FC02E
:1054E00000C09240E0E3032068DE032038E503209B
:1054F000D58E0D0059920D0060E30320E8E30320F0
:1055000092920D00D7920D002F930D00DF900D00A9
:10551000F4E30320F0E3032050E3032058E30320E7
:10552000F0B58DB002AD85E80600064695E80300AB
:1055300005AC84E805001F460C2000230A93FEF703
:10554000AAFD024620B194E8030082E803009760B8
:105550000C4B0B930C4B0A939DF850300892009320
:105560009DF848209DF94C3008A9304602F00CF90E
:105570000A9B04461BB108A9032208469847204607
:105580000DB0F0BD6F420D0031420D002DE9F04F1E
:1055900088460446174689B00221404602F0ACFC1A
:1055A0000221384602F0A8FC534EE7600023C4E90C
:1055B0000138C4E9053323604FF4FA6001F06CFB55
:1055C000D4F808B033784D4DBFF35B8F13F0010F63
:1055D00009D13046FEF765FD28B101F07DFB28605A
:1055E0003046FEF763FD1FFA8BFB2B684FEA0B1B5F
:1055F00013F80B903378BFF35B8FD9074FEA491A42
:1056000009D43D48FEF74DFD28B101F065FB286047
:105610003948FEF74BFD2B685B4493F8019009F085
:105620001F0949EA0A094846FEF744FD4846FEF7C5
:1056300041FDD4F80CB03378BFF35B8FB0F10009B3
:1056400018BF4FF00109DA0709D42B48FEF729FDEE
:1056500028B101F041FB28602748FEF727FD1FFA1B
:105660008BFB2B684FEA0B1B13F80BA03378BFF3AF
:105670005B8FDB074FEA4A1A09D41F48FEF711FD7A
:1056800028B101F029FB28601B48FEF70FFD2B68AD
:105690009B449BF8015005F01F0545EA0A05284682
:1056A000FEF708FD2846FEF705FD08B149F002099E
:1056B00084F81090DFF84890CDF8109000254FF056
:1056C000FF3623462A464946CDE900560295404614
:1056D0000595FFF725FFCDE90695CDE90165009514
:1056E00008AA12E9060023463846FFF719FF2046AC
:1056F00009B0BDE8F08F00BF44DE032048DE032080
:10570000ED400D0010B51021044602F01EFC2046AD
:1057100010BD00000000000070B52DED048B9FED62
:10572000408B9FED419BB0EE482AF0EE682AB0EE28
:10573000481AF0EE681A82B03D4E3E4D3E4BB0EE38
:10574000490AF0EE690A00241C603246009429469A
:105750003A4B3B4800F060FAB0EE482AF0EE682A77
:10576000B0EE481AF0EE681AB0EE490AF0EE690A97
:10577000344B0094344A35493548364C00F04CFAE5
:10578000324629463448354D00F086FA012300930D
:10579000334B344A3449354893ED002B344B93ED69
:1057A000001B344B93ED000B334B00F035FA06220F
:1057B00008213248FFF7EAFE052204213048FFF7AE
:1057C000E5FE6021204600F0FFFC0321204600F0AA
:1057D000C2FC2C4B04211860204600F0BCFC2A4C73
:1057E0002A4B282218603721204600F0E1FE2A4685
:1057F0002749204602F0A4FB02F018FB254C014685
:105800000A231022204601F063F823492A46204645
:1058100002B0BDEC048BBDE8704002F091BB00BF4C
:105820000000000000000000B5A679C7293AA23F99
:1058300060E3032050E3032054DE0320E8E3032069
:1058400068E30320B8E4032030E4032020E40320CD
:1058500038E40320C4E4032068DE032040DE032094
:10586000F0E2032068E2032060E2032070E20320FC
:10587000F8E20320D0DD0320E8E2032000E4032067
:1058800030E3032058E3032000E3032028E403204F
:10589000B3400D0010E303209D680D002DE9F04F8B
:1058A0002DED028B90F8703085B0044601933BB922
:1058B00000230193019805B0BDEC028BBDE8F08F89
:1058C00001F0F2F9236CA26DC31A9A420546EFD893
:1058D000636BE16BD3E90089D1E9000142464B4695
:1058E00002F0C2FB02460B4643EC182BD4E9082316
:1058F00002F072FDD4E9122302F0B8FBD4E91AAB2E
:1059000006460F46C4E9126752465B4602F0F4FFB2
:10591000002838D0C4E912ABD4E9062351EC180BA7
:1059200002F05AFDD4E9122302F0A0FBD4E91423BB
:1059300006460F464046494602F096FBD4E90A2344
:1059400002F04AFD02460B463046394602F08CFB17
:1059500006460F4602460B465046594602F0AEFF39
:1059600050B9D4E918AB32463B465046594602F08E
:10597000C3FF08B9B246BB46A36BC3E900ABC4E999
:105980001489256496E794ED187B304653EC172B69
:1059900039468DED027B02F091FF0028BCD09DEDD1
:1059A000027B84ED127BB7E72DE9F04755EC104BF5
:1059B0002DED028B8246002210EE100A00232946AC
:1059C00057EC116B59EC128B02F078FF002851D183
:1059D000002200233046394602F070FF002849D1EA
:1059E000002200234046494602F068FF002841D1CA
:1059F000CAE90267CAE90489CAE90045DAF8580029
:105A000002F070FC1D4B002202F010FECAE90645B0
:105A100041EC180B02460B463046394602F0DCFCDE
:105A200006460F4653EC182B40464946CAE908671C
:105A300002F0FCFDDAF8303080468946012BCAE9D5
:105A40000A8917D122462B460020002102F00CFBC8
:105A50003246CAE906013B460020002102F004FB61
:105A60004246CAE908014B460020002102F0FCFA38
:105A7000CAE90A01BDEC028BBDE8F08700408F4007
:105A8000F8B50D1E044620DD284602F03BFC064614
:105A9000A06D0F4602F026FC02460B463046394602
:105AA00002F0C4FD02460B4606460F46D4E9080143
:105AB00002F092FC3246C4E908013B46D4E90A01EF
:105AC00002F0B4FDC4E90A01A565F8BD2DE9F84F5F
:105AD00055EC104B57EC116B824611EE102A10EE6C
:105AE000100A3B46294602F0FDFE002837D19AF8FD
:105AF0007030CAE91845CAE91A67002B2FD0DAF8C6
:105B000038B0DBE90089304642464B46394602F060
:105B1000D5FE78B1CBE90067DAE91267DAE91A4510
:105B2000304622462B46394602F0E6FE68B1CAE905
:105B3000124514E042464B462046294602F0DCFE60
:105B40000028E9D0CBE90045E6E7DAE91845304618
:105B500022462B46394602F0B1FE0028E7D1BDE8C7
:105B6000F88F2DE9D043836BD3E90067C0E9126752
:105B7000436BD0E91A89D3E900230446C0E9142312
:105B8000394642464B46304602F0B6FE10B1C4E9F3
:105B9000128909E0D4E91889304642464B46394615
:105BA00002F08CFE0028F2D1BDE8D08338B54B1E40
:105BB0005D425D4190F8703083F00103AB420446D2
:105BC00001D1FFF7CEFF84F8705038BD38B590F89A
:105BD000703004460D46D3B1036B8B4217D0D0E929
:105BE00006230021002002F03FFAD4E90823C4E98B
:105BF00006010020002102F037FAD4E90A23C4E9A3
:105C000008010020002102F02FFAC4E90A012563EF
:105C100038BD00000000000010B5C3630023C0E9D8
:105C20000D1280F8703000220023C0E9182312A35F
:105C3000D3E9002386B0C0E91A23642304468365B0
:105C40009DF820108DED040B8DED021B8DED002BCA
:105C5000FFF7BCFF9DED002B9DED021B9DED040B9E
:105C60002046FFF7A1FE01F01FF8A36DC01A2064C3
:105C7000204606B010BD00BF0000000000E06F40ED
:105C800090ED000B704790ED020B704790ED040B08
:105C9000704790F87000704710B504460023C0E9C3
:105CA0000112036284F82430084B09490022C4E938
:105CB000F4230020FA232822C4E90601C4E90D32A6
:105CC00000F0F2FF2063204610BD00BF00003E4000
:105CD0000000E03F002380F82430704700000000FF
:105CE000D0B504468368D0E9F601C3E90001D4E9E0
:105CF000F4231046194602F0B9F9154B002202F0C0
:105D00006BFBD4E9F22306460F46D4E9F00102F01A
:105D1000ABF90DA3D3E9002302F05EFB02460B466C
:105D20003046394602F082FCC4E9F801D4E90A039E
:105D3000C01A02F0D7FA074B002202F077FCC4E940
:105D4000FA01D0BDAFF300806E861BF0F921094047
:105D50000000104000408F402DE9F74FD0F8B823E5
:105D60000023092A824680F8BD3308DD90F82420FC
:105D70002AB180F82430FFF7B3FF01200AE000F0D9
:105D800093FFDAF83030DAF83420C31A93428346AE
:105D900003D2002003B0BDE8F08FDAF80430CAF86F
:105DA0003000D3E900899AF8243001228AF8BD2313
:105DB000002B65D1CAE9F089CAE9F289CAE90489E8
:105DC000DAF80840CAF83C30CAF8B8338AF8BC336D
:105DD0008AF82420D4E90023DAE9F401CAE9F62399
:105DE00002F044F9C4E90001DAE90445DAE906679A
:105DF000204632463B46294602F038F942464B4699
:105E000002F05CFD00284FD0DAE9F423DAE9F6016C
:105E1000DAF8084002F028F9C4E90001DAF838504D
:105E200040F20113AAF800306B1E01930AEBC5047F
:105E3000019B002B4DDB9AF80030D4E90E6753B17B
:105E400032463B464046494602F056FD003818BFF0
:105E500001208AF800009AF8013053B132463B46DF
:105E60004046494602F02AFD003818BF01208AF852
:105E70000100019B013BC4E910670193083CD7E78F
:105E8000DAE9F00142464B4602F018FD08B1CAE9D2
:105E9000F089DAE9F20142464B4602F02DFD002876
:105EA000A2D0CAE9F2899FE732463B4620462946FE
:105EB00002F0DAF842464B4602F01EFD0028ADD053
:105EC000DAE9F423DAE9F601DAF8084002F0CEF86C
:105ED000A2E7082DCAE910897FF75BAF9AF8003076
:105EE000D3B1DAF83C305BB90123CAF83C30DAF8B8
:105EF000B833CAF828B00AEBC303C3E9DA891AE059
:105F00000133F4D10123CAF83C308AF8BC33DAF803
:105F10002830CAF82C30EAE79AF801305BB1DAF899
:105F20003C30002B48D14FF0FF33CAF83C30DAF850
:105F3000B833092BDFDD9AF8BC33002B4AD0DAF8EE
:105F4000B833022B46DD0AEBC30BDAE9F001DAE9DC
:105F5000F22302F089F823A3D3E9002302F03CFAEC
:105F6000DBE9D689DBE9D42304460D4640464946A1
:105F700002F07AF84246064621F000474B46DBE93C
:105F8000D80102F071F8024621F00043304639464C
:105F900002F06CF8124B002202F01EFA02460B4689
:105FA0002046294602F0A8FCA0B15046FFF798FE13
:105FB00000238AF82430E0E6012BB8D1DAF8B823C0
:105FC0008AF8BC334FF0FF310132CAF83C10CAF8EE
:105FD000B823ACE700208AF8BC03DBE6AFF300800F
:105FE0000000E03F9A9999999999A93F0000000013
:105FF00008B50346D0E9F8011B6A012B07D106A3B7
:10600000D3E9002302F0E8F941EC100B08BD04A32A
:10601000D3E90023F6E700BF333333333333E33FB1
:106020009A9999999999D93F38B50346D3E9FA4590
:106030001B6A012BD0E9F8010BD10B4B4FF0333227
:1060400002F0CAF922462B4602F0F0FA41EC100B9E
:1060500038BD03A3D3E90023F2E700BFAFF300800C
:10606000B81E85EB51B8DE3F3333F33F000000002C
:1060700010B5036A012B04460DD10B4B4FF03332A0
:10608000D0E9F80102F0A8F9D4E9FA2302F0A4F962
:1060900041EC100B10BD9FED020BFBE7AFF300804E
:1060A00000000000000000003333B33F80EDF40B2C
:1060B000704780ED060B7047002906DD182906DCC5
:1060C0008900FA238163436370470121F8E7642361
:1060D00083630A2359434163704700231A466C3097
:1060E00000F0CDB870B505460C4605F16C0601F020
:1060F00075FE01F075F8304600F02AF907EE904A77
:106100006C80B8EE670A304600F02EF900240023B8
:10611000E1B21A463046013400F0B1F8102CF6D145
:1061200070BDB2F5805F134600F16C0026BF0023FE
:106130004FF48052002200F0A2B810B41AB95DF8F2
:10614000044BFFF7CABF5DF8044B00234FF48052A5
:106150006C3000F094B8042930B52DD80139C9B29B
:106160000C2303FB0102147BB4B9117301EB410250
:1061700000EB82029060A1B1012916D0022917D04C
:1061800003290BBF0623092305240A240CBF072576
:1061900008251571547193710C2303FB0100043021
:1061A00030BD09230A240825F3E70B240D25F0E769
:1061B0000D4603230424ECE70020F1E700224260AF
:1061C000027202808270704737B5031D0D46044687
:1061D00000F134011846FFF7F1FF0C338B42F9D17F
:1061E000002384F8443084F84C30A4F8423084F81A
:1061F000603084F86830A4F85E30402104F16C000F
:1062000000F03BF82570294601A800F036F89DF80B
:10621000043084F86C30204603B030BD022938B514
:1062200004460D460ED0042913D001291BD18178D4
:106230004068FFF752FF61782A466068BDE8384041
:10624000FFF77BBF41784068FFF747FFA178012245
:10625000F3E741784068FFF740FFA1786068BDE848
:106260003840FFF73ABF38BD0A0101784068FFF7B0
:1062700058BF0368C9B29B68184701707047F8B5EA
:10628000074615461C460E4601F0A8FD397800F079
:10629000DFFF01F0A3FD062101EB8601FFF7E9FF17
:1062A00001F09CFD2946FFF7E4FF01F097FD290A64
:1062B000FFF7DFFF01F092FD2146FFF7DAFF01F063
:1062C0008DFD210AFFF7D5FF01F088FDBDE8F840FC
:1062D00000F0C6BF38B504460D4601F07FFD2178B9
:1062E00000F0B6FF01F07AFD036829469B689847E5
:1062F00001F074FD00F0B4FF01F070FD217801227F
:1063000000F0A3FF01F06AFD03685B699847C0B223
:1063100038BD70B5064614460D4601F05FFD317874
:1063200000F096FF01F05AFD036829469B689847E4
:1063300001F054FD036821469B68984701F04EFD2B
:10634000BDE8704000F08CBF00221146FFF7E1BFAE
:1063500010B5044601F042FD00F042FF2046BDE8C2
:106360001040FFF7F1BF000070B5DFED2E7A2DED84
:10637000028B87EE808A0446B7EE000A38EE408A28
:1063800001F05CF8284901F0A8FA01F057F8B0EEE6
:10639000480A022101F0A5FB18EE100A01F0C4FF23
:1063A000224B002201F062FE41EC100B01F0D4FD03
:1063B00051EC100B02F0E8FAC6B201F03FF81C49AC
:1063C00001F08BFA01F03AF80A223146054601F055
:1063D00097FA284601F088FA00212046FFF77AFF55
:1063E00000F06F02054642F0100220460021FFF740
:1063F00090FF32462046FE21FFF78BFF2A46002100
:106400002046FFF786FF052001F03CFABDEC028B29
:1064100065F05E022046D2B2BDE870400021FFF771
:1064200078BF00BF20BCBE453F930D000000E03F99
:1064300055930D0010B5042303704160044600F02D
:1064400033FC0023A060E3602386A4F85A3084F86C
:106450005C3010BD38B50C4605464FF4E13120469E
:1064600000F060FF21462846BDE83840FFF7E2BF54
:10647000F8B50446002500F14606606803681B690C
:106480009847002869DD00F00FFCA368A060C31ADC
:10649000022B606888BF257003685B699847227883
:1064A000C3B2032AE9D8DFE802F0020F2226202B2C
:1064B0004ED8DA1EDB43A4F85A3084F8305084F802
:1064C000312001232370D8E794F830104A1C21446E
:1064D000D2B284F830200B74B4F85A10CB1AA4F856
:1064E0005A3094F831309342C7D10223EAE784F856
:1064F0005C300323E6E794F85C20B4F85A300002DD
:1065000080B21044834223D1237C402B20D104F15C
:10651000320321461A4632F8020B5082B242FAD1B7
:10652000012291F812C04F7C02F0FE00204402329A
:1065300047EA0C27152A478601F10201F1D11A46D4
:10654000998A1288914203F1020303D0A368E360A1
:106550000423B7E7B342F2D1FAE7F8BD09299ABF9D
:1065600000EB4101488E00207047C06870477047BB
:106570000B4610B5282204460021184602F090FA76
:1065800009490B2202F0C0FA00220121C272C16047
:10659000A16842620022016182610321C261034A53
:1065A0004161026210BD00BF67930D000AD7233C12
:1065B00010B5024C04608160427110BD78930D00EB
:1065C00070B5064614460D4601F008FC717900F0DE
:1065D0003FFE01F003FC036829469B68984701F0E1
:1065E000FDFB036821469B68984701F0F7FB00F02C
:1065F00037FE012070BD08B50A4601733D21FFF743
:10660000DFFFBDE808401E2001F03CB938B5044664
:106610000D4601F0E3FB617900F01AFE01F0DEFBAC
:10662000036829469B68984701F0D8FB00F018FEE4
:1066300001F0D4FB6179012200F007FE01F0CEFBEE
:1066400003685B699847C0B238BD38B50D4604464B
:1066500001F0C4FB00F0C4FD00212046FFF7D6FF87
:10666000A02812D100212046FFF7C5FF20223F219C
:106670002046FFF7A5FF00212046FFF7C7FFA0280F
:106680000FD00A2001F0FEF8F5E74FF47A7001F020
:10669000F9F800212046FFF7B9FFA028E2D000203A
:1066A0001FE0322001F0EEF800223E212046FFF7E5
:1066B00087FF0A2001F0E6F8002207212046FFF7B5
:1066C0007FFF00223F212046FFF77AFF0A2001F0DA
:1066D000D9F829462046FFF78EFF142001F0D2F8A2
:1066E000012038BDF8B5064614461D460F4601F098
:1066F00075FB717900F0ACFD01F070FB0368394661
:106700009B68984701F06AFB00F0AAFD01F066FB68
:106710002A46717900F099FD2544AC4207D001F07A
:106720005DFB03685B69984704F8010BF5E70120FE
:10673000F8BD0000F7B50E461546002118220446A4
:1067400002F0AEF900230093ADF804303046062382
:106750006A462946FFF7C6FF9DF801309DF8000004
:106760009DF802709DF8046040EA03209DF8033014
:1067700047EA03279DF80530142D46EA032600B2A8
:106780003FB236B226D006D8082D0CD00E2D3AD006
:10679000204603B0F0BD1A2D35D0192DF8D9282D7B
:1067A00001D02E2DF4D101F0ADFD244B002201F0DB
:1067B0003DFFC4E90001384601F0A4FD1F4B002253
:1067C00001F034FFC4E90201304601F09BFD1B4B90
:1067D000002215E001F096FD194B002201F026FF82
:1067E000C4E90001384601F08DFD154B002201F08F
:1067F0001DFFC4E90201304601F084FD104B002268
:1068000001F014FF17E001F07DFD0E4B002201F0B6
:10681000E3FDC4E90001384601F074FD094B002294
:1068200001F0DAFDC4E90201304601F06BFD054BD1
:10683000002201F0D1FDC4E90401A9E7000059409C
:1068400000208C400000B03F30B50C4687B00546B4
:1068500020220021201D02F023F924232360AB68AD
:1068600063600323A36000F01FFA1A222061294607
:106870006846FFF75FFFDDE9000102F0A5F86061FF
:10688000DDE9020102F0A0F8A061DDE9040102F0F7
:106890009BF8E061012007B030BD000010B5054B4A
:1068A00003600446006900F04DFB034B00221A60B0
:1068B000204610BD94930D009CE5032010B50446BE
:1068C000FFF7ECFF20461C2101F03FFB204610BDE6
:1068D00010B50446074822720022C4E90001E360B3
:1068E000A282A261980000F025FB034B20611C608E
:1068F000204610BD94930D009CE5032010B504467E
:10690000017A406800F072FC6068044900F0ABFC5A
:1069100060680349BDE8104000F0A9BC196A0D0089
:10692000596A0D00C36899423ABF036953F82100C0
:1069300000207047C36899423CBF036943F8212097
:10694000704770B583698BB100220125836905FA10
:1069500002F4234096B206D00E80836923EA040332
:106960008361012070BD0132202AEFD11846F9E77A
:1069700002292DE9F04104460FD1406803685B69A4
:106980009847C0B2A082606803685B699847A38A91
:1069900043EA0020A082BDE8F0810629FBD14068CF
:1069A00003685B6998470646606803685B699847B7
:1069B000F6B246EA002085B2606803685B699847D2
:1069C0000746606803685B699847804660680368AB
:1069D0005B6998470646606803685B699847E368A7
:1069E0009D42D8D2FBB24FEA082843EA00671FFA5B
:1069F00088F83604236947EA080706F47F063E4311
:106A00001F2D43F82560C6D8A369012000FA05F5BB
:106A10001D43A561BFE70000034B0146186808B19C
:106A2000FFF7A6BF704700BF9CE5032007B5002312
:106A3000C2680193838A934238BF026940683CBFB1
:106A400052F82330019303680422DB680DEB020146
:106A5000984703B05DF804FB024B186808B1FFF7D4
:106A6000E5BF70479CE5032008B5024B1B681B6817
:106A7000019308BD4C02030008B5024B1B685B681C
:106A8000019308BD4C02030008B5024B1B681B694B
:106A9000019308BD4C02030008B5024B1B685B69FB
:106AA000019308BD4C02030008B5024B1B689B69AB
:106AB000019308BD4C02030008B5024B1B68DB695B
:106AC000019308BD4C02030008B5024B1B681B6A0A
:106AD000019308BD4C02030008B5024B1B68DB693B
:106AE000019308BD3002030008B5024B1B681B6A06
:106AF000019308BD3002030008B5024B1B68DB6838
:106B0000019308BD2802030008B5024B1B689B696E
:106B1000019308BD2802030008B5024B1B68DB691E
:106B2000019308BD2802030008B5024B1B681B6ACD
:106B3000019308BD2802030008B5024B1B685B6A7D
:106B4000019308BD2802030008B5024B1B689B6A2D
:106B5000019308BD2802030008B5024B1B68DB6ADD
:106B6000019308BD2802030008B5024B1B681B6B8C
:106B7000019308BD2802030008B5024B1B685B6B3C
:106B8000019308BD2802030008B5024B1B689B6BEC
:106B9000019308BD2802030008B5024B1B68DB6B9C
:106BA000019308BD2802030008B5024B1B681B6C4B
:106BB000019308BD2802030008B5024B1B681B6D3A
:106BC000019308BD2802030008B5024B1B681B682F
:106BD000019308BD3C02030008B5024B1B68DB684B
:106BE000019308BD3C02030008B5024B1B681B69FA
:106BF000019308BD3C02030008B5024B1B685B69AA
:106C0000019308BD3C02030008B5024B1B689B6959
:106C1000019308BD3C02030008B5024B1B68DB6909
:106C2000019308BD3C02030008B5024B1B681B6AB8
:106C3000019308BD3C02030008B5024B1B689B6A28
:106C4000019308BD3C02030008B5024B1B68DB6AD8
:106C5000019308BD3C02030008B5024B1B685B6949
:106C6000019308BD6402030008B5024B1B685B6C0E
:106C7000019308BD4802030008B5024B1B689B6CDA
:106C8000019308BD4802030008B5024B1B685B680E
:106C9000019308BD1802030008B5024B1B68DB68AE
:106CA000019308BD1802030008B5024B1B685B691D
:106CB000019308BD1802030008B5024B1B689B6DC9
:106CC000019308BD1802030008B5024B1B685B6EF8
:106CD000019308BD1802030008B5024B1B681B682E
:106CE000019308BD2C02030008B5024B1B689B688A
:106CF000019308BD2C02030008B5024B1B68DB683A
:106D0000019308BD2C02030008B5024B1B685B69A8
:106D1000019308BD2C02030008B5024B1B689B6958
:106D2000019308BD2C02030008B5024B1B68DB6908
:106D3000019308BD2C02030008B5024B1B681B6AB7
:106D4000019308BD2C02030008B5024B1B685B6A67
:106D5000019308BD2C02030008B5024B1B689B6819
:106D6000019308BD6802030008B5024B1B68DB688D
:106D7000019308BD6802030008B5024B1B685B68FD
:106D8000019308BD6002030008B5024B1B689B68B5
:106D9000019308BD6002030008B5024B1B68DB6865
:106DA000019308BD6002030008B5024B1B689B6994
:106DB000019308BD6002030008B5024B1B68DB6944
:106DC000019308BD6002030008B5024B1B685B6BB2
:106DD000019308BD6002030008B5024B1B689B6865
:106DE000019308BD4402030008B5024B1B685B69B0
:106DF000019308BD4402030008B5024B1B681B6BDE
:106E0000019308BD4402030008B5024B1B68DB6B0D
:106E1000019308BD4402030008B5024B1B685B6880
:106E2000019308BD4002030008B5024B1B689B6834
:106E3000019308BD4002030008B5024B1B68DB68E4
:106E4000019308BD4002030008B5024B1B681B6993
:106E5000019308BD4002030008B5024B1B685B6943
:106E6000019308BD4002030008B5024B1B689B69F3
:106E7000019308BD4002030008B5024B1B68DB69A3
:106E8000019308BD4002030008B5024B1B681B6A52
:106E9000019308BD4002030008B5024B1B681B6B41
:106EA000019308BD4002030008B5024B1B685B6BF1
:106EB000019308BD4002030008B5024B1B681B6824
:106EC000019308BD2002030008B5024B1B685B68F4
:106ED000019308BD2002030008B5024B1B685B69E3
:106EE000019308BD2002030008B5024B1B689B6D8F
:106EF000019308BD2002030008B5034B1B68D3F8BB
:106F00008830019308BD00002002030008B5034B40
:106F10001B68D3F89430019308BD000020020300E1
:106F200008B5034B1B68D3F8A030019308BD0000DF
:106F30002002030008B5024B1B681B68019308BDC3
:106F40001C02030008B5024B1B685B68019308BD77
:106F50001C02030008B5024B1B685B6A019308BD65
:106F60001C02030008B5024B1B68DB6A019308BDD5
:106F70001C02030008B5024B1B685B6C019308BD43
:106F80001C020300002340681A46FFF745BF406813
:106F900000220221FFF750BF002240681146FFF790
:106FA00043BF002240681146FFF74EBF00234068F0
:106FB0001A461946FFF750BF002340681A46194683
:106FC000FFF752BF4068002281F00101FFF754BF74
:106FD00040680022FFF760BF002240681146FFF7BB
:106FE00063BF002240681146FFF74EBF2DE9F04312
:106FF000002495B016460D46074600F083FA214658
:1070000018220EA8009401F04BFD4023CDE90C346A
:1070100021466B460CAA3046FFF7A6FE0446002820
:1070200046D1024601216868FFF70EFF0221804623
:1070300022466868FFF708FF009E81462146002E21
:1070400036D0002934D17368022B03D00A2B0BD021
:10705000F669F4E7B8F1000F04D0716938460431DD
:1070600000F07DFA4146F3E7B9F1000F01D149463E
:10707000EEE77469102201A801F012FD06238DF8D5
:10708000143001AD04F108031834186859682A4611
:1070900003C20833A3421546F7D101A906A807ADDC
:1070A00000F03EFA0FCD3C1D0FC42B682370DEE7C5
:1070B0000098FFF751FE384615B0BDE8F083000098
:1070C000024B034A1A6000225A607047A0E5032071
:1070D000A4930D0010B5044608462170FFF7FCFC90
:1070E00000236360204610BD002240681146FFF770
:1070F000ABBE002240681146FFF7C6BE00224068C2
:107100001146FFF7D1BE40680022FFF7C5BE4068B8
:10711000002281F00101FFF7AFBE002340681A464C
:107120001946FFF7A1BE002340681A461946FFF72B
:1071300093BE002240681146FFF776BE40680022E9
:107140000221FFF779BE002340681A46FFF764BEAC
:10715000024B04225A60024A1A607047A8E50320D5
:10716000D8930D007047F8B5064615460C468F18A3
:10717000BC4206D0336814F8011B9B683046984720
:10718000F6E72846F8BD007C0022FFF7CDBC007C66
:107190000021FFF7D1BC007C0021FFF7D5BC007CAB
:1071A0000021FFF7D9BC007C0021FFF7DDBC10B542
:1071B0001421044600F0C9FE204610BD10B54FF45E
:1071C0007A73044608460021C4E90113034B236087
:1071D00020741146FFF7E8FC204610BD0C940D000A
:1071E0000023007C1A461946FFF786BC0A46007C3D
:1071F00000230121FFF780BC7FB500221423CDE9D5
:107200000122ADF804300B788DF808304B680393F9
:10721000CB680493007C0B7A059301A9FFF7CCFCA3
:1072200007B05DF804FB1FB5003B8DF800104FF070
:107230006401039118BF0123694601928DF808305B
:10724000FFF7DAFF05B05DF804FB0123FFF7EBBFA2
:10725000007C0022FFF758BC007C0022FFF75CBCDA
:107260000121FFF7F9BF007C0022FFF78DBC007CF5
:107270000022FFF791BC70474174704708B5007C4D
:10728000FFF7DAFC20EAE07008BD08B5007CFFF7E4
:10729000ABFC20EAE07008BD08B5007CFFF7B4FC49
:1072A00040EAE07008BD08B5007CFFF7A5FC40EAA5
:1072B000E07008BD007CFFF7AFBC37B5457C0446E5
:1072C0002DB1207C03B0BDE83040FFF785BC007CC9
:1072D0000191FFF7B1FC00280199F2DC284603B0C8
:1072E00030BD10B51421044600F02FFE204610BD1D
:1072F00010B54FF0000C0446084611464FF47A7260
:10730000C4E901C2044A22600122207462741A4650
:10731000FFF75AFC204610BD34940D00007C00237A
:10732000FFF792BC0022FFF7F9BF000013B50E4C27
:107330002178BFF35B8F11F0010112D1204601913A
:10734000FCF7AFFE019960B1084A094B0948FFF705
:10735000CFFF2046FCF7AAFE074A0849054800F07F
:10736000EFFD044802B010BDB0E50320B4E50320F2
:1073700038E60320BCE6032040DE032077720D00D0
:1073800041747047704708B50021007CFFF78CFB03
:1073900040EAE07008BD08B50121007CFFF784FBDE
:1073A00040EAE07008BD08B5007CFFF775FB20EAF5
:1073B000E07008BD08B5007CFFF766FB20EAE070CE
:1073C00008BD13B50446007C0191FFF765FB00285A
:1073D000019901DC607C20B1207CFFF76DFB20EA85
:1073E000E07002B010BD007CFFF76EBB10B5142139
:1073F000044600F0AAFD204610BD000010B54FF471
:107400007A73044608460021C4E90113044B236043
:107410000123207463741146FFF726FB204610BD3C
:1074200064940D00007C0022FFF726BB10B51422E7
:107430000446002101F034FB204610BD10B5104C6D
:1074400088B003A8FFF7F2FF2178BFF35B8F11F03C
:10745000010111D120460191FCF723FE019958B199
:1074600003AA0848FFF7CAFF2046FCF71FFE064A9A
:107470000649044800F064FD024808B010BD00BF92
:10748000D0E60320D4E6032040DE032085730D0000
:10749000704710B51821044600F057FD204610BD76
:1074A000F0B5037D062B8DB00E4600F104074FF0BA
:1074B000000412D000F1080515F8011D0A2230461B
:1074C00000F01EFAAF42044419D0002CF4D02E2153
:1074D000304600F006FA0444EEE72F236A463946A8
:1074E0000A208DF80040FFF7B7FB684601F004FB67
:1074F00033680246DB6869463046984704462046B2
:107500000DB0F0BD10B5054B0446112240F8043B08
:10751000002101F0C5FA204610BD00BF94940D0073
:107520000346074A10B543F8042B01F1100251F845
:10753000044B43F8044B9142F9D10A781A7010BDFC
:1075400094940D0010B59DF8084044EA032343EAE3
:10755000024242EA016104234160037510BD13B584
:10756000CB7800938B784A780978FFF7EBFF02B06D
:1075700010BD10B58368044613B103220146984735
:10758000204610BD014B1860704700BFDCDD0320B2
:1075900008B50B4B43B1FFF751FF03681B699847D0
:1075A000002801DDAFF30080064B43B1FFF7BEFEBC
:1075B00003681B699847002801DDAFF3008008BD10
:1075C000000000000000000008B5FFF7E1FFFFF732
:1075D0006BFB014B186008BDE4E703200248034A37
:1075E0000349121A01F04EBA00F4032004F40320F8
:1075F00030950D0007B5002300931A466FF0770110
:10760000FFF784FC03B05DF804FB000007B5438876
:107610000A2B08D0502B0BD1094B1B684BB103B080
:107620005DF804EB1847FFF7E5FF03B05DF804FBD6
:10763000002300931A466FF07701FFF767FCF4E729
:10764000ECE6032038B5124C1248134D0021FFF729
:1076500091FC2368AB42114B0CBF012200221A702F
:1076600002D0FFF7BBFF2560FFF70EFB044601F0D9
:107670001FFA0B4B13B12046AFF3008000210848DE
:10768000FFF7C2FBBDE8384006480021FFF734BCD5
:1076900000F4032085750D001E1C279AE8E60320E0
:1076A000000000000D760D0010B50446FFF761FFE5
:1076B000204610BD10B50446FFF776FB844208D083
:1076C0001CB1BDE81040FFF75FBBBDE81040FFF7FD
:1076D00063BB10BD70B505460E461446FFF764FB4C
:1076E00050B144EA062040EA0540FFF745FBBDE8FB
:1076F0007040E720FFF760BB70BD00000348044AFC
:1077000004490023836000F01BBC00BFF0E60320A7
:1077100040DE0320A9760D00826810B50AB900F09A
:1077200018FCBDE81040C3681847FFF70DBBFFF712
:1077300003BB38B5002383608B6804460D462BB12C
:1077400002229847EB68E360AB68A360204638BD2F
:10775000F8B50C4D55F8204006460F4634B120468A
:10776000FFF707FF1021204600F0EFFB1020FCF789
:1077700092FC044610B13946FFF7DBFF45F826407E
:107780002046F8BD00E70320F0B587B00546039119
:1077900017461E46FFF7C8FA03992846FFF7D8FF99
:1077A0000446E8B100218E424FF00403ADF81510F5
:1077B0008DF817108DF81430A2BF05A99DF8303050
:1077C0008DF81630009102460749A8BF8DF8156064
:1077D0003B462846FFF7A0FA10B1002007B0F0BDE5
:1077E000201E18BF0120F9E719770D0008B5002009
:1077F000FFF702FB28B1FFF7F7FA80F00100C0B2F3
:1078000008BD0120FCE710B50020FFF755FA04463B
:10781000A0B9FFF751FB012810D12046FFF764FB08
:1078200060B9FFF7E3FF10B9FFF7D6FAF9E7FFF702
:10783000DDFFBDE810400020FFF73EBA204610BD36
:107840001FB5FFF7E0FF10220021684601F028F97C
:1078500000216846FFF738FA009805B05DF804FB90
:10786000024B1A68024B1A60704700BFD8DD032034
:1078700090E70320014B024A1A60704794E7032007
:10788000BC940D000021FFF727BBF8B506460D4656
:107890008F180024BD420CD0336815F8011B9B687B
:1078A00030469847031E01DB1C44F3E7002C08BF59
:1078B0001C462046F8BD13B50446084659B101914F
:1078C00001F01AF923680199DB680246204602B0EC
:1078D000BDE81040184702B010BD08B5FFF7EBFF38
:1078E00008BD03689B68184738B50D210546FFF7AA
:1078F000F8FF0A2104462846FFF7F3FF204438BD6D
:1079000030B58BB000238DF82430012A98BF0A22AD
:1079100009AC0D46B1FBF2F101FB125303F0FF037A
:10792000092B94BF30333733DBB2AA4204F8013D50
:10793000EFD92146FFF7BFFF0BB030BD2DE9F74F60
:1079400055EC104B06460F4610EE102A10EE100AAA
:107950002B46294600F0DAFF40B153493046FFF785
:10796000AAFF8246504603B0BDE8F08F25F00049DB
:107970004E4B4FF0FF322046494600F0C7FF48B952
:107980004A4B4FF0FF322046494600F0A1FF08B9AC
:107990004749E3E7474B4FF060422046294600F055
:1079A000ABFF08B14449D9E7444B4FF06042204651
:1079B000294600F083FF0028F4D10022002320464E
:1079C000294600F07BFFD0B12D213046FFF789FF1B
:1079D00005F1004382461D463949DFF8EC904FF02F
:1079E000000B00204FF000085FFA8BF39F4208D98C
:1079F00042464B4600F01AFE0BF1010BF4E78246BB
:107A0000EAE722462B4600F031FB0D46044600F023
:107A1000BBFF804600F066FC02460B462046294626
:107A200000F022FB0A2204460D4630464146FFF78D
:107A300067FF824427B123493046FFF73CFF824469
:107A4000DFF884904FF00008013FFFB2FF2F89D08C
:107A500042464B462046294600F0BEFC04460D46F1
:107A600000F06AFFB0F1000B1ADA2D213046FFF763
:107A700038FFCBF1000103460A2230460193FFF79D
:107A80003FFF019B18448244584600F03BFC0246ED
:107A90000B462046294600F0E7FA04460D46D3E798
:107AA00059460023E8E700BFC0940D00FFFFEF7FB9
:107AB000C4940D00FFFFEF41C8940D00FFFFEFC11C
:107AC0000000E03FCC940D000000244038B5C9B25E
:107AD0000546FFF733FF04462846FFF705FF20441D
:107AE00038BD38B5044610EE100A0D4600F01CFCF7
:107AF00041EC100B29462046BDE83840FFF7E6BFB1
:107B00002DE9F04186B000AF05460E46381D142120
:107B100014463B60FFF71EFA13280ED8391D28467D
:107B2000FFF7C9FE04461EB12846FFF7DDFE0444F8
:107B300020461837BD46BDE8F08100F1080323F068
:107B40000703E846ADEB030D2246411C3B6868463F
:107B5000FFF700FA69462846FFF7ADFE0446C54622
:107B6000E1E710B50446006808B1FFF785F8204644
:107B700010BD000010B5064C002320462360FFF71F
:107B800073F82046034A0449BDE8104000F0D8B914
:107B900098E7032040DE0320637B0D0010B5044608
:107BA000006818B1FFF7CEF90023236010BD10B5AF
:107BB0000446FFF7F3FF204610BD38B5B1F9043095
:107BC00083800B460D4653F8062FC0F806209B888D
:107BD00043810446FFF7E2FF2B6813B123600023C3
:107BE0002B60204638BDB1F904300A6810B533B9AE
:107BF00032B951F8063F03608B88838010BD22B1F3
:107C00009488012C03D0042C06D0042205E092892C
:107C10004A818C710B81ECE702220B814FF6FF73D6
:107C20008A714B81E5E710B5002404704480002977
:107C30004FF6FF74848008DD01398B4204D932F895
:107C4000113083800123037010BD01D10223FAE7B4
:107C50004180F9E7F0B58BB016461A46129B0193A6
:107C60000D46119B009300270446109B0297314656
:107C70002846FFF755F9334601462A4605A8104D18
:107C8000FFF7D1FF9DF81410BDF91620BDF818308C
:107C90008DF82210284607A9ADF82420ADF826302B
:107CA0000797ADF82070FFF788FF07A8FFF776FF6A
:107CB00020462946FFF797FF20460BB0F0BD00BFD6
:107CC0009CE7032010B5094B094C022200201A60E2
:107CD000084B2060A080A071A360FFF7F5F8204654
:107CE000054A0649BDE8104000F02AB9A8E703207C
:107CF0009CE703200000FFFF40DE0320AF7B0D0068
:107D0000002240681146FFF7BFB8002240681146C4
:107D1000FFF7CAB840680022FFF7BEB840680022EB
:107D200081F00101FFF7A8B8002340681A46194600
:107D3000FFF79AB8002340681A461946FFF78CB837
:107D4000002240681146FFF77FB8002240681146C4
:107D5000FFF76AB8406800220221FFF76DB80023E0
:107D600040681A46FFF758B8024B03225A60024A8D
:107D70001A607047ACE70320D8940D0038B5002393
:107D8000202543801423044603808560056106494D
:107D9000284600F0DCF804496060284600F0D7F877
:107DA000E060204638BD00BF04950D0038B50023C3
:107DB000202543801423044603808560056106491D
:107DC000284600F0C4F804496060284600F0BFF877
:107DD000E060204638BD00BF04950D0030B50F4D62
:107DE0002978BFF35B8F11F0010487B013D12846C7
:107DF000FCF757F978B101A8FFF7C0FF01AA2146A7
:107E00000748FFF7DBF92846FCF750F9054A064911
:107E1000034800F095F8024807B030BDB4E70320EE
:107E2000BCE7032040DE032065710D0010B50F4C48
:107E30002378BFF35B8FDB0786B013D42046FCF7B3
:107E400030F978B101A8FFF7B1FF01AA0121084874
:107E5000FFF7B4F92046FCF729F9064A0649044819
:107E600000F06EF8024806B010BD00BFB8E703206E
:107E7000D0E7032040DE032065710D00232813B5F1
:107E800002D9002002B010BDA0F10B03022B1AD8BA
:107E9000174C2178BFF35B8F11F001010BD1204605
:107EA0000191FCF7FEF8019928B11248FFF712F989
:107EB0002046FCF7FBF80F4B1878FEF715FE00285C
:107EC000DFD10120DEE7012809D8FFF787FF002175
:107ED000007CFEF751FE80F00100C0B2D2E7093805
:107EE0000128EED8FFF722FA007CFEF79DFEF2E7AC
:107EF000E8E70320ECE70320232838B504460D46C5
:107F00000AD8FF2908D0FFF7B9FF28B12946204633
:107F1000BDE83840FEF7E8BE38BD10B50446FEF7B0
:107F2000EBFE031FDBB2012B08D92046FFF7A6FFAB
:107F300020B12046BDE81040FEF7E6BE002010BD8F
:107F40000B460146184600F08FBDFCF7A8B8FCF7B9
:107F5000A4B808B5FFF706F851EC100BF8B5C1F35B
:107F60000A53A3F2FF35132D10EE106A0C4620DCE5
:107F7000002D3DDB384F2F4101EA070303431DD09D
:107F800033A3D3E9002300F071F80022002300F0AE
:107F9000B3FC48B1002C04DA4FF4801343FA05F522
:107FA0002C4424EA070400262346324643EC102BD7
:107FB000F8BD332D05DDB5F5806F29D041EC100BF0
:107FC000F8BDA3F213434FF0FF37DF400742F5D06F
:107FD0001FA3D3E9002300F049F80022002300F09A
:107FE0008BFC0028E0D0002C23DB26EA0706DBE729
:107FF00017A3D3E9002300F039F80022002300F092
:108000007BFC0028D0D0002C0ADB00263446CBE7CE
:1080100010EE102A0B4600F029F841EC100BF8BDC9
:1080200024F000430D4A1E43002E18BF14460026BC
:10803000BAE7142D08D00123C5F1340503FA05F57C
:10804000AE1928BFE418D0E70134CEE7AFF30080C3
:108050009C7500883CE4377EFFFF0F000000F0BFF6
:1080600081F0004102E000BF83F0004330B54FEAE9
:1080700041044FEA430594EA050F08BF90EA020F56
:108080001FBF54EA000C55EA020C7FEA645C7FEAE9
:10809000655C00F0E2804FEA5454D4EB5555B8BF0C
:1080A0006D420CDD2C4480EA020281EA030382EA7D
:1080B000000083EA010180EA020281EA0303362D0F
:1080C00088BF30BD11F0004F4FEA01314FF4801CE2
:1080D0004CEA113102D0404261EB410113F0004FF4
:1080E0004FEA03334CEA133302D0524263EB4303AB
:1080F00094EA050F00F0A780A4F10104D5F1200E49
:108100000DDB02FA0EFC22FA05F2801841F10001A3
:1081100003FA0EF2801843FA05F359410EE0A5F177
:1081200020050EF1200E012A03FA0EFC28BF4CF0A8
:10813000020C43FA05F3C01851EBE37101F000455E
:1081400007D54FF0000EDCF1000C7EEB00006EEB6B
:108150000101B1F5801F1BD3B1F5001F0CD34908F5
:108160005FEA30004FEA3C0C04F101044FEA44524C
:1081700012F5800F80F09A80BCF1004F08BF5FEAD3
:10818000500C50F1000041EB045141EA050130BDB3
:108190005FEA4C0C404141EB0101013C28BFB1F5C5
:1081A000801FE9D291F0000F04BF01460020B1FA10
:1081B00081F308BF2033A3F10B03B3F120020CDAE3
:1081C0000C3208DD02F1140CC2F10C0201FA0CF0C1
:1081D00021FA02F10CE002F11402D8BFC2F1200C26
:1081E00001FA02F120FA0CFCDCBF41EA0C019040DC
:1081F000E41AA2BF01EB0451294330BD6FEA040425
:108200001F3C1CDA0C340EDC04F11404C4F120020F
:1082100020FA04F001FA02F340EA030021FA04F321
:1082200045EA030130BDC4F10C04C4F1200220FA78
:1082300002F001FA04F340EA0300294630BD21FAB6
:1082400004F0294630BD94F0000F83F4801306BF7C
:1082500081F480110134013D4EE77FEA645C18BF70
:108260007FEA655C29D094EA050F08BF90EA020F07
:1082700005D054EA000C04BF1946104630BD91EAFF
:10828000030F1EBF0021002030BD5FEA545C05D102
:108290004000494128BF41F0004130BD14F5800441
:1082A0003CBF01F5801130BD01F0004545F0FE41B5
:1082B00041F470014FF0000030BD7FEA645C1ABFEA
:1082C000194610467FEA655C1CBF0B46024650EA21
:1082D000013406BF52EA033591EA030F41F400214D
:1082E00030BD00BF90F0000F04BF0021704730B5D3
:1082F0004FF4806404F132044FF000054FF00001A8
:1083000050E700BF90F0000F04BF0021704730B568
:108310004FF4806404F1320410F0004548BF40423D
:108320004FF000013EE700BF42004FEAE2014FEA92
:1083300031014FEA02701FBF12F07F4393F07F4F6D
:1083400081F06051704732F07F4208BF704793F070
:108350007F4F04BF41F40021704730B54FF4607483
:1083600001F0004521F000411CE700BF50EA010286
:1083700008BF704730B54FF000050AE050EA01022F
:1083800008BF704730B511F0004502D5404261EB9F
:1083900041014FF4806404F132045FEA915C3FF4E0
:1083A000D8AE4FF003025FEADC0C18BF03325FEA7D
:1083B000DC0C18BF033202EBDC02C2F1200300FA2E
:1083C00003FC20FA02F001FA03FE40EA0E0021FA53
:1083D00002F11444BDE600BF70B54FF0FF0C4CF441
:1083E000E06C1CEA11541DBF1CEA135594EA0C0FF3
:1083F00095EA0C0F00F0DEF82C4481EA030621EA2E
:108400004C5123EA4C5350EA013518BF52EA033568
:1084100041F4801143F4801338D0A0FB02CE4FF01A
:108420000005E1FB02E506F00042E0FB03E54FF04A
:108430000006E1FB03569CF0000F18BF4EF0010E42
:10844000A4F1FF04B6F5007F64F5407404D25FEA3E
:108450004E0E6D4146EB060642EAC62141EA5551F1
:108460004FEAC52040EA5E504FEACE2EB4F1FD0C33
:1084700088BFBCF5E06F1ED8BEF1004F08BF5FEAB1
:10848000500E50F1000041EB045170BD06F0004663
:1084900046EA010140EA020081EA0301B4EB5C0410
:1084A000C2BFD4EB0C0541EA045170BD41F4801108
:1084B0004FF0000E013C00F3AB8014F1360FDEBF2D
:1084C000002001F0004170BDC4F10004203C35DA09
:1084D0000C341BDC04F11404C4F1200500FA05F38C
:1084E00020FA04F001FA05F240EA020001F000422D
:1084F00021F0004110EBD37021FA04F642EB0601A3
:108500005EEA430E08BF20EAD37070BDC4F10C04CC
:10851000C4F1200500FA04F320FA05F001FA04F290
:1085200040EA020001F0004110EBD37041F100017C
:108530005EEA430E08BF20EAD37070BDC4F1200587
:1085400000FA05F24EEA020E20FA04F301FA05F2EF
:1085500043EA020321FA04F001F0004121FA04F297
:1085600020EA020000EBD3705EEA430E08BF20EA67
:10857000D37070BD94F0000F0FD101F000464000A1
:1085800041EB010111F4801F08BF013CF7D041EA23
:10859000060195F0000F18BF704703F00046520027
:1085A00043EB030313F4801F08BF013DF7D043EAF8
:1085B0000603704794EA0C0F0CEA135518BF95EAAE
:1085C0000C0F0CD050EA410618BF52EA4306D1D135
:1085D00081EA030101F000414FF0000070BD50EA54
:1085E000410606BF1046194652EA430619D094EADE
:1085F0000C0F02D150EA013613D195EA0C0F05D1C8
:1086000052EA03361CBF104619460AD181EA03011B
:1086100001F0004141F0FE4141F470014FF00000D3
:1086200070BD41F0FE4141F4780170BD70B54FF06E
:10863000FF0C4CF4E06C1CEA11541DBF1CEA1355EE
:1086400094EA0C0F95EA0C0F00F0A7F8A4EB0504D0
:1086500081EA030E52EA03354FEA013100F08880C7
:108660004FEA03334FF0805545EA131343EA126390
:108670004FEA022245EA111545EA10654FEA002645
:108680000EF000419D4208BF964244F1FD0404F5FE
:10869000407402D25B084FEA3202B61A65EB03055A
:1086A0005B084FEA32024FF480104FF4002CB6EB17
:1086B000020E75EB030E22BFB61A754640EA0C0097
:1086C0005B084FEA3202B6EB020E75EB030E22BFD7
:1086D000B61A754640EA5C005B084FEA3202B6EB18
:1086E000020E75EB030E22BFB61A754640EA9C00D7
:1086F0005B084FEA3202B6EB020E75EB030E22BFA7
:10870000B61A754640EADC0055EA060E18D04FEA64
:10871000051545EA16754FEA06164FEAC30343EA04
:1087200052734FEAC2025FEA1C1CC0D111F4801FD1
:108730000BD141EA00014FF000004FF0004CB6E7CA
:1087400011F4801F04BF01430020B4F1FD0C88BF69
:10875000BCF5E06F3FF6AFAEB5EB030C04BFB6EB74
:10876000020C5FEA500C50F1000041EB045170BD67
:108770000EF0004E4EEA113114EB5C04C2BFD4EB94
:108780000C0541EA045170BD41F480114FF0000E18
:10879000013C90E645EA060E8DE60CEA135594EA94
:1087A0000C0F08BF95EA0C0F3FF43BAF94EA0C0F97
:1087B0000AD150EA01347FF434AF95EA0C0F7FF40C
:1087C00025AF104619462CE795EA0C0F06D152EA60
:1087D00003353FF4FDAE1046194622E750EA410644
:1087E00018BF52EA43067FF4C5AE50EA41047FF455
:1087F0000DAF52EA43057FF4EBAE12E74FF0FF3CBA
:1088000006E000BF4FF0010C02E000BF4FF0010C8A
:108810004DF804CD4FEA410C7FEA6C5C4FEA430C03
:1088200018BF7FEA6C5C1BD001B050EA410C0CBF52
:1088300052EA430C91EA030F02BF90EA020F0020B4
:10884000704710F1000F91EA030F58BF994208BF1B
:1088500090422CBFD8176FEAE37040F001007047D8
:108860004FEA410C7FEA6C5C02D150EA013C07D12F
:108870004FEA430C7FEA6C5CD6D152EA033CD3D07A
:108880005DF8040B704700BF8446104662468C4674
:108890001946634600E000BF01B5FFF7B7FF0028A7
:1088A00048BF10F1000F01BD4DF808EDFFF7F4FFD0
:1088B0000CBF012000205DF808FB00BF4DF808ED5B
:1088C000FFF7EAFF34BF012000205DF808FB00BF7E
:1088D0004DF808EDFFF7E0FF94BF012000205DF8A0
:1088E00008FB00BF4DF808EDFFF7CEFF94BF012055
:1088F00000205DF808FB00BF4DF808EDFFF7C4FF4E
:1089000034BF012000205DF808FB00BF4FEA410C96
:108910007FEA6C5C02D150EA013C0AD14FEA430C79
:108920007FEA6C5C02D152EA033C02D14FF00000B6
:1089300070474FF0010070474FEA410212F50012F4
:1089400015D211D56FF47873B3EB625212D94FEA96
:10895000C12343F0004343EA505311F0004F23FA80
:1089600002F018BF404270474FF00000704750EAD5
:10897000013005D111F0004008BF6FF00040704792
:108980004FF00000704700BF4A0011D212F50012EC
:1089900011D20DD56FF47873B3EB62520ED44FEA57
:1089A000C12343F0004343EA505323FA02F07047D7
:1089B0004FF00000704750EA013002D14FF0FF3015
:1089C00070474FF0000070474FEA4102B2F1E043B8
:1089D00024BFB3F5001CDCF1FE5C0DD901F0004CA6
:1089E0004FEAC0024CEA5070B2F1004F40EB8300F6
:1089F00008BF20F00100704711F0804F21D113F122
:108A00003872BCBF01F00040704741F480114FEA5A
:108A10005252C2F11802C2F1200C10FA0CF320FAE3
:108A200002F018BF40F001004FEAC1234FEAD32300
:108A300003FA0CFC40EA0C0023FA02F34FEA43036A
:108A4000CCE77FEA625307D150EA01331EBF4FF0F3
:108A5000FE4040F44000704701F0004040F0FE400E
:108A600040F40000704700BF10B5054C13462CB110
:108A70000A4601460220AFF3008010BD2046FCE705
:108A8000000000000A44914200F1FF3300D170471A
:108A900010B511F8014B03F8014F9142F9D110BD07
:108AA00002440346934200D1704703F8011BF9E7E3
:108AB00038B50D4B1D68AB6B04467BB91820FEF72B
:108AC00039FA0A4A0A4BA863C0E90023094B8360BC
:108AD0000B23838101220023C0E90423AB6B002216
:108AE0001C615A6138BD00BFDCDD03200E33CDAB05
:108AF00034126DE6ECDE0500034613F8012B002A64
:108B0000FBD1181A0138704710B50139034632B14C
:108B100011F8014F03F8014B013A002CF7D11A4428
:108B20000021934200D110BD03F8011BF9E70000BA
:108B300021400D005D400D0085400D0089400D0075
:108B400000000000554E4B4E4F574E004157414BD1
:108B5000450041534C45455000536C656570537456
:108B6000617465546F67676C65005B25735D2025D4
:108B70006C75202D3E206465626F756E6365200004
:108B80005B25735D20256C7520656E74657220739E
:108B90006C656570206D6F646520666F722036307D
:108BA000207365636F6E6473206F7220413020669E
:108BB000616C6C696E67005B25735D20256C7520A8
:108BC0002D3E25732000536C656570537461746588
:108BD000436865636B005B25735D20256C752073AE
:108BE0006C65657053746174653D25732028256C30
:108BF00064292000536C6565705374617465496E17
:108C00006974005B25735D00736574757028290AAB
:108C1000004F6F6F70732C206E6F20424E4F3035B7
:108C200035206465746563746564202E2E2E2043A0
:108C30006865636B20796F757220776972696E67FA
:108C4000206F722049324320414444522100736511
:108C5000747570005B25735D626E6F207265616470
:108C600079005B25735D72676220726561647900CB
:108C70005B25735D69326320736C61766520726574
:108C8000616479005B25735D6C6F7720706F776529
:108C900072207265616479005B25735D696275732A
:108CA000207265616479005B25735D70696473206F
:108CB00072656164790073657475702820636F6DE7
:108CC000706C65746520290A00736574546172675D
:108CD00065745370656564005B25735D20256C7554
:108CE000202D3E2025642020004155544F4D4154F5
:108CF0004943004D414E55414C006D61737465729E
:108D0000207570646174656420257520746F20255A
:108D10006C750028256C7529205A3A202566007B41
:108D2000202274696D657374616D70223A20256C20
:108D3000752C20226D696C6C6973223A20256C7544
:108D40002C2020226E616D65223A22696D75222CDD
:108D5000202274797065223A20256C752C202269B6
:108D60006D7574696D65223A256C752C2022582228
:108D70003A2025662C202259223A25662C20225A98
:108D800022203A202566207D00726F626F742F6961
:108D90006D750028256C75292062616C616E6365B4
:108DA000496E7075743A202566007B202274696DC7
:108DB000657374616D70223A20256C752C20226DCC
:108DC000696C6C6973223A20256C752C20227479A9
:108DD0007065223A2269427573222C20226E616DE1
:108DE00065223A2269427573222C20224330223AAE
:108DF00025642C224331223A25642C224332223A24
:108E000025642C224333223A25642C224334223A0F
:108E100025642C224335223A25642C224336223AFB
:108E200025642C224337223A25642C224338223AE7
:108E300025642C224339223A2564207D00726F621A
:108E40006F742F694275730053544F502062616CE8
:108E5000616E6365496E7075742066726F6D205225
:108E600058203D2025660053544152542062616CC5
:108E7000616E6365496E7075742066726F6D205205
:108E800058203D202566007468726F74746C653DCF
:108E900025642C207374656572696E673D256400D6
:108EA0007269676874536574706F696E7420667256
:108EB0006F6D205258203D202566006C6566745306
:108EC0006574706F696E742066726F6D20525820E1
:108ED0003D202566006C6F6F70005B25735D20255B
:108EE0006C752042414C414E43452050494420423C
:108EF0004B702D3E20256620005B25735D20256C80
:108F000075202D3E2042414C414E43455F494E491C
:108F1000542020005B25735D20256C75202D3E209C
:108F20004D5154545F544553542020007B202274EB
:108F3000696D657374616D70223A20256C752C2003
:108F4000226D696C6C6973223A20256C752C202285
:108F500074797065223A20227465737422207D0032
:108F6000726F626F742F746573740062616C616EEE
:108F7000636520676F6573206163746976653A2065
:108F800020256C752C2025660062616C616E63651E
:108F900020676F65732069646C653A20256C752CB9
:108FA0002025660062616C616E6365506964207B98
:108FB000202274696D657374616D70223A202225D8
:108FC0006C75222C2022496E70757422203A202262
:108FD0002566222C2022536574706F696E742220DE
:108FE000203A20222566222C20224F757470757439
:108FF00022203A2022256622207D007B20227469CF
:109000006D657374616D70223A20256C752C202279
:109010006D696C6C6973223A20256C752C20227462
:10902000797065223A22706964222C20226E616D6B
:1090300065223A2262616C616E6365506964222C1C
:109040002022496E70757422203A2025662C202239
:10905000536574706F696E742220203A2025662C47
:1090600020224F757470757422203A2025662C20BA
:10907000224B70223A25662C20224B69223A256623
:109080002C20224B64223A25662C20226D6F6465C9
:10909000223A2225732220207D00726F626F742F86
:1090A00062616C616E6365506964005B25735D206D
:1090B0002564202D206C6566742070696420696EBB
:1090C0007075743D25662C20736574706F696E74BD
:1090D0003D25662C206F75747075743D2566005BA8
:1090E00025735D202564202D206C65667420706FCB
:1090F0007765723D2566007B202274696D65737407
:10910000616D70223A20256C752C20226D696C6C83
:109110006973223A256C752C202274797065223A85
:1091200022706964222C20226E616D65223A2272BF
:1091300069676874506964222C2022496E707574C6
:1091400022203A2025662C2022536574706F696EA8
:10915000742220203A2025662C20224F75747075C9
:109160007422203A2025662C20224B70223A256654
:109170002C20224B69223A25662C20224B64223A6D
:1091800025662C20226D6F6465223A2225732220E9
:10919000207D00726F626F742F7269676874506906
:1091A00064007B202274696D657374616D70223A6E
:1091B00020256C752C20226D696C6C6973223A2015
:1091C000256C752C202274797065223A22706F7795
:1091D0006572222C20226E616D65223A22726967C7
:1091E0006874506F776572222C2022706F776572D9
:1091F00022203A20256620207D00726F626F742F36
:109200007269676874506F776572005B25735D20C3
:109210002564202D20726967687420706964206954
:109220006E7075743D25662C20736574706F696E61
:10923000743D25662C206F75747075743D2566002D
:109240005B25735D202564202D207269676874207A
:10925000706F7765723D2566005B25735D20256420
:10926000202D206C65667420706964204155544F30
:1092700054554E4520434F4D504C455445204B705E
:109280003D25662C204B693D25662C204B643D25F1
:1092900066005B25735D202564202D206C65667457
:1092A00020706964204155544F54554E4520525505
:1092B0004E4E494E4720696E7075743D25662C20D0
:1092C000736574706F696E743D25662C206F7574BC
:1092D0007075743D2566007B202274696D6573741A
:1092E000616D70223A20256C752C20226D696C6CA2
:1092F0006973223A20256C752C20202274797065C0
:10930000223A22706F776572222C20226E616D6581
:10931000223A226C656674506F776572222C202287
:10932000706F77657222203A20256620207D0072BA
:109330006F626F742F6C656674506F77657200454D
:109340007374696D61746564207072652D736361F7
:109350006C653A200046696E616C207072652D73F1
:1093600063616C653A2000424E4F30353500000095
:109370000000000000000000B3400D0005570D0084
:109380006F650D0049680D0071650D00000000005B
:10939000000000009D680D00BD680D000000000089
:1093A00000000000856F0D008F6F0D00996F0D009C
:1093B000A36F0D00AD6F0D00B96F0D00C56F0D00EF
:1093C000D16F0D00D96F0D00E36F0D00ED6F0D0033
:1093D000000000000000000047710D003D710D000D
:1093E00033710D00E9700D0027710D001B710D0028
:1093F0000F710D0007710D00FD700D00F3700D0071
:10940000ED6F0D00000000000000000065710D0010
:10941000AF710D0087710D0067710D008F710D0028
:1094200097710D009F710D00A7710D0000000000E5
:109430000000000077720D00E3720D00BB720D009A
:109440008B780D008B720D00A7720D0099720D00C4
:10945000B5720D0079720D007D720D0000000000E4
:109460000000000085730D00ED730D00C3730D0047
:109470008B780D00B5730D0087730D0097730D0089
:10948000E7730D00A7730D0081730D00000000004D
:1094900000000000A1740D0091740D0093740D0084
:1094A00025592D256D2D25645425483A254D3A25FD
:1094B00053257A0061736374696D65006170700093
:1094C0006E616E00696E66006F7666002E000000A9
:1094D00000000000000000005F7D0D00557D0D00C4
:1094E0004B7D0D00417D0D00357D0D00297D0D006A
:1094F0001D7D0D00157D0D000B7D0D00017D0D0006
:10950000ED6F0D000000000019570D00C1700D0037
:1095100051710D00FD760D0061780D0075780D001C
:10952000757B0D00C57C0D00697D0D0000000000FD
:049530000000000037
:10953400FFFFFFFFFFFFFFFF000000000000F0BF80
:10954400000000000000F0BF140000000000000054
:1095540000000000000034400000000000006940EA
:109564000000000000001040B4940D00E0DD032072
:1095740000000000000000000000000000000000E7
:1095840000000000000000000000000000000000D7
:1095940000000000000000000000000000000000C7
:1095A40000000000000000000000000000000000B7
:1095B40000000000000000000000000000000000A7
:1095C4000000000000000000000000000000000097
:1095D400FFFFFFFF00000102030405060708090A54
:1095E4000B0C0D0E0F101112131415161718191A4F
:0895F4001B1C1D1E1F20280096
:0495FC007856341257
:04000003D0004020C9
:00000001FF
