:02000002D0002C
:1040000000400D00E8960D00000005000C000501C1
:0840100004019301000000000F
:10401800B88D0D0009480A49884208B505D0094AF3
:10402800824202D0121A04F061FE0748074A0021B2
:10403800121A04F066FE014808BD00BF20DF032005
:1040480040960D00A0DF0320A0DF0320F0E7032047
:1040580070B503F069FB074C074BE41AA408002568
:104068001E46A54204D056F8253098470135F8E792
:1040780070BD00BF40960D00E0950D0000F014BA29
:1040880008B500F04DFBBDE8084003F01BBB02F08B
:10409800A3BC02F0A1BC02F0A7BC02F0A5BC00784A
:1040A800B0FA80F0400970470123037070477047E9
:1040B80003685A6898681B6812F0010F4FEA620299
:1040C80018BF8158104418BFCB58184770470000D4
:1040D800F0B502F1080383B023F0070302AFADEB9C
:1040E800030D02AC154620460E4604F0FFFD0023E2
:1040F800635503F007FA144A144B01218DE8600058
:1041080003F02FFD1249204604F02CFE024610B998
:104118000146FF2010E00F49204604F023FE024626
:1041280008B9FF2108E00C49204604F01BFEFF22D5
:10413800014608B11146104603F026FB642003F03F
:10414800BBFB0437BD46F0BDF28D0D00E08D0D00C0
:10415800FB8D0D00FF8D0D00058E0D002F2810B56D
:10416800044605D9094A00210A2002F097FB01E01C
:104178001F2803D904F01F04054B01E04FF0A043AA
:10418800D3F81005E04000F0010010BD65670D0090
:1041980000030050F8B5264B264E5B6883610389FF
:1041A80032681B01D118D55C4B7803F01F0343EA32
:1041B800451504462846FFF7D1FF2846FFF7CEFFEE
:1041C800A38932681B01D118D55C4B7803F01F0313
:1041D80043EA451507462846FFF7C0FF2846FFF77C
:1041E800BDFF237C17F0FF0F03F00303C0B218BF15
:1041F80043F0040308B143F008039A10013B22740A
:104208000D2B14D8DFE803F0070A0D0A131007076F
:1042180010130A0D0A076369013307E06369013B5C
:1042280004E06369023301E06369023B6361F8BD3E
:10423800001000E088E1032010B50029B8BF49420A
:104248000446C9B201F006F92046042101F0DCF861
:1042580010BD022A38B5044605D0032A0FD0012A1A
:1042680010D10B6809E00C200D68FFF710FF03461A
:1042780018B195E8070083E80700236002E00068AA
:10428800FFF709FF002038BD10B5164C88B002F0C2
:104298006DFA2368C01AB0F57A7F20D302F066FA67
:1042A8002060114C2378C3B9642003F005FB0F4B41
:1042B80001221B6822701321ADF816100293022107
:1042C8003C238DF815108DE80C000DF116010DF149
:1042D800150306A803F002FD01E00023237008B0CF
:1042E80010BD00BF28E00320C0E1032008E103203F
:1042F80008B5132003F0F9FD18B9BDE80840FFF729
:10430800C3BF08BD0221132003F0DEBD38B50C1E63
:10431800054602D1FFF790FF0DE004DD012101F011
:1043280073F8E1B204E0022101F06EF86142C9B20B
:10433800284601F08FF8204638BD000010B5044625
:1043480004F018F9034BC3E90001034BC3E900016A
:10435800204610BD90E10320B8E00320F0B589B0F5
:10436800044602A880E806001D460C2000230F46DC
:10437800039E0693FFF78BFE10B1076046608560C9
:104388000C4B07930C4B06939DF840300490009318
:1043980020469DF93C309DF8382004A903F04EFAD8
:1043A800069B04461BB104A90322084698472046E9
:1043B80009B0F0BDB9400D005B420D002DE9F04396
:1043C8000F46044689B016460221384603F07CFDA4
:1043D8000221304603F078FD0023236063606361A7
:1043E800A3614FF4FA60DFF8AC90A760E66002F0D2
:1043F800B5F92389D9F800201B01D118D55C4B7871
:1044080003F01F0343EA45152846FFF7A7FE284691
:10441800FFF7A4FEA389D9F800201B01D118D55CA9
:104428004B7803F01F0343EA451510F100082846AE
:1044380018BF4FF00108FFF791FE2846FFF78EFEE0
:1044480018B148F002085FFA88F8002584F810804F
:104458004FF0FF388DE82001DFF83C90CDF8109040
:104468000595029504AA234606CA3846FFF776FF43
:104478008DE82001CDF818900795029508AA2346E3
:1044880012E906003046FFF769FF204609B0BDE88B
:10449800F08300BF88E103209D410D0013460A46C2
:1044A800012103F05EBB000030B585B003F02AF8A7
:1044B8004FF4E13103F01AF803F024F80121664AB9
:1044C80003F04FFB0C21654801F0C9FD28B903F042
:1044D80019F8634903F019FAFEE7642003F0ECF9D0
:1044E80003F010F85F4A6049FFF7D8FF012003F096
:1044F8003BF903F007F85B4A5C49FFF7CFFF6846D2
:1045080002F0DCF900995A4801F02EFB684603F0E6
:1045180062FB02F0F7FF534A5649FFF7BFFF5448C2
:1045280001F03EFA68B15449514801F010FD534A70
:1045380053494F4801F098FB02F0E4FF494A5149BA
:1045480003E002F0DFFF474A4F49FFF7A7FF4F4854
:1045580001F0EAFE02F0D6FF424A4D49FFF79EFFFE
:10456800FFF7D0FE02F0CEFF3E4A4A49FFF796FF1A
:1045780002F058FF0146484801F06AF802F0C2FF0D
:10458800384A4649FFF78AFF02F0BCFF354A012145
:1045980003F0E7FA4FF4C861414800F098FE414B38
:1045A8004148002400250121C3E9004500F004FE2C
:1045B8009FED251B9FED260B3B4800F093FD6421E2
:1045C800394800F069FD394BC3E90045384BC3E968
:1045D8000045384B384D18680021FFF72DFE374B42
:1045E800002418682C602146FFF726FE0121344874
:1045F8002C6000F0E1FD9FED141B9FED150B30487A
:1046080000F070FDFA212E4800F046FD01212D48EA
:1046180000F0D2FD9FED0C1B9FED0D0B294800F01B
:1046280061FDFA21274800F037FD02F06BFF0D4AC3
:104638002549FFF733FF02F065FF244A012103F003
:1046480090FA05B030BD00BF0000000000E06F40E8
:104658000000000000E06FC01F8E0D00D0E00320B6
:10466800288E0D00DA8D0D00658E0D00738E0D00FD
:10467800C0DF0320818E0D00908E0D00A78E0D00E7
:10468800968E0D009A8E0D00AD8E0D00A4DF0320CE
:10469800C98E0D00DD8E0D00D8E20320F18E0D00CD
:1046A800C8E10320C8E0032038E00320B8E0032075
:1046B80090E1032004E103203CE2032018E00320FA
:1046C80060E2032010E10320008F0D000F8F0D0022
:1046D8000EB410B50446C3B00E4801F061F968B1D4
:1046E80046AB459A01934FF4807102A802F08CF909
:1046F80002AA2146074801F0B7FA05E002F002FFD6
:10470800054A0649FFF7CAFE43B0BDE8104003B0AA
:10471800704700BFC0DF0320CC8D0D00228F0D0035
:104728002DE9F04F2DED0C8B9BB0FFF7E1FD0DF15E
:104738004201A94801F01BFE80B102F0E3FEBDF87A
:10474800424005462146A44801F002FE2346009057
:10475800A24A0121284603F004FAE8E7A04801F03C
:104768001FF918B19E4801F0C6FA05E002F0CAFE2A
:104778009C4A9D49FFF792FE11A99C489C4C01F068
:104788006DFD9DED188A18EE100A03F005FFD4E9B7
:1047980000230F46064604F0BBF9014600282ED137
:1047A800DFED947A8C4828EE278AC4E90067FDEE8D
:1047B800C87A17EE902A01F0D3FD01F0D7FF04461E
:1047C800189803F0E9FECDE90401179803F0E4FE18
:1047D800CDE90201169803F0DFFE2246CDE900017B
:1047E80085498648FFF774FF189803F0D5FE78A32B
:1047F800D3E9002303F072FD814BC3E9000181482E
:1048080000F062FB00285AD07F4C8049804D7C4ED6
:10481800D4E90023C1E900237E49C1E9002302F05D
:1048280071FE074601F0A2FFD4E90023CDE9042375
:10483800D5E90023CDE90223D6E900230121CDE9FA
:1048480000230346744A384603F08BF901F08EFFC3
:1048580007466C48D5E900ABD6E90089D4E900459C
:1048680000F022FD6748B0EE408AF0EE608A00F062
:104878001EFD6448B0EE409AF0EE609A00F01AFD12
:104888006048B0EE40AAF0EE60AA00F016FD634A58
:10489800634B644901280CBF184610460C908DEDF7
:1048A8000AAB8DED089B8DED068BCDE90445CDE96E
:1048B80002ABCDE900893A465B48FFF709FF5B4840
:1048C8005B4C00F0D3FE0521584800F031FFB0F5ED
:1048D800FA6F53D101215548217000F029FFA0F249
:1048E800DC50B0F5FA7F04DA524B9842B8BF18464C
:1048F80001E04FF4FA7003F03DFE4F4C4F4DC4E910
:104908000001D5E9002304F003F968B902F0FAFDC3
:10491800D4E900230121CDE90023494A03F021F914
:10492800D4E90023C5E900230221404800F000FF34
:10493800A0F2DC50B0F5FA7F04DA3E4B9842B8BFDB
:10494800184601E04FF4FA7003F014FE3D4C3E4D5A
:10495800C4E90001D5E9002304F0DAF8C0B902F08F
:10496800D1FDD4E900230121CDE90023374A03F022
:10497800F8F8D4E90023C5E9002309E023783BB11E
:1049880005212A4800F0D4FEB0F5FA6F40F087817F
:1049980002F0B8FD03681B699847002800F08C8076
:1049A80002F0B0FD03685B69984732287AD007DCCB
:1049B80020284FD031287FD1254C2068643878E0F2
:1049C800332873D0392877D1FFF75EFC74E000BF35
:1049D8000000000000205B40A4DF0320508F0D0082
:1049E800C0DF0320ED8D0D00228F0D00D0E00320E5
:1049F800A8E103200000C842688F0D00AA8F0D00AF
:104A0800E0E0032038E0032020E0032030E003202A
:104A1800C8E00320B8E10320AE8F0D00498F0D00D8
:104A28003F8F0D0001900D009B900D00D8E20320F0
:104A380038E203200CFEFFFF90E1032030DF032063
:104A4800A6900D00B8E0032020DF0320BE900D00E3
:104A58003CE203200021984800F0AEFB974B00246D
:104A68000025C3E90045964B00211868FFF7E4FBD1
:104A78000021944800F0A0FB934BC3E90045934BF9
:104A880000211868FFF7D8FB0020FFF757FC904B70
:104A980001211860884800F08FFB0121894800F047
:104AA8008BFB09E08A4C2068643002E0884C20685F
:104AB8004042FFF743FC206002F091FE854B864D93
:104AC800D3F814A002F08DFE02F089FE834B5E69D4
:104AD80002F087FE01F04AFE2B680446002B6CD0DA
:104AE800C31A002B0F9369DD7D4FDFF820B23868B9
:104AF8004EF66022C0EB0A00504303F03BFD0F9BCB
:104B080080461846894603F035FD0022754B03F0B0
:104B180097FD02460B464046494603F0BBFECBE9EB
:104B28000001654800F0D0F9002847D0DFF88C81F3
:104B3800D8E9000104F034F8614B01461868FFF722
:104B4800E5FB01F013FE684B81465B4893ED009B43
:104B58009BED008B98ED00AB00F0A6FB5648B0EE3D
:104B680040BAF0EE60BA00F0A2FB5348B0EE40CA7B
:104B7800F0EE60CA00F09EFB4F48B0EE40DAF0EE6F
:104B880060DA00F09AFB594A594B5A4901280CBF80
:104B9800184610460C908DED0ADB8DED08CB8DED97
:104BA80006BB8DED04AB8DED029B8DED008B4A4667
:104BB8005148FFF78DFDC7F800A02C604F4F3D68A6
:104BC800002D6AD0651B002D70DDDFF844A1DFF8E9
:104BD80044B1DAF800004EF66023301A584303F067
:104BE800C9FC80462846894603F0C4FC00223D4B98
:104BF80003F026FD02460B464046494603F04AFEAE
:104C0800CBE900012F4800F05FF900284ED02E4D67
:104C1800D5E9000103F0C4FF2C4B01461868FFF7E3
:104C280075FB01F0A3FD364B8046264893ED009BAB
:104C38009BED008B95ED00AB00F036FB2148B0EE04
:104C480040BAF0EE60BA00F032FB1E48B0EE40CA3F
:104C5800F0EE60CA00F02EFB1A48B0EE40DAF0EE33
:104C680060DA00F02AFB214A214B264901280CBFB3
:104C7800184610460C908DED0ADB8DED08CB8DEDB6
:104C880006BB8DED04AB8DED029B8DED008B42468E
:104C98001D48FFF71DFDCAF800603C6006E00020D3
:104CA8002070FFF74BFB0A4B186071E61BB0BDEC98
:104CB8000C8BBDE8F08F00BF60E20320A0E1032069
:104CC80004E1032010E10320B0E1032018E00320F1
:104CD8003CE2032040E20320C0E00320E8E0032098
:104CE800C4E1032000C09240B8E00320498F0D00C2
:104CF8003F8F0D00D5900D006C910D0098E10320B9
:104D080090E1032074910D00FE910D0030E0032026
:104D1800B0E00320B8E1032010B50446FFF7BBF963
:104D2800204610BD0000000030B52DED048B4A4B25
:104D38004A4D83B000249FED448B9FED459B1C603A
:104D480001F034FDB0EE482AF0EE682AB0EE491AB8
:104D5800F0EE691A424BB0EE480AF0EE680A1860A5
:104D6800404A0094404B4149414800F059FAB0EE9E
:104D7800482AF0EE682AB0EE491AF0EE691A009453
:104D8800B0EE480AF0EE680A3A4B3B4A3B493C48C9
:104D980000F046FAB0EE482AF0EE682AB0EE481A5B
:104DA800F0EE681AB0EE490AF0EE690A354B009445
:104DB800354A36493648374C00F032FA082206217F
:104DC8003548FFF7FBFA042205213448FFF7F6FAC5
:104DD8006021204600F0EEFA0321204600F0B0FAE8
:104DE8002F4B04211860204600F0AAFA2D4B2E4CB8
:104DF800186028223721284601F0E4F822462B497A
:104E0800284603F085F802F0F9FF294D0A230146E8
:104E18001022284601F072FA2846264D26492246D5
:104E280003F076F8254B264940F25B72284600F0DD
:104E3800CFFC24492246284603B0BDEC048BBDE8CC
:104E4800304003F065B800BF00000000000000001B
:104E5800000000000000F03F08E10320D0E003203C
:104E680088E10320A0E10320B8E0032030E003201C
:104E780060E2032090E10320B0E10320B8E10320C1
:104E880010E10320C8E0032020E00320E0E0032035
:104E980038E00320C8E10320E8E0032040E20320D3
:104EA80004E1032018E00320A0DF0320D5400D0013
:104EB800A4DF0320C0DF0320D1620D00D9400D001C
:104EC80028DF03205D5F0D002DE9F04F90F870504A
:104ED80087B004460DB900256FE001F047FC236C4C
:104EE800A26D0390C31A9342F5D3636BE16BD3E9C8
:104EF8000089D1E9000142464B4603F0EDF9D4E9B7
:104F08000823CDE9040103F09BFBD4E9122303F045
:104F1800E5F9D4E91AAB06460F46C4E912675246CA
:104F28005B4603F01DFE10B1C4E912AB0EE094ED30
:104F3800187B304653EC172B39468DED007B03F078
:104F4800F1FD18B19DED007B84ED127BD4E90623B9
:104F5800DDE9040103F074FBD4E9122303F0BEF980
:104F6800D4E9142306460F464046494603F0B4F9EF
:104F7800D4E90A2303F064FB02460B46304639465F
:104F880003F0AAF906460F4602460B465046594614
:104F980003F0C8FD50B9D4E918AB304652465B4619
:104FA800394603F0BFFD08B9B246BB46A36BC3E957
:104FB80000ABC4E91489039B2364284607B0BDE805
:104FC800F08F00002DE9F34755EC104B8246002284
:104FD800002310EE100A294659EC118B57EC126B7E
:104FE80003F0A0FD002851D1002200234046494685
:104FF80003F098FD002849D10022002330463946A5
:1050080003F090FD002841D1CAE90289CAE9046782
:10501800CAE90045DAF8580003F09CFA00221D4B53
:1050280003F038FCCAE90645CDE9000102460B4603
:105038004046494603F004FB80468946DDE90023E3
:1050480030463946CAE9088903F024FCDAF83030DA
:1050580006460F46012BCAE90A6717D122462B4696
:105068000020002103F038F94246CAE906014B4600
:105078000020002103F030F93246CAE908013B4616
:105088000020002103F028F9CAE90A0102B0BDE8AE
:10509800F08700BF00408F40F8B50D1E044620DDA4
:1050A800284603F067FA0646A06D0F4603F052FA49
:1050B80002460B463046394603F0ECFB02460B46E7
:1050C80006460F46D4E9080103F0BAFA3246C4E9A5
:1050D80008013B46D4E90A0103F0DCFBC4E90A01F4
:1050E800A565F8BD2DE9F84F55EC104B57EC116B41
:1050F800824611EE102A3B4610EE100A294603F0AC
:1051080025FD002833D19AF87030CAE91845CAE954
:105118001A6763B3DAF838B0DBE9008930464246EB
:105128004B46394603F0FEFC10B1CBE9006708E0B6
:1051380042464B462046294603F012FD08B1CBE90A
:105148000045DAE91267DAE91A45304622462B4665
:10515800394603F005FD40B9DAE9184530462246DC
:105168002B46394603F0DEFC08B1CAE91245BDE812
:10517800F88F2DE9D043836BD3E90067C0E9126744
:10518800436BD0E91A89D3E900230446C0E9142304
:10519800394642464B46304603F0E2FC40B9D4E972
:1051A8001889304642464B46394603F0BBFC08B1E5
:1051B800C4E91289BDE8D08338B54B1E5D425D4114
:1051C80090F8703083F001039D42044601D1FFF747
:1051D800D0FF84F8705038BD38B590F87030044668
:1051E8000D46D3B1036B994217D0D0E906230021AD
:1051F800002003F071F8D4E90823C4E9060100206F
:10520800002103F069F8D4E90A23C4E90801002061
:10521800002103F061F8C4E90A01256338BD0000E4
:1052280010B52DED068BB0EE408AF0EE608AB0EE38
:10523800419AF0EE619AC3630023826380F870306C
:1052480000220023C0E91823B0EE42AAF0EE62AAB9
:1052580013A3D3E90023C0E91A2364230446836512
:1052680041639DF82010FFF7B7FFB0EE4A2AF0EE31
:105278006A2AB0EE491AF0EE691AB0EE480AF0EE62
:10528800680A2046FFF79EFE01F070FABDEC068B17
:10529800A36DC01A2064204610BD00BFAFF3008084
:1052A8000000000000E06F4090ED000B704790EDAB
:1052B800020B704790ED040B704790F87000704730
:1052C80001F074BA00231A466C3000F0D0B870B5FB
:1052D80006460C4606F16C0502F070FD02F028F84F
:1052E800284600F02DF907EE904A7480B8EE670A58
:1052F800284600F031F900240023E1B21A46284676
:10530800013400F0B4F8102CF6D170BDB2F5805F0E
:10531800134600F16C0026BF00234FF48052002290
:1053280000F0A5B810B41AB95DF8044BFFF7CABF6E
:1053380000234FF480526C305DF8044B00F097B8AE
:10534800042930B52DD80139C9B20C2303FB010259
:10535800147B0CBB117301EB410200EB82029060DD
:1053680069B101290FD0022910D0032915BF0923DB
:1053780006230A24052414BF0825072509E0092364
:105388000A24082505E00B240D2502E00323042444
:105398000D461571547193710C2303FB0100043001
:1053A80030BD002030BD002242600272827042701F
:1053B8000270704737B5031D0D46044600F13401ED
:1053C8001846FFF7F0FF0C338B42F9D1002384F81D
:1053D800443084F84C30A4F8423084F8603084F8C3
:1053E8006830A4F85E30402104F16C0000F03DF80C
:1053F8002570294601A800F038F89DF8043084F893
:105408006C30204603B030BD022938B504460D463D
:105418000AD0042913D001291BD181784068FFF7ED
:1054280051FF2A46617805E041784068FFF74AFF56
:10543800A17801226068BDE83840FFF773BF417862
:105448004068FFF73FFFA1786068BDE83840FFF784
:1054580039BF38BD0A0101784068FFF757BF01F02E
:10546800A5B90368C9B29B68184701707047F8B5B9
:10547800074615461C460E4602F0A0FC397801F096
:105488006FFF02F09BFC062101EB8601FFF7E9FFA5
:1054980002F094FC2946FFF7E4FF02F08FFC290A8A
:1054A800FFF7DFFF02F08AFC2146FFF7DAFF02F080
:1054B80085FC210AFFF7D5FF02F080FCBDE8F84023
:1054C80001F056BF38B504460D4602F077FC217846
:1054D80001F046FF02F072FC036829469B68984772
:1054E80002F06CFC01F044FF02F068FC0122217814
:1054F80001F033FF02F062FC03685B699847C0B2B1
:1055080038BD70B5064614460D4602F057FC317892
:1055180001F026FF02F052FC036829469B68984771
:1055280002F04CFC036821469B68984702F046FC51
:10553800BDE8704001F01CBF00221146FFF7E1BF33
:1055480010B5044602F03AFC01F0F2FE2046BDE830
:105558001040FFF7F1BF0000F8B5DFED2F7A2DED11
:10556800028B87EE808A044601F0CCFF2B4902F0BB
:10557800CCF901F0C7FF0546F7EE007A78EE677AB6
:1055880017EE900A03F008F806460F4647EC106B32
:105598000221284602F0DAFA214B00223046394629
:1055A80002F09CFE41EC100B02F002FE51EC100BD5
:1055B80003F01EFBC6B201F0A5FF1A4902F0A5F9D7
:1055C80001F0A0FF0A22314602F0E1F9002120464D
:1055D800FFF778FF00F06F02054642F01002204600
:1055E8000021FFF78EFF32462046FE21FFF789FF94
:1055F8002A4600212046FFF784FF052002F05CF9C7
:10560800BDEC028B65F05E022046D2B20021BDE8F7
:10561800F840FFF776BF00BF20BCBE4507920D00DB
:105628000000E03F1D920D0001F0C0B8042310B542
:1056380003704160044601F099F80023A06084F8E3
:105648002C3084F82D30A4F8423084F8443010BD52
:1056580038B50C4605464FF4E131204601F0DCFE32
:1056680021462846BDE83840FFF7E0BFF8B50446B4
:1056780000260425606803681B699847002856DDE2
:1056880001F074F8A368A060C31A022B606888BF91
:10569800267003685B6998472278C3B2032AE9D861
:1056A800DFE802F0020E2126202B3ED8DA1EDB436B
:1056B800A4F8423084F82C6084F82D20012315E0EA
:1056C80094F82C104A1C2144D2B284F82C200B7375
:1056D800B4F84210CB1AA4F8423094F82D30934213
:1056E800C8D1022302E084F8443003232370C1E7C1
:1056F800000294F84430B4F8422000F47F40184483
:10570800824212D1237B402B0FD122460123977B63
:10571800507B03F0FE0102332144DBB240EA07204C
:10572800152BC88502F10202F1D12570A2E7F8BD58
:1057380009299ABF00EB4100C08D0020704701F095
:1057480035B8000038B584690A4B036005467CB15A
:105758006368013B63605BB9236820469B68984790
:10576800A368013BA3601BB923682046DB68984700
:10577800284638BDCC920D0010B50446FFF7E2FF6D
:105788002046FEF788FC204610BD38B51D46059B0F
:10579800036300230446436302B1826419B104F130
:1057A800380002F072FA049B2365069BE069A4F8AE
:1057B8004C50FF2BB8BFFF23A4F8543008B1FEF7B4
:1057C8006CFCB4F85400FEF764FCE06138BD0000DE
:1057D8002DE9FF4104460025174698460E4601F07C
:1057E80055FCE5610A4904F1380002F03BFAFF2351
:1057F80002930F2300932046A564CDF804803B460E
:1058080032462946FFF7C1FF204604B0BDE8F081C3
:1058180079940D0010B50446204601F09BFB002842
:10582800FAD0204601F0B7FAC0B210BD2DE9F04712
:105838000546C4698846FFF7EDFF2070EB6993F8C9
:1058480000A04FF001090AF0F00A00274E4628464A
:10585800FFF7E0FFEB69985500F07F0313FB09F3AE
:105868001F44741C0306A4B2BFB24FEAC91901D57C
:105878002646ECE7631EBAF1300F88F8003013D1E2
:105888002846D5F81C80FFF7C5FF08F8040028460D
:10589800F41CD5F81C800236FFF7BCFFB6B2A4B2E0
:1058A80008F80600022300E000231B1B9EB2A31980
:1058B8009BB29F420BD92846FFF7ACFFB5F854308E
:1058C800A34284BFEB6918550134A4B2EFE7B5F8D9
:1058D8005400A0422CBF20460020BDE8F087F7B551
:1058E80007468E461E461D46002402A905F07F0382
:1058F8002144ED0918BF43F08003013401F8043C4A
:10590800E4B2002DF1D1C4F10403D11802F803E088
:10591800A54206DA2B1B01A81344285C58710135EF
:10592800F6E7721C2244384601F013F9054600F0E8
:105938001DFF013478623444A8B2231A58425841F2
:1059480003B0F0BD10B5C369E0221A70C369002224
:105958005A7004460222C16901F0FBF8204601F0A2
:10596800E2FA00F003FF6062A06210BD0233F0B5F6
:105978009BB20D466C1A15F8016BA4B23EB1B0F893
:1059880054709F4203D95C1CD654A3B2F2E7191B8A
:105998000A44211202F8021C02F8014C1846F0BD14
:1059A80038B5054601F0EBF8002814BF012400249F
:1059B80002D1284601F0B7FA204638BD2DE9F04358
:1059C80087B00446894617461E46DDF83880FFF73B
:1059D800E7FF0546002840F0BD80A16C39B90346B1
:1059E800B4F84C20A16B204601F0F6F809E06846AF
:1059F80001F036FE2B46B4F84C206946204601F0EB
:105A080015FA002800F0A280012323849DF84C3069
:105A1800042B15D1524B18689A88ADF804200090D1
:105A2800E2699B7900988DF80630531DC2F805008D
:105A3800BDF804109DF806209A7199800C2312E095
:105A4800484BD4F81CC0186859681B7A6A4603C2C8
:105A580013706B4603CBCCF80500CCF8091013780B
:105A68008CF80D300E23B8F1000F0AD09DF84020B5
:105A78009DF83C10520142F0060242EAC102D2B23D
:105A880000E002229DF8481009B902F0FD022FB18A
:105A980016B942F0800201E042F0C002E169CA543E
:105AA800226DE169581C12120A549A1CE169206D92
:105AB80088540333E26949462046FFF757FFB8F197
:105AC800000F0BD00346E26941462046FFF74EFF20
:105AD800E269119903462046FFF748FF67B103467C
:105AE800E26939462046FFF741FF2EB10346E269D5
:105AF80031462046FFF73AFF431F9BB2E269102167
:105B08002046FFF7ECFE00F031FE4FF47A76606233
:105B1800A062204601F01EFA40B900F027FEA36AF1
:105B2800C01A236D73439842F3D90FE069462046A3
:105B3800FFF77CFE042809D1E369DE7836B900F066
:105B480015FE0125A06284F82C6004E0204601F0CF
:105B5800EAF900E00025284607B0BDE8F08300BF59
:105B68002F920D0036920D007FB504230593012373
:105B78000493002303930293019300931A46FFF7BB
:105B88001DFF07B05DF804FB2DE9F14F0D9E9DF850
:105B980028809DF82C509DF8307004468B4691461D
:105BA8009A46FFF7FDFE00284CD0B4F85420E0696F
:105BB800002103F0A6F80523E26959462046FFF7BD
:105BC800D5FE6B1E012B12D8238CE26901339BB2E0
:105BD80023841B121354411C89B2E369228C5A5442
:105BE800023080B21EB1238C5A1C228433800022DA
:105BF80091B283188A459BB20AD9B4F854609E4280
:105C080002F1010204D919F80160E169CE54EFE705
:105C1800B8F1000F0CBF302131210FB141F008015C
:105C2800022D02D141F0040103E0012D08BF41F02B
:105C38000201053BE2699BB2204601B0BDE8F04F86
:105C4800FFF74DBE01B0BDE8F08F1FB5089C039467
:105C5800002402949DF81C4001949DF8184000947B
:105C6800FFF792FF04B010BD7FB5054610460E46FB
:105C7800144603F081F8002302930193009322460F
:105C8800034631462846FFF7E0FF04B070BD38B53B
:105C980004460D46FFF784FE90B1E36962221A704C
:105CA800E36902225A70E3692A129A70E369DD7087
:105CB8000422E169204600F04CFF003018BF0120A3
:105CC80038BD38B504460D46FFF76AFE90B1E36962
:105CD80072221A70E36902225A70E3692A129A70D2
:105CE800E369DD700422E169204600F032FF0030EC
:105CF80018BF012038BD2DE9F04F83B000AF04462E
:105D0800FFF74EFE8146002800F0F68000F02EFDD9
:105D1800226D4FF47A735343A26A821A9A42054657
:105D280003D8626A821A934217D294F82C302BB1A6
:105D3800204601F0F8F84FF00009DDE0E269C021E3
:105D48001170E2695370E1690222204600F001FFF8
:105D580001236562A56284F82C30204601F0FAF828
:105D6800002800F0C980F91D2046FFF75FFD0246B4
:105D7800002800F0C180E369A562187800F0F001FE
:105D880030297DD1D4F830B0BBF1000F00F0B480D9
:105D980097F807C003EB0C00EA46817890F801E019
:105DA80001EB0E2E1FFA8EFE0EF1080121F00701FD
:105DB800ADEB010D684600218EB2B64506D90CEB55
:105DC80001061E44F67846540131F5E7002100F833
:105DD8000E101E7806F00606022E0CF10301CCEB1D
:105DE80002021ED17144CEEB020213F8018019445D
:105DF800053A497801EB08280CF10501714419446A
:105E0800D847E36940221A70E3695E70E3691FFAB4
:105E180088F84FEA28229A70E369042283F80380FD
:105E280020E0042E24D17144CEEB020213F8018045
:105E38001944053A497801EB08280CF10501714429
:105E48001944D847E36950221A70E36902225A704C
:105E5800E3691FFA88F84FEA28229A70E369324604
:105E680083F80380E169204600F073FE656205E06F
:105E7800033A7144CEEB02021944D847D5463BE0B9
:105E8800502908D19978DB7803EB012189B22046A3
:105E9800FFF7FDFE30E040290CD0602908D1997841
:105EA800DB7803EB012189B22046FFF70AFF23E0E4
:105EB80070290DD1616BF9B1042A1DD110F0060FBC
:105EC8001AD19878DB7803EB002080B2884713E07A
:105ED800902911D0C0290AD1D0221A70E369002272
:105EE8005A70E1690222204600F033FE04E0D0290E
:105EF80004BF002384F82C3048460C37BD46BDE863
:105F0800F08F70B504460E461546FFF749FDE8B117
:105F1800238C01339BB203B901232384238CE269C8
:105F28001B125371E369228C9A71E2693146072387
:105F38002046FFF71BFDE3691D54031FE269204655
:105F48009BB28221BDE87040FFF7C9BC70BD00223A
:105F5800FFF7D7BF10B50446FFF722FD10B1204662
:105F6800FFF7F0FCE06908B1FEF797F804F1380094
:105F780001F031FE2046FFF7E5FB204610BD00F09A
:105F880015BC000038B50C460546282200212046DD
:105F980002F0B7FE0B220949204602F0F5FE002365
:105FA8000122E372E260AA68636200232261A361AE
:105FB8000322E361024B6261236238BD3F920D0008
:105FC8000AD7233C10B5024C04608160427110BDB1
:105FD80050920D0070B5064614460D4601F0EEFECF
:105FE800717901F0BDF901F0E9FE036829469B6863
:105FF800984701F0E3FE036821469B68984701F043
:10600800DDFE01F0B5F9012070BD08B50A4601733F
:106018003D21FFF7DFFF1E20BDE8084001F04CBC22
:1060280038B504460D4601F0C9FE617901F098F9CA
:1060380001F0C4FE036829469B68984701F0BEFE3C
:1060480001F096F901F0BAFE0122617901F085F9B3
:1060580001F0B4FE03685B699847C0B238BD38B533
:106068000D46044601F0AAFE01F062F9002120461F
:10607800FFF7D6FFA02809D120460021FFF7C5FF6A
:1060880020223F212046FFF7A5FF0BE04FF47A704E
:1060980001F012FC00212046FFF7C2FFA028EBD038
:1060A800002038BD00212046FFF7BAFFA02803D002
:1060B8000A2001F001FCF5E7322001F0FDFB002287
:1060C8003E212046FFF786FF0A2001F0F5FB00225B
:1060D80007212046FFF77EFF00223F212046FFF7D9
:1060E80079FF0A2001F0E8FB29462046FFF78DFFDB
:1060F800142001F0E1FB012038BDF8B5054616462D
:106108001C460F4601F05AFE697901F029F901F0A1
:1061180055FE036839469B68984701F04FFE01F029
:1061280027F901F04BFE2246697901F016F9013C86
:10613800751E3444A54207D001F040FE03685B6930
:10614800984705F8010FF5E70120F8BDF7B50D46AA
:10615800174600211822044602F0D3FD00230093BD
:10616800ADF80430284606236A463946FFF7C5FFCE
:106178009DF800309DF801009DF803609DF80550DA
:1061880043EA00209DF8023043EA06269DF80430D1
:10619800142F43EA052500B236B22DB223D003D816
:1061A800082F37D00E2F04E0282F33D02E2F31D0D0
:1061B8001A2F49D102F0DEF90022254B02F040FAED
:1061C800C4E90001304602F0D5F90022204B02F064
:1061D80037FAC4E90201284602F0CCF900221C4B28
:1061E80002F02EFA2EE002F0C5F90022194B02F057
:1061F80051FBC4E90001304602F0BCF90022154BFE
:1062080002F048FBC4E90201284602F0B3F9002273
:10621800104B15E002F0AEF900220F4B02F03AFBEA
:10622800C4E90001304602F0A5F900220A4B02F049
:1062380031FBC4E90201284602F09CF9064B002212
:1062480002F028FBC4E90401204603B0F0BD00BFFA
:106258000000B03F00208C400000594070B50C464B
:10626800242686B0054632460021204602F049FD24
:106278002660AB6863600323A36000F077FA1A22F4
:10628800206129466846FFF761FFDDE9000102F059
:10629800CFFC6061DDE9020102F0CAFCA061DDE922
:1062A800040102F0C5FCE061012006B070BD00F0F9
:1062B8007DBA00F07BBA000008B500F077FA014B10
:1062C800186008BD20E3032010B5054B03600446A1
:1062D800006900F089FB034B00221A60204610BDBC
:1062E8006C920D0024E3032010B50446FFF7ECFF81
:1062F8002046FDF7D0FE204610BD000010B504462C
:1063080007482272002284E80300E360A282A261A7
:10631800980000F061FB034B20611C60204610BD13
:106328006C920D0024E3032010B50446017A4068FE
:1063380001F004F86068044901F01DF86068034939
:10634800BDE8104001F01BB84D640D008D640D00D0
:10635800C36899423ABF036953F821000020704787
:10636800C36899423CBF036943F82120704770B560
:1063780083698BB100220125836905FA02F4234061
:1063880096B206D00E80836923EA04038361012054
:1063980070BD0132202AEFD1184670BD02292DE9BF
:1063A800F04104460FD1406803685B699847C0B262
:1063B800A082606803685B699847A38A43EA002063
:1063C800A082BDE8F081062939D1406803685B697D
:1063D80098470546606803685B699847EDB245EAE7
:1063E800002085B2606803685B69984780466068EA
:1063F80003685B6998470646606803685B69984765
:106408000746606803685B699847E3689D4216D24F
:106418005FFA88F8360248EA006006F47F460643C9
:106428003804236900F47F0030431F2D43F825000A
:1064380005D8A369012000FA05F51D43A561BDE84B
:10644800F0810000034B0146186808B1FFF7A6BFAA
:10645800704700BF24E3032007B500230193C268F7
:10646800838A934238BF026940683CBF52F82330A0
:10647800019303680422DB680DEB0201984703B01F
:106488005DF804FB024B186808B1FFF7E5BF7047D9
:1064980024E3032000F08AB900F088B908B5024B5C
:1064A8001B681B68019308BD4C02030008B5024B2A
:1064B8001B685B68019308BD4C02030008B5024BDA
:1064C8001B681B69019308BD4C02030008B5024B09
:1064D8001B685B69019308BD4C02030008B5024BB9
:1064E8001B689B69019308BD4C02030008B5024B69
:1064F8001B68DB69019308BD4C02030008B5024B19
:106508001B681B6A019308BD4C02030008B5024BC7
:106518001B689B69019308BD3802030008B5024B4C
:106528001B68DB69019308BD3802030008B5024BFC
:106538001B681B6A019308BD3802030008B5024BAB
:106548001B689B6A019308BD3802030008B5024B1B
:106558001B681B6B019308BD3802030008B5024B8A
:106568001B689B6B019308BD3802030008B5024BFA
:106578001B68DB68019308BD2802030008B5024BBD
:106588001B685B69019308BD2802030008B5024B2C
:106598001B689B69019308BD2802030008B5024BDC
:1065A8001B68DB69019308BD2802030008B5024B8C
:1065B8001B681B6A019308BD2802030008B5024B3B
:1065C8001B685B6A019308BD2802030008B5024BEB
:1065D8001B689B6A019308BD2802030008B5024B9B
:1065E8001B68DB6A019308BD2802030008B5024B4B
:1065F8001B681B6B019308BD2802030008B5024BFA
:106608001B685B6B019308BD2802030008B5024BA9
:106618001B689B6B019308BD2802030008B5024B59
:106628001B68DB6B019308BD2802030008B5024B09
:106638001B681B6C019308BD2802030008B5024BB8
:106648001B681B68019308BD3C02030008B5024B98
:106658001B68DB68019308BD3C02030008B5024BC8
:106668001B681B69019308BD3C02030008B5024B77
:106678001B685B69019308BD3C02030008B5024B27
:106688001B689B69019308BD3C02030008B5024BD7
:106698001B68DB69019308BD3C02030008B5024B87
:1066A8001B681B6A019308BD3C02030008B5024B36
:1066B8001B689B6A019308BD3C02030008B5024BA6
:1066C8001B68DB6A019308BD3C02030008B5024B56
:1066D8001B685B69019308BD6402030008B5024B9F
:1066E8001B681B6A019308BD6402030008B5024BCE
:1066F8001B689B6A019308BD6402030008B5024B3E
:106708001B689B68019308BD4802030008B5024B4B
:106718001B681B69019308BD4802030008B5024BBA
:106728001B685B69019308BD4802030008B5024B6A
:106738001B681B6B019308BD4802030008B5024B98
:106748001B685B6C019308BD4802030008B5024B47
:106758001B685B68019308BD1802030008B5024B6B
:106768001B68DB68019308BD1802030008B5024BDB
:106778001B685B69019308BD1802030008B5024B4A
:106788001B685B69019308BD6C02030008B5024BE6
:106798001B68DB69019308BD3002030008B5024B92
:1067A8001B681B6A019308BD3002030008B5024B41
:1067B8001B681B68019308BD2C02030008B5024B37
:1067C8001B689B68019308BD2C02030008B5024BA7
:1067D8001B68DB68019308BD2C02030008B5024B57
:1067E8001B685B69019308BD2C02030008B5024BC6
:1067F8001B689B69019308BD2C02030008B5024B76
:106808001B68DB69019308BD2C02030008B5024B25
:106818001B681B6A019308BD2C02030008B5024BD4
:106828001B685B6A019308BD2C02030008B5024B84
:106838001B689B68019308BD6802030008B5024BFA
:106848001B68DB68019308BD6802030008B5024BAA
:106858001B685B68019308BD6002030008B5024B22
:106868001B689B68019308BD6002030008B5024BD2
:106878001B68DB68019308BD6002030008B5024B82
:106888001B689B69019308BD6002030008B5024BB1
:106898001B68DB69019308BD6002030008B5024B61
:1068A8001B685B6B019308BD6002030008B5024BCF
:1068B8001B681B6D019308BD6002030008B5024BFD
:1068C8001B68DB69019308BD4402030008B5024B4D
:1068D8001B68DB6B019308BD4402030008B5024B3B
:1068E8001B685B68019308BD4002030008B5024BB2
:1068F8001B689B68019308BD4002030008B5024B62
:106908001B68DB68019308BD4002030008B5024B11
:106918001B681B69019308BD4002030008B5024BC0
:106928001B685B69019308BD4002030008B5024B70
:106938001B689B69019308BD4002030008B5024B20
:106948001B68DB69019308BD4002030008B5024BD0
:106958001B681B6A019308BD4002030008B5024B7F
:106968001B681B6B019308BD4002030008B5024B6E
:106978001B685B6B019308BD4002030008B5024B1E
:106988001B685B68019308BD2002030008B5024B31
:106998001B685B69019308BD2002030008B5034B1F
:1069A8001B68D3F88830019308BD0000200203005B
:1069B80008B5034B1B68D3F89430019308BD000059
:1069C8002002030008B5034B1B68D3F8A0300193DD
:1069D80008BD00002002030008B5024B1B681B68B5
:1069E800019308BD1C02030008B5024B1B685B68D5
:1069F800019308BD1C02030008B5024B1B689B6885
:106A0800019308BD1C02030008B5024B1B685B6AB2
:106A1800019308BD1C02030008B5024B1B68DB6A22
:106A2800019308BD1C02030008B5024B1B68DB6B11
:106A3800019308BD1C02030000231A464068FFF7B3
:106A48004DBF002202214068FFF758BF00221146BF
:106A58004068FFF74BBF002211464068FFF756BF5A
:106A680000231A4619464068FFF758BF00231A4604
:106A780019464068FFF75ABF002281F001014068BB
:106A8800FFF75CBF00224068FFF768BF002211468D
:106A98004068FFF76BBF002211464068FFF756BFFA
:106AA80070B58CB01446064600F08CFD0CAB002285
:106AB800114643F8302D2046FFF7C0FE014658BB6B
:106AC800009B4BB35A68022A0ED00A2A24D15C696B
:106AD800112201A802F015F906238DF8143001AD32
:106AE80004F10803183405E059693046043100F010
:106AF800ACFD11E0186859682A4603C20833A3425E
:106B08001546F7D101A906A807AD00F069FD0FCD1C
:106B1800341D0FC42B6823700098FFF787FE30469A
:106B28000CB070BD024B034A1A6000225A607047CD
:106B380028E303207C920D0037B502AC036804F803
:106B4800011DDD6B01224FF0FF332146A84703B03A
:106B580030BD10B40368DC6B4FF0FF33A4465DF81A
:106B6800044B604737B502AC036804F8011DDD6BC0
:106B7800214613460122A84703B030BD704738B5F7
:106B880043691A68002A044605DAB3F88620B3F880
:106B980084309A4201D001250BE003681B699847AD
:106BA800002814BF0125002503D123682046DB6A8D
:106BB8009847284638BD43691868C043C00F7047D6
:106BC80070470020704710B50446FDF764FA204668
:106BD80010BDFDF760BA00002DE9F0439846036840
:106BE80093B0DB6A0C4606461746984712AB002559
:106BF80043F8485D2A4629462046FFF71FFE00282D
:106C08003ADB009B002B39D05B69002B36D006A8F5
:106C180000F0D8FC009B5C696378022B01D1211D30
:106C280013E00A2B14D11122294601A802F069F8B1
:106C3800A36833BBE36823BB4FF6FF702569FFF7F2
:106C48004DFD85421DD104F1140106A800F0FDFC9C
:106C580006A800F0D7FC88B1336807ADD3F82090B8
:106C6800184B0C930FCD0DAC0FC42B6823703A460C
:106C780043460CA93046C84704461CE04FF0FF3491
:106C880019E004F1080301AD1834186859682A4658
:106C980003C20833A3421546F7D1062301A90CA85D
:106CA8000DAD8DF8143000F09BFC0FCD07AC0FC470
:106CB8002B682370CCE70098FFF7B8FD204613B087
:106CC800BDE8F08330940D007FB51646002242607F
:106CD800029203925A1C04460D4608D04FF47A7269
:106CE800B3FBF2F1029102FB11314A43039260694E
:106CF8000823009341F205026B4440F6FF710068D7
:106D0800FFF704FC002808DB6069002332462946A7
:106D18000068FFF71BFC002804DAFFF785FE03680C
:106D28006360002004B070BD10B5036804469B681A
:106D38009847A368013BA3602BB923682046DB680A
:106D4800BDE81040184710BD70B504464D69054BA5
:106D580044F8043B8C3506460FCD0FC42B682370CE
:106D6800304670BD30940D0010B54369B3F88620E5
:106D7800B3F884309A42044605D06269B2F8843088
:106D88001344187910BD03681B6998470028F4D18B
:106D98004FF0FF3010BD10B54369B3F88620B3F843
:106DA80084309A42044608D06269B2F88430591C8B
:106DB8001344A2F88410187910BD03681B6998471A
:106DC8000028F1D14FF0FF3010BDF8B543691746E0
:106DD800B3F88620B3F884309A4205460E4606D1A9
:106DE80003681B69984710B94FF0FF3414E06969CC
:106DF800B1F88430B1F88640E41ABC4228BF3C465A
:106E0800194422460431304601F070FF6A69B2F82D
:106E180084302344A2F884302046F8BD4269002318
:106E2800A2F884304269A2F8863070472DE9F04113
:106E3800984603680D468AB0DB6A064617469847A7
:106E48002B7D7469042B0CBF02200A200622012125
:106E5800FFF784FB206073691C68002C5BDB3046FD
:106E6800FFF7DCFFB8F1000F17D0002303A95FFA82
:106E780088F00393ADF81030FFF780FC002849DB59
:106E880070690623009341F20B0203AB40F6FF71D1
:106E98000068FFF73BFB00283CDB1C24224600214E
:106EA80003A801F02EFF2B7D8DF80C40042B0CD18C
:106EB800022338468DF80D30FFF718FCADF80E00A8
:106EC8006868FFF70BFC049013E00A2338468DF836
:106ED8000D30FFF70BFC05ACADF80E002B1D05F1CE
:106EE800140718685968224603C20833BB4214467F
:106EF800F7D173691C2203A91868FFF717FB00284C
:106F080008DB2C1D0FCC76698C360FC623683370CE
:106F1800012404E0044633683046DB6A984720467B
:106F28000AB0BDE8F08110B5436904461868002826
:106F380001DBFFF7F3FA63694FF0FF321A6060690B
:106F4800112200218C3001F0DCFE2046BDE8104003
:106F5800FFF764BF30B54269B2F886308BB004469B
:106F68001BB1B2F884209A4240D06369186800289F
:106F78003FDBB3F886507F2D3BD8191DC5F1800241
:106F880008232944FFF7DAFA00280CDD6369B3F80F
:106F980086200AB9A3F884206269B2F886301844BA
:106FA800A2F8860025E0FFF73FFD03680B2B20D0F1
:106FB800FFF73AFD03680B2B1BD020230025029313
:106FC8000395FFF731FD036801930E4B009302AA66
:106FD8002B460D493220FFF769FC63691868FFF7F3
:106FE8009DFA63694FF0FF321A6002E0FFF716FF5F
:106FF800BBE76269B2F88630B2F88400181A0BB0A1
:1070080030BD00BF17930D0010930D0010B500237D
:1070180004460160A0F88430A0F88630883000F07B
:10702800D1FA204610BD00004FF47A7270B50023E3
:107038008260144A43600260436183610446A02071
:107048000E46FDF724F8054610B13146FFF7DEFF7E
:107058001420FDF71CF8034628B101224260826023
:10706800094A02600561A0696561A36128B14368A6
:10707800013B43600BB9FFF757FE2046FFF7CEFEF2
:10708800204670BDCC920D00B0920D0010B54FF0A7
:10709800FF310446FFF7C8FF204610BD10B504466F
:1070A8000068002801DBFFF739FA204610BD10B54B
:1070B80004692046FFF7F2FF24B12046BDE81040DE
:1070C800FCF7E9BF10BD002211464068FFF73EBC3F
:1070D800002211464068FFF749BC00224068FFF7CC
:1070E8003DBC002281F001014068FFF727BC002366
:1070F8001A4619464068FFF719BC00231A46194674
:107108004068FFF70BBC002211464068FFF7FEBB42
:10711800002211464068FFF7E9BB002202214068BF
:10712800FFF7ECBB00231A464068FFF7D7BB10B146
:1071380003685B681847704738B504460068D0B1E3
:10714800FFF7DCFAB8B9237C1BB9206808B1FFF750
:10715800DDFA656855B1AB681BB10322294628469C
:1071680098472846FCF797FF002363602068FFF7DD
:10717800D5FA0023236038BD38B50B4B03600446AD
:10718800D0F8CC0108B1FCF788FFD4F8C4512DB170
:107198002846FFF7D1FF2846FCF77DFFA06808B115
:1071A800FFF7C5FF204638BD30930D0038B50D4CAC
:1071B8000D4B23600025022304F5E4706360A5608D
:1071C800C4F8C451C4F8C851FFF7B8FA074BC4F85B
:1071D800CC5123602046064A0649BDE8384000F0F5
:1071E80097BE00BF30E303207C920D0030930D0062
:1071F800A0DF032081710D00704710B50446FCF72D
:107208004AFF204610BD000070B5084B03600446D5
:1072180000250E4640F80C5FFFF788FA30462671C5
:10722800FFF7B4FAA560204670BD00BF64930D0057
:107238000079FFF7B3BA002211464068FFF766BB32
:10724800002211464068FFF781BB002211464068C2
:10725800FFF78CBB00224068FFF780BB002281F05B
:1072680001014068FFF76ABB00231A4619464068C7
:10727800FFF75CBB00231A4619464068FFF74EBB70
:10728800002211464068FFF731BB00220221406806
:10729800FFF734BB00231A464068FFF71FBB000006
:1072A800024B04225A60024A1A60704700E5032024
:1072B80074930D007047F8B5064615460C468F18AE
:1072C800BC4206D0336814F8011B9B6830469847C7
:1072D800F6E72846F8BD0022007CFFF767B90021D1
:1072E800007CFFF76BB90021007CFFF76FB9002124
:1072F800007CFFF773B90021007CFFF777B910B560
:107308000446FCF7C8FE204610BD000010B5044630
:107318004FF47A730846A3600021044B207461601F
:107328002360FFF783F9204610BD00BFA8930D0026
:1073380000231A461946007CFFF718B90A460023AD
:107348000121007CFFF712B913B50024007C0094DA
:10735800FFF714F9C0B202B010BD0123FFF7F4BF64
:107368000022007CFFF712B90022007CFFF716B953
:107378000121FFF7F9BF0022007CFFF747B900227F
:10738800007CFFF74BB90021007CFFF737B9704745
:1073980041747047007CFFF789B9007CFFF75EB93C
:1073A800007CFFF76BB9007CFFF760B9007CFFF742
:1073B8006DB910B50446FCF76EFE204610BD70B5D9
:1073C800457C04460E4625B9007CFFF76FF9002876
:1073D80005DD3146207CBDE87040FFF737B9284607
:1073E80070BD000010B504460846114600226260D0
:1073F8004FF47A72A260054A2260012220746274F6
:107408001A46FFF71BF9204610BD00BFD0930D00A8
:107418000023007CFFF752B90022FFF7F9BF007C78
:10742800FFF73CB938B50C4D296811F0010411D1AA
:107438002846FCF734FE68B1084A094B094821463A
:10744800FFF7D0FF2846FCF72FFE074A07490548F3
:1074580000F05EFD034838BDA0E50320A4E5032045
:107468001CE5032008E50320A0DF032097730D0027
:107478004174704770470021007CFFF72FB8012145
:10748800007CFFF72BB8007CFFF720B8007CFFF7E3
:1074980015B838B50446007C0D46FFF717F80028E4
:1074A80001DC607C20B12946207CFFF71FF8012011
:1074B80038BD007CFFF722B810B50446FCF7EBFD99
:1074C800204610BD10B50446002363604FF47A735C
:1074D800A360054B23600123084621746374114699
:1074E800FEF7DCFF204610BD00940D000022007C52
:1074F800FEF7DCBF10B514220446002101F001FCA0
:10750800204610BD30B50E4D87B001A8FFF7F2FF39
:10751800296811F0010410D12846FCF7C0FD60B1BC
:1075280001AA21460748FFF7CDFF2846FCF7BCFD16
:10753800054A0649034800F0EBFC024807B030BD95
:1075480028E603202CE60320A0DF03207D740D002D
:10755800704710B50446FCF79EFD204610BDF0B5F7
:10756800037D062B8DB00E4600F104074FF0000492
:1075780002D000F1080518E00CAD394605F8304D89
:107588002F232A460A20FFF7A1F8284601F0F4FB2A
:1075980033680246DB682946304698470FE024B135
:1075A8002E21304600F0B5F9044415F8011D0A22D1
:1075B800304600F0EAF9BD420444F0D120460DB04F
:1075C800F0BD000010B5054B0446112240F8043BFD
:1075D800002101F096FB204610BD00BF30940D003D
:1075E8000346074A10B543F8042B01F1100251F87D
:1075F800044B43F8044B9142F9D10A781A7010BD34
:1076080030940D00037D042B01D1406808E0062B5F
:107618000AD1436853B1836843B1C36833B1006981
:10762800003018BF01207047002070471846704787
:1076380010B59DF8084044EA032343EA024242EAAF
:10764800016104234160037510BD37B50D788B784F
:107658004A78C97800912946FFF7EAFF03B030BDA0
:1076680010B5034B03600446FFF7EFFF204610BD3B
:1076780030940D0010B58368044613B10322014607
:107688009847204610BD000008B50C4B33B1FFF7F2
:1076980039FF03681B699847002809DC084B63B168
:1076A800FFF7C0FE03681B699847002803DC08BD84
:1076B800AFF30080F2E7AFF3008008BD00000000E0
:1076C8000000000008B5FFF7DFFFFFF74FF8014B98
:1076D800186008BD2CE7032007B5002300931A465D
:1076E8006FF07701FFF764F903B05DF804FB000061
:1076F80007B543880A2B08D0502B09D1094B1B68C2
:107708003BB103B05DF804EB1847FFF7E5FF06E06F
:10771800002300931A466FF07701FFF749F903B089
:107728005DF804FB40E6032010B5FFF70FF80446A8
:1077380001F0F0FA074B13B12046AFF300800021A7
:107748000448FFF7C3F800210348BDE81040FFF7DD
:1077580025B900BF00000000F9760D0010B50446F9
:10776800FFF788FF204610BD10B50446FFF786F8DE
:10777800844208D01CB1BDE81040FFF76FB8BDE8DF
:107788001040FFF773B810BD70B505460E46144695
:10779800FFF774F850B144EA062040EA0540FFF7C5
:1077A80055F8E720BDE87040FFF770B870BD0000DD
:1077B8000348044A04490023836000F0A9BB00BFC2
:1077C80044E60320A0DF032065770D00826810B52A
:1077D8000AB900F0A2FBC368BDE810401847FFF7DC
:1077E8001DB8FFF713B838B5002383608B680446CB
:1077F8000D462BB102229847EB68E360AB68A360A3
:10780800204638BDF8B50C4B53F8205006460F46B5
:107818001C462DB12846FFF72DFF2846FCF73BFCF8
:107828001020FCF734FC054610B13946FFF7DBFFA2
:1078380044F826502846F8BD54E60320F0B50C4617
:1078480085B0054617461E46FEF7D8FF214628464E
:10785800FFF7D8FF0446B0B1002104238E420391FC
:107868008DF80C30A5BF9DF828308DF80E300B46EA
:1078780003AB009302463B460549A8BF8DF80D604F
:107888002846FEF7B3FF201C18BF012005B0F0BD45
:10789800D5770D00024B1A68024B1A60704700BF7B
:1078A80038DF0320E4E60320014B024A1A607047E0
:1078B800E8E6032015950D000021FFF767B8F8B535
:1078C80006460D468F180024BD420CD0336815F8C3
:1078D800011B9B6830469847002801DB0444F3E706
:1078E800002C08BF04462046F8BD70B505460C4676
:1078F800084649B101F040FA2B680246214628465D
:10790800DB68BDE87040184770BD08B5FFF7EDFFAC
:1079180008BD03689B68184738B50D210546FFF771
:10792800F8FF0A2104462846FFF7F3FF204438BD34
:1079380030B58BB00B4600218DF82410012A98BF72
:107948000A220DF12304B3FBF2F505FB123303F011
:10795800FF03092B94BF30333733DBB2214604F8D9
:1079680001392B46002DEED1FFF7BFFF0BB030BD1C
:1079780010B42AB903685DF8044B9B68C9B218476C
:10798800D2B25DF8044BFFF7D3BFFFF7F1BF38B5AC
:107998000546FFF7EDFF04462846FFF7BDFF2044E4
:1079A80038BD2DE9F04107460E4615462AB9036849
:1079B800C9B29B68BDE8F04118470A2A02D10029DC
:1079C80001DA04E0D2B2BDE8F041FFF7B1BF2D21E2
:1079D800FFF79FFF2A46044671423846FFF7A8FF83
:1079E8002044BDE8F08100002DE9F04757EC106B0A
:1079F80082460D4610EE102A3B4610EE100A394614
:107A080001F0B8F808B1484912E027F000494FF0F2
:107A1800FF32464B3046494601F0ACF868B94FF0A2
:107A2800FF32424B3046494601F086F828B94049B2
:107A38005046FFF75AFFBDE8F0874FF060423D4BD4
:107A48003046394601F08CF808B13B49F0E74FF071
:107A580060423A4B3046394601F064F80028F4D1C8
:107A6800002200233046394601F05CF840B12D2150
:107A78005046FFF74EFF07F1004304461F4600E05B
:107A880004462F494FF0000800205FFA88F39D4212
:107A980006D900222B4B00F0FDFE08F10108F4E79F
:107AA80032463B4600F01AFC0F46064601F0A0F8A5
:107AB8000A22014680465046FFF73AFF04447DB348
:107AC800404600F047FD02460B463046394600F076
:107AD80003FC06460F4650461B49FFF706FF0444C1
:107AE800184B00223046394600F0AAFD0F460646DC
:107AF80001F056F80A22014680465046FFF751FF2A
:107B08000444404600F036FD02460B4630463946EE
:107B180000F0E2FB013D15F0FF0506460F46DFD1F8
:107B28002046BDE8F08700BF3E950D00FFFFEF7FC0
:107B380048950D00FFFFEF4142950D00FFFFEFC193
:107B48000000E03F0000244046950D0038B5C9B25A
:107B58000546FFF749FF04462846FFF7DDFE2044A7
:107B680038BD0CB42DE9F04387B000AF07F13804F5
:107B7800054654F8049B3C600E4623464A461421A9
:107B8800381DFEF741FF132805D8391D2846FFF791
:107B9800ACFE044613E000F1080323F00703E846AF
:107BA800ADEB030D411C23464A4668463C60FEF790
:107BB8002BFF69462846FFF798FE0446C5461EB1C6
:107BC8002846FFF7A9FE044420461C37BD46BDE8F9
:107BD800F04302B0704710B504460068FEF704FF92
:107BE800204610BD10B50446006808B1FEF7FCFE3B
:107BF80000232360A360636010BD38B504460D46BA
:107C080000680131FEF7F8FE10B184E82100012078
:107C180038BD10B50368044613B143688B4207D2D8
:107C28002046FFF7EAFF20B1A3680BB9226813705A
:107C3800012010BD70B50E46114604461546FFF7E3
:107C4800E8FF18B92046FFF7CDFF09E02A4631467C
:107C5800A560206801F04AF82268A3680021D15481
:107C6800204670BD38B50023044603604360836036
:107C780003730D4639B1084601F07EF829460246DD
:107C88002046FFF7D7FF204638BD38B505460C46D5
:107C980041B1084601F070F8214602462846FFF730
:107CA800C9FF01E0FFF79EFF284638BD10B5002444
:107CB8000470448000294FF6FF74848007DD013981
:107CC800994209D232F811308380012301E002D1B0
:107CD8000223037010BD418010BD000070B586B04E
:107CE80016461A46002302930C9B01930D460B9BE4
:107CF800009304460A9B31462846FEF763FE334646
:107D08002A46014604A8FFF7D1FF064B0498BDF8A0
:107D1800142018609A801A689B8822602046A380E5
:107D280006B070BDECE60320044B00204FF6FF724E
:107D3800187058809A80FEF721BE00BFECE6032039
:107D4800002211464068FEF701BE00221146406835
:107D5800FEF70CBE00224068FEF700BE002281F04C
:107D680001014068FEF7EABD00231A46194640683B
:107D7800FEF7DCBD00231A4619464068FEF7CEBD63
:107D8800002211464068FEF7C1BD00221146406836
:107D9800FEF7ACBD002202214068FEF7AFBD00230C
:107DA8001A464068FEF79ABD024B03225A60024AFF
:107DB8001A607047F4E6032054950D0038B50B4D52
:107DC800296811F001040FD12846FCF768F958B169
:107DD80021460748FFF79AFA2846FCF765F9054A4D
:107DE8000549034800F094F8014838BDFCE6032033
:107DF80014E70320A0DF0320BD720D0010B50B4C63
:107E08002368DB070FD42046FCF749F958B1012154
:107E18000748FFF77BFA2046FCF746F9054A06496A
:107E2800034800F075F8024810BD00BF28E703209A
:107E380000E70320A0DF0320BD720D0070B50C4CD5
:107E48000C4E0D4D00212046FFF7DEF920460B4C65
:107E58003246294600F05CF801212046FFF7D4F9A4
:107E6800324629462046BDE8704000F051B800BFB0
:107E780030E70320A0DF032001720D0040E7032054
:107E880010B504460F48FFF7D3F928B1A4F10B0346
:107E9800022B01D8002010BDFFF790FFFFF773FAFF
:107EA80008B1012CF6D9FFF7BDFAFFF7B8FA18B1F7
:107EB800A4F10903012BEDD9232C8CBF002001204C
:107EC80010BD00BF30E70320232838B504460D460F
:107ED8000AD8FF2908D0FFF7D3FF28B12946204642
:107EE800BDE83840FEF76ABC38BD10B50446FEF759
:107EF8006DFC0438C0B2012808D92046FFF7C0FF3E
:107F080020B12046BDE81040FEF768BC002010BD37
:107F18000B460146184600F0DBBE08B5FEF77CFDAF
:107F2800184B1A68D1075CBF01221A60164B1A68F1
:107F3800D2075CBF01221A60144B1A68D0075CBFD5
:107F480001221A60124B1A68D1075CBF01221A601D
:107F5800104B1A68D2075CBF01221A600E4B1A68D0
:107F6800D0075CBF01221A600C4B1A68D1075CBFAE
:107F780001221A600A4B1A68D2075CBF01221A60F4
:107F8800704700BF6CE7032068E7032064E703201D
:107F980060E703205CE7032058E7032054E7032049
:107FA80050E70320244B1A68D0075CBF01221A60EF
:107FB800224B1A68D1075CBF01221A60204B1A684D
:107FC800D2075CBF01221A601E4B1A68D0075CBF3B
:107FD80001221A601C4B1A68D1075CBF01221A6083
:107FE8001A4B1A68D2075CBF01221A60184B1A682C
:107FF800D0075CBF01221A60164B1A68D1075CBF14
:1080080001221A60144B1A68D2075CBF01221A6059
:10801800124B1A68D0075CBF01221A60104B1A680D
:10802800D1075CBF01221A600E4B1A68D2075CBFE9
:1080380001221A60704700BF9CE7032098E70320DD
:1080480094E7032090E703208CE7032088E70320C8
:1080580084E7032080E703207CE7032078E70320F8
:1080680074E7032070E70320244B1A68D0075CBF2D
:1080780001221A60224B1A68D1075CBF01221A60DC
:10808800204B1A68D2075CBF01221A601E4B1A687F
:10809800D0075CBF01221A601C4B1A68D1075CBF6D
:1080A80001221A601A4B1A68D2075CBF01221A60B3
:1080B800184B1A68D0075CBF01221A60164B1A6861
:1080C800D1075CBF01221A60144B1A68D2075CBF43
:1080D80001221A60124B1A68D0075CBF01221A608D
:1080E800104B1A68D1075CBF01221A600E4B1A6840
:1080F800D2075CBF01221A60704700BFCCE703209B
:10810800C8E70320C4E70320C0E70320BCE7032037
:10811800B8E70320B4E70320B0E70320ACE7032067
:10812800A8E70320A4E70320A0E70320184B1A6858
:10813800D1075CBF01221A60164B1A68D2075CBFD0
:1081480001221A60144B1A68D0075CBF01221A601A
:10815800124B1A68D1075CBF01221A60104B1A68CB
:10816800D2075CBF01221A600E4B1A68D0075CBFA9
:1081780001221A600C4B1A68D1075CBF01221A60F1
:108188000A4B1A68D2075CBF01221A60704700BF09
:10819800ECE70320E8E70320E4E70320E0E7032017
:1081A800DCE70320D8E70320D4E70320D0E7032047
:1081B80051EC100BC1F30A532DE9F041A3F2FF353E
:1081C800132D0C460F4610EE106A1DDC002D43DB04
:1081D8003D4B43FA05F801EA0803034319D038A3D5
:1081E800D3E9002300F07AF80022002300F0B8FC5D
:1081F80020B1002C49DB27EA080400262346324632
:1082080043EC102BBDE8F081332D06DDB5F5806F0A
:1082180032D041EC100BBDE8F081A3F213434FF0CC
:10822800FF3828FA03F810EA080FF2D024A3D3E99C
:10823800002300F053F80022002300F091FC0028EE
:10824800DCD0002C27DB3C4626EA080623463246CB
:1082580043EC102BBDE8F08119A3D3E9002300F00B
:108268003DF80022002300F07BFC0028C6D0002C3B
:108278001CDB00263446C1E710EE102A0B4600F03E
:108288002DF841EC100BBDE8F0814FF4801343FA50
:1082980005F52F44AFE7142D10D00123C5F134059F
:1082A80003FA05F5AE1928BFFF18CCE724F0004201
:1082B800064B324318BF1C4600269FE70137C2E72A
:1082C8009C7500883CE4377EFFFF0F000000F0BF7C
:1082D80081F0004102E000BF83F0004330B54FEA6F
:1082E80041044FEA430594EA050F08BF90EA020FDC
:1082F8001FBF54EA000C55EA020C7FEA645C7FEA6F
:10830800655C00F0E2804FEA5454D4EB5555B8BF91
:108318006D420CDD2C4480EA020281EA030382EA02
:10832800000083EA010180EA020281EA0303362D94
:1083380088BF30BD11F0004F4FEA01314FF4801C67
:108348004CEA113102D0404261EB410113F0004F79
:108358004FEA03334CEA133302D0524263EB430330
:1083680094EA050F00F0A780A4F10104D5F1200ECE
:108378000DDB02FA0EFC22FA05F2801841F1000129
:1083880003FA0EF2801843FA05F359410EE0A5F1FD
:1083980020050EF1200E012A03FA0EFC28BF4CF02E
:1083A800020C43FA05F3C01851EBE37101F00045E4
:1083B80007D54FF0000EDCF1000C7EEB00006EEBF1
:1083C8000101B1F5801F1BD3B1F5001F0CD349087B
:1083D8005FEA30004FEA3C0C04F101044FEA4452D2
:1083E80012F5800F80F09A80BCF1004F08BF5FEA59
:1083F800500C50F1000041EB045141EA050130BD39
:108408005FEA4C0C404141EB010111F4801FA4F1DB
:108418000104E9D191F0000F04BF01460020B1FA30
:1084280081F308BF2033A3F10B03B3F120020CDA68
:108438000C3208DD02F1140CC2F10C0201FA0CF046
:1084480021FA02F10CE002F11402D8BFC2F1200CAB
:1084580001FA02F120FA0CFCDCBF41EA0C01904061
:10846800E41AA2BF01EB0451294330BD6FEA0404AA
:108478001F3C1CDA0C340EDC04F11404C4F1200295
:1084880020FA04F001FA02F340EA030021FA04F3A7
:1084980045EA030130BDC4F10C04C4F1200220FAFE
:1084A80002F001FA04F340EA0300294630BD21FA3C
:1084B80004F0294630BD94F0000F83F4801306BF02
:1084C80081F480110134013D4EE77FEA645C18BFF6
:1084D8007FEA655C29D094EA050F08BF90EA020F8D
:1084E80005D054EA000C04BF1946104630BD91EA85
:1084F800030F1EBF0021002030BD5FEA545C05D188
:108508004000494128BF41F0004130BD14F58004C6
:108518003CBF01F5801130BD01F0004545F0FE413A
:1085280041F470014FF0000030BD7FEA645C1ABF6F
:10853800194610467FEA655C1CBF0B46024650EAA6
:10854800013406BF52EA033591EA030F41F40021D2
:1085580030BD00BF90F0000F04BF0021704730B558
:108568004FF4806404F132044FF000054FF000012D
:1085780050E700BF90F0000F04BF0021704730B5EE
:108588004FF4806404F1320410F0004548BF4042C3
:108598004FF000013EE700BF42004FEAE2014FEA18
:1085A80031014FEA02701FBF12F07F4393F07F4FF3
:1085B80081F06051704792F0000F14BF93F07F4F25
:1085C800704730B54FF4607401F0004521F0004168
:1085D80020E700BF50EA010208BF704730B54FF0EE
:1085E80000050AE050EA010208BF704730B511F0F3
:1085F800004502D5404261EB41014FF4806404F12B
:1086080032045FEA915C3FF4DCAE4FF003025FEAAC
:10861800DC0C18BF03325FEADC0C18BF033202EB34
:10862800DC02C2F1200300FA03FC20FA02F001FA8E
:1086380003FE40EA0E0021FA02F11444C1E600BF2D
:1086480070B54FF0FF0C4CF4E06C1CEA11541DBFE0
:108658001CEA135594EA0C0F95EA0C0F00F0DEF8AB
:108668002C4481EA030621EA4C5123EA4C5350EA90
:10867800013518BF52EA033541F4801143F48013E1
:1086880038D0A0FB02CE4FF00005E1FB02E506F072
:108698000042E0FB03E54FF00006E1FB03569CF0C7
:1086A800000F18BF4EF0010EA4F1FF04B6F5007FCD
:1086B80064F5407404D25FEA4E0E6D4146EB06063F
:1086C80042EAC62141EA55514FEAC52040EA5E50C8
:1086D8004FEACE2EB4F1FD0C88BFBCF5E06F1ED872
:1086E800BEF1004F08BF5FEA500E50F1000041EBA9
:1086F800045170BD06F0004646EA010140EA020056
:1087080081EA0301B4EB5C04C2BFD4EB0C0541EA77
:10871800045170BD41F480114FF0000E013C00F38C
:10872800AB8014F1360FDEBF002001F0004170BDB0
:10873800C4F10004203C35DA0C341BDC04F11404C9
:10874800C4F1200500FA05F320FA04F001FA05F255
:1087580040EA020001F0004221F0004110EBD37022
:1087680021FA04F642EB06015EEA430E08BF20EA4E
:10877800D37070BDC4F10C04C4F1200500FA04F3F1
:1087880020FA05F001FA04F240EA020001F0004183
:1087980010EBD37041F100015EEA430E08BF20EAF6
:1087A800D37070BDC4F1200500FA05F24EEA020E3E
:1087B80020FA04F301FA05F243EA020321FA04F06D
:1087C80001F0004121FA04F220EA020000EBD37024
:1087D8005EEA430E08BF20EAD37070BD94F0000F24
:1087E8000FD101F00046400041EB010111F4801F58
:1087F80008BF013CF7D041EA060195F0000F18BF09
:10880800704703F00046520043EB030313F4801F44
:1088180008BF013DF7D043EA0603704794EA0C0FFE
:108828000CEA135518BF95EA0C0F0CD050EA410614
:1088380018BF52EA4306D1D181EA030101F0004191
:108848004FF0000070BD50EA410606BF10461946B9
:1088580052EA430619D094EA0C0F02D150EA0136C5
:1088680013D195EA0C0F05D152EA03361CBF104606
:1088780019460AD181EA030101F0004141F0FE41A5
:1088880041F470014FF0000070BD41F0FE4141F429
:10889800780170BD70B54FF0FF0C4CF4E06C1CEA29
:1088A80011541DBF1CEA135594EA0C0F95EA0C0FDE
:1088B80000F0A7F8A4EB050481EA030E52EA033599
:1088C8004FEA013100F088804FEA03334FF08055BA
:1088D80045EA131343EA12634FEA022245EA1115E7
:1088E80045EA10654FEA00260EF000419D4208BF98
:1088F800964244F1FD0404F5407402D25B084FEA45
:108908003202B61A65EB03055B084FEA32024FF4F0
:1089180080104FF4002CB6EB020E75EB030E22BF4D
:10892800B61A754640EA0C005B084FEA3202B6EB0D
:10893800020E75EB030E22BFB61A754640EA5C00BC
:108948005B084FEA3202B6EB020E75EB030E22BF4C
:10895800B61A754640EA9C005B084FEA3202B6EB4D
:10896800020E75EB030E22BFB61A754640EADC000C
:1089780055EA060E18D04FEA051545EA16754FEA6E
:1089880006164FEAC30343EA52734FEAC2025FEA8C
:108998001C1CC0D111F4801F0BD141EA00014FF01B
:1089A80000004FF0004CB6E711F4801F04BF0143EC
:1089B8000020B4F1FD0C88BFBCF5E06F3FF6AFAE08
:1089C800B5EB030C04BFB6EB020C5FEA500C50F198
:1089D800000041EB045170BD0EF0004E4EEA11311B
:1089E80014EB5C04C2BFD4EB0C0541EA045170BD22
:1089F80041F480114FF0000E013C90E645EA060E66
:108A08008DE60CEA135594EA0C0F08BF95EA0C0F93
:108A18003FF43BAF94EA0C0F0AD150EA01347FF4DB
:108A280034AF95EA0C0F7FF425AF104619462CE7B2
:108A380095EA0C0F06D152EA03353FF4FDAE104615
:108A4800194622E750EA410618BF52EA43067FF466
:108A5800C5AE50EA41047FF40DAF52EA43057FF4F6
:108A6800EBAE12E74FF0FF3C06E000BF4FF0010C01
:108A780002E000BF4FF0010C4DF804CD4FEA410C65
:108A88007FEA6C5C4FEA430C18BF7FEA6C5C1BD032
:108A980001B050EA410C0CBF52EA430C91EA030FB3
:108AA80002BF90EA020F0020704710F1000F91EA10
:108AB800030F58BF994208BF90422CBFD8176FEADE
:108AC800E37040F0010070474FEA410C7FEA6C5CAC
:108AD80002D150EA013C07D14FEA430C7FEA6C5CB3
:108AE800D6D152EA033CD3D05DF8040B704700BFDF
:108AF8008446104662468C461946634600E000BF2D
:108B080001B5FFF7B7FF002848BF10F1000F01BDFE
:108B18004DF808EDFFF7F4FF0CBF012000205DF8C9
:108B280008FB00BF4DF808EDFFF7EAFF34BF01204E
:108B380000205DF808FB00BF4DF808EDFFF7E0FFE7
:108B480094BF012000205DF808FB00BF4DF808ED38
:108B5800FFF7CEFF94BF012000205DF808FB00BF9F
:108B68004DF808EDFFF7C4FF34BF012000205DF881
:108B780008FB00BF4FEA410C7FEA6C5C02D150EA67
:108B8800013C0AD14FEA430C7FEA6C5C02D152EAFD
:108B9800033C02D14FF0000070474FF001007047CE
:108BA8004FEA410212F5001215D211D56FF478730D
:108BB800B3EB625212D94FEAC12343F0004343EAB0
:108BC800505311F0004F23FA02F018BF404270478B
:108BD8004FF00000704750EA013005D111F0004015
:108BE80008BF6FF0004070474FF00000704700BFAB
:108BF8004A0011D212F5001211D20DD56FF4787314
:108C0800B3EB62520ED44FEAC12343F0004343EA68
:108C1800505323FA02F070474FF00000704750EAB3
:108C2800013002D14FF0FF3070474FF0000070471D
:108C38004FEA4102B2F1E04324BFB3F5001CDCF176
:108C4800FE5C0DD901F0004C4FEAC0024CEA5070AE
:108C5800B2F1004F40EB830008BF20F001007047DD
:108C680011F0804F21D113F13872BCBF01F00040E0
:108C7800704741F480114FEA5252C2F11802C2F112
:108C8800200C10FA0CF320FA02F018BF40F0010093
:108C98004FEAC1234FEAD32303FA0CFC40EA0C0045
:108CA80023FA02F34FEA4303CCE77FEA625307D182
:108CB80050EA01331EBF4FF0FE4040F440007047B9
:108CC80001F0004040F0FE4040F40000704700BF53
:108CD80010B5054C13462CB10A4601460220AFF3E5
:108CE800008010BD204610BD0000000010B5431ED6
:108CF8000A44914204D011F8014B03F8014FF8E7F8
:108D080010BD02440346934202D003F8011BFAE760
:108D18007047000038B5124B1C68A36B0546D3B9E1
:108D28001820FDF759FE43F20E33A06303804AF67C
:108D3800CD33438041F2342383804EF26D63C38088
:108D48004DF6EC630381052343810B2383810122C4
:108D58000023C0E90423A36B00221D615A6138BDBA
:108D68009CDF032010F8012B11F8013B012A28BFD2
:108D78009A42F7D0D01A7047034613F8012B002AFD
:108D8800FBD1181A0138704710B5034642B111F8E3
:108D9800014B03F8014B013A002CF7D11A4400E0CB
:108DA80010BD934202D003F8014BFAE710BD000052
:108DB8001D400D0059400D0085400D0089400D00F3
:108DC8000000000074656C656D6574727953656E9A
:108DD80064007365747570004D51545463616C6C14
:108DE8006261636B006C6F6F70005B25735D252E8D
:108DF8002A730052454400475245454E00424C559F
:108E080045004157414B450041534C45455000559D
:108E18004E4B4E4F574E00736574757028290A00E3
:108E28004F6F6F70732C206E6F20424E4F30353568
:108E3800206465746563746564202E2E2E20436853
:108E480065636B20796F757220776972696E672028
:108E58006F7220493243204144445221005B2573FC
:108E68005D626E6F207265616479005B25735D7267
:108E78006762207265616479005B25735D6D71744A
:108E88007420726561647900636F6C6F7200667537
:108E98006E005B25735D207075626C69736820686D
:108EA800656C6C6F005B25735D204D5154542046F2
:108EB80041494C454420746F20636F6E6E6563743E
:108EC800005B25735D69326320736C61766520727F
:108ED80065616479005B25735D6C6F7720706F77CF
:108EE8006572207265616479005B25735D696275DE
:108EF80073207265616479005B25735D70696473C2
:108F08002072656164790073657475702820636FD9
:108F18006D706C65746520290A005B25735D636C50
:108F280069656E74206661696C656420746F20637E
:108F38006F6E6E656374004155544F4D41544943FB
:108F4800004D414E55414C006D617374657220753A
:108F580070646174656420257520746F2025750020
:108F68007B20275F74696D65273A2027256C752754
:108F78002C202774797065273A2027696D75272C6E
:108F8800202758273A20272566272C202759273AB3
:108F9800272566272C205A27203A202725662720B0
:108FA8007D00696D750062616C616E63655069640E
:108FB800207B20225F74696D65223A2022256C751A
:108FC800222C2022496E70757422203A20222566B0
:108FD800222C2022536574706F696E742220203A07
:108FE80020222566222C20224F7574707574222049
:108FF8003A2022256622207D007B20225F74696D3D
:1090080065223A2022256C75222C202274797065FD
:10901800223A22706964222C20226E616D65223A00
:109028002262616C616E6365506964222C2022495A
:109038006E70757422203A20222566222C20225335
:109048006574706F696E742220203A20222566228A
:109058002C20224F757470757422203A20222566C0
:10906800222C20224B70223A222566222C20224BC9
:1090780069223A222566222C20224B64223A222594
:1090880066222C20226D6F6465223A2225732220E5
:10909800207D0062616C616E63655069640072696D
:1090A80067687453706565642066726F6D205258E6
:1090B800203D202564006C656674537065656420E6
:1090C80066726F6D205258203D202564007B202257
:1090D8005F74696D65223A2022256C75222C202246
:1090E80074797065223A22706964222C20226E619C
:1090F8006D65223A226C656674506964222C2022C0
:10910800496E70757422203A20222566222C20226E
:10911800536574706F696E742220203A2022256688
:10912800222C20224F757470757422203A20222533
:1091380066222C20224B70223A222566222C2022DD
:109148004B69223A222566222C20224B64223A229D
:109158002566222C20226D6F6465223A222573220F
:1091680020207D006C656674506964007B20225F56
:1091780074696D65223A20256C752C2022747970EB
:1091880065223A22706964222C20226E616D652264
:109198003A227269676874506964222C2022496EE9
:1091A80070757422203A2025662C2022536574702D
:1091B8006F696E742220203A2025662C20224F7574
:1091C8007470757422203A2025662C20224B702258
:1091D8003A25662C20224B69223A25662C20224B00
:1091E80064223A25662C20226D6F6465223A222576
:1091F800732220207D007269676874506964004595
:109208007374696D61746564207072652D73636130
:109218006C653A200046696E616C207072652D732A
:1092280063616C653A200000044D515454040006F3
:109238004D514973647003424E4F3035350000007C
:109248000000000000000000D5400D00214D0D0079
:10925800B7400D0065620D008D5F0D000000000035
:1092680000000000D1620D00F1620D000000000056
:1092780000000000416A0D004B6A0D00556A0D00A0
:109288005F6A0D00696A0D00756A0D00816A0D003C
:109298008D6A0D00956A0D009F6A0D00A96A0D0080
:1092A8000000000000000000C96B0D00CF6B0D002E
:1092B800B7700D00DB6B0D00CB6B0D0000000000DC
:1092C800000000004D570D0081570D00416B0D0047
:1092D8005B6B0D005D6F0D009F6D0D00716D0D00D6
:1092E800856B0D00356E0D00E16B0D00D36D0D0023
:1092F8002F6F0D00876B0D00BF6B0D006D6B0D00A0
:10930800D16C0D00516D0D00776972696E6700723E
:10931800656376206572726F72203D2025640000B7
:1093280000000000000000002D710D0023710D00E9
:1093380019710D000F710D0003710D00F7700D000C
:10934800EB700D00E3700D00D9700D00CF700D00AB
:10935800A96A0D00000000000000000001720D0065
:1093680003720D0000000000000000009D720D0057
:1093780093720D0089720D003F720D007D720D0011
:1093880071720D0065720D005D720D0053720D0053
:1093980049720D00A96A0D000000000000000000DD
:1093A800BD720D0007730D00DF720D00BF720D0056
:1093B800E7720D00EF720D00F7720D00FF720D00DD
:1093C800000000000000000097730D00BB730D0043
:1093D800C7730D00C7780D00A3730D00AF730D00A0
:1093E800A9730D00B5730D0099730D009D730D00E1
:1093F80000000000000000007D740D00C1740D0025
:109408009B740D00C7780D0095740D007F740D00D6
:1094180087740D00BB740D008F740D0079740D00F6
:10942800000000000000000067750D0059750D0070
:109438005B750D005A00252B3033643A25303275A0
:109448000025592D256D2D25645425483A254D3A7A
:109458002553257A0061736374696D65006C6E002D
:10946800666E00636F64650064657461696C000D05
:109478000A00253031307520005D20002C2000289E
:10948800293A2000205B00636F6465203D20002599
:10949800690064657461696C73203D2000626175C0
:1094A800640053657269616C0053657269616C315F
:1094B800007479706500706172616D00636D64009D
:1094C800686E64007374726D0066696C74006C7603
:1094D8006C0061646448616E646C65720072656DED
:1094E8006F766548616E646C657200656E756D486F
:1094F800616E646C657273004A534F4E53747265A3
:10950800616D4C6F6748616E646C65720061707064
:10951800006E6F6E6500747261636500696E666FD8
:10952800007761726E006572726F720070616E69A9
:109538006300616C6C006E616E006F7666002E00D1
:10954800696E66000000000000000000A77D0D00A5
:109558009D7D0D00937D0D00897D0D007D7D0D00A5
:10956800717D0D00657D0D005D7D0D00537D0D0045
:10957800497D0D00A96A0D000000000000000000F0
:1095880000000000000000000000000000000000D3
:1095980000000000000000000000000000000000C3
:1095A80000000000000000000000000000000000B3
:1095B80000000000000000000000000000000000A3
:1095C8000000000000000000000000000000000093
:1095D8000000000000000000314D0D00C9520D00D0
:1095E80067540D0031560D0047570D00875F0D0079
:1095F800B7620D00BB620D00C1620D009D640D00D5
:10960800A1640D002D6B0D00B5710D00A9720D0040
:10961800B9770D009D780D00B1780D00317D0D00F2
:10962800B17D0D00457E0D00297F0D00AD7F0D0039
:0896380071800D0035810D0069
:10964000000000000000F0BFAC1002870000000026
:10965000000000000000F0BF5D940D00000000005D
:1096600080950D00A0950D00C0950D000000000034
:10967000000000000000000000000000478F0D0007
:1096800000000000000000000000000000000000DA
:1096900000000000000000000000000000000000CA
:1096A00000000000000000000000000000000000BA
:1096B0000000000000000000000000003CDF03206C
:1096C000FFFFFFFF00000102030405060708090A67
:1096D0000B0C0D0E0F101112131415161718191A62
:0896E0001B1C1D1E1F202800A9
:0496E800785634126A
:04000003D0004018D1
:00000001FF
