:02000002D0002C
:1040000000400D00E4AA0D00000006000C000501B0
:084010000401E70500000000B7
:04401800B09D0D004A
:1040200009480A49884208B505D0094A824202D0A7
:10403000121A05F05BFE0748074A0021121A05F024
:1040400060FE014808BD00BFF8DA032024AA0D0075
:1040500090DB032090DB0320F0E7032070B504F031
:104060009DFA074C074BE41AA40800251E46A542FA
:1040700004D056F8253098470135F8E770BD00BFE9
:1040800018AA0D00B4A90D0000F0FEBA08B500F0A2
:1040900017FCBDE8084004F043BA03F041BB03F04D
:1040A0003FBB03F045BB03F043BB0078B0FA80F0A0
:1040B00040097047012303707047704703685A68CE
:1040C00098681B6812F0010F4FEA620218BF81580E
:1040D000104418BFCB58184770470000F0B502F1E4
:1040E000080383B023F0070302AFADEB030D02AC6E
:1040F000154620460E4605F0F9FD0023635504F0F1
:104100002FF9144A144B01218DE8600004F05AFC89
:104110001249204605F026FE024610B90146FF204E
:1041200010E00F49204605F01DFE024608B9FF21A8
:1041300008E00C49204605F015FEFF22014608B1B3
:104140001146104604F06CFA642004F007FB0437B3
:10415000BD46F0BD299E0D00F79D0D00329E0D005D
:10416000369E0D003C9E0D002F2810B5044605D943
:10417000094A00210A2003F035FA01E01F2803D97B
:1041800004F01F04054B01E04FF0A043D3F81005E5
:10419000E04000F0010010BDA5740D0000030050C8
:1041A000F8B5264B264E5B688361038932681B0194
:1041B000D118D55C4B7803F01F0343EA451504463C
:1041C0002846FFF7D1FF2846FFF7CEFFA3893268C4
:1041D0001B01D118D55C4B7803F01F0343EA45154A
:1041E00007462846FFF7C0FF2846FFF7BDFF237CA0
:1041F00017F0FF0F03F00303C0B218BF43F004032E
:1042000008B143F008039A10013B22740D2B14D817
:10421000DFE803F0070A0D0A1310070710130A0D51
:104220000A076369013307E06369013B04E06369DE
:10423000023301E06369023B6361F8BD001000E0F6
:1042400098DD032010B50029B8BF49420446C9B221
:1042500001F0A6FF2046012101F07CFF10BD022ADB
:1042600038B5044605D0032A0FD0012A11D10B68B6
:1042700009E00C200D68FFF710FF034618B195E820
:10428000070083E80700236003E00C21006804F0C6
:104290002FFE002038BD000030B1044A044B012835
:1042A0000CBF184610467047024870474E9E0D00DE
:1042B000479E0D00419E0D0038B50C1E054602D1EB
:1042C000FFF7C0FF0DE004DD012101F043FFE1B283
:1042D00004E0022101F03EFF6142C9B2284601F02C
:1042E0005FFF204638BD000037B5044604F038F8BB
:1042F000054603F0DFF80A4B0A4A8DE81100012158
:10430000284604F05FFB204605F034F9064BC3E96C
:104310000001064BC3E90001204603B030BD00BFD9
:10432000D89D0D00569E0D00A0DD0320B8DC0320B3
:10433000F0B589B0044602A880E806001D460C20AE
:1043400000230F46039E0693FFF7A7FE10B10760F8
:10435000466085600C4B07930C4B06939DF84030EC
:104360000490009320469DF93C309DF8382004A924
:1043700004F0B2F9069B04461BB104A903220846C7
:104380009847204609B0F0BDBD400D005F420D00CA
:104390002DE9F0430F46044689B0164602213846FF
:1043A00004F074FD0221304604F070FD0023236008
:1043B00063606361A3614FF4FA60DFF8AC90A760BB
:1043C000E66003F06FF82389D9F800201B01D118AB
:1043D000D55C4B7803F01F0343EA45152846FFF7E9
:1043E000C3FE2846FFF7C0FEA389D9F800201B01B1
:1043F000D118D55C4B7803F01F0343EA451510F143
:104400000008284618BF4FF00108FFF7ADFE284608
:10441000FFF7AAFE18B148F002085FFA88F80025F5
:1044200084F810804FF0FF388DE82001DFF83C90D1
:10443000CDF810900595029504AA234606CA384681
:10444000FFF776FF8DE82001CDF8189007950295CB
:1044500008AA234612E906003046FFF769FF204606
:1044600009B0BDE8F08300BF98DD0320A1410D0035
:1044700007B5009313460A46012104F0A3FA03B0DE
:104480005DF804FB30B52A4C89B003F013F82368BB
:10449000C01AB0F57A7F0BD203F062FF044603F036
:1044A00009F8244A244903462046FFF7E1FF3CE08F
:1044B00003F000F82060214C23781BBB03F050FF71
:1044C000054602F0F7FF1B4A1D4903462846FFF741
:1044D000CFFF642004F042F91A4B01221B682270BE
:1044E0001321ADF81610029302213C238DF815100C
:1044F0008DE80C000DF116010DF1150306A804F06E
:104500007FFB01E00023237003F02AFF054602F041
:10451000D1FF01462078FFF7BFFE064B01900091C6
:10452000094A0121284604F04DFA09B030BD00BF08
:1045300020DC0320099E0D00669E0D00D0DD0320C7
:104540007B9E0D0010DD0320B19E0D007FB5132072
:1045500004F0ADFCD8B903F003FF044602F0AAFF53
:104560000C4B05461878FFF797FE0646132004F01B
:104570009EFC8DE860000290074B084A012120460E
:1045800004F020FA04B0BDE87040FFF77BBF04B030
:1045900070BD00BFD0DD0320E79D0D00BF9E0D0064
:1045A00013460A46012104F00DBA000008B503F0D5
:1045B000D7FE0549054AFFF7F3FF02211320BDE8A6
:1045C000084004F063BC00BFDB9E0D001A9E0D0086
:1045D0000EB410B50446C3B0224802F085F868B1A5
:1045E00046AB459A01934FF4807102A803F0B0F8EE
:1045F00002AA21461B4802F0DBF92DE003F0B0FED1
:10460000194A1A49FFF7CCFF02A802F0FBFF0299F2
:10461000144802F04DF902A804F02AFA03F0A0FEB3
:10462000114A1349FFF7BCFF0E4802F05DF868B16C
:1046300010490C4802F02FFB0F4A1049094802F0BC
:10464000B7F903F08DFE084A0D4903E003F088FE38
:10465000054A0C49FFF7A4FF43B0BDE8104003B082
:10466000704700BFB8DB0320C49D0D00E09E0D0025
:10467000FD9E0D000C9F0D00239F0D00129F0D004D
:10468000169F0D00299F0D007FB503F069FE4FF4C2
:10469000E13103F059FE03F063FE0121684A04F0A2
:1046A00091F90C21674802F07EFB28B903F058FE0F
:1046B000654904F07CF8FEE7642004F04FF803F04D
:1046C0004FFE624A6249FFF76BFF012003F098FF3B
:1046D00003F046FE5D4A5F49FFF762FF684602F05D
:1046E00091FF00995C4802F0E3F8684604F0C0F9D5
:1046F00003F036FE554A5949FFF752FF564801F07C
:10470000F3FF68B15649544802F0C5FA554A564974
:10471000514802F04DF903F023FE4C4A534903E09F
:1047200003F01EFE494A5249FFF73AFF514802F092
:104730009FFC03F015FE454A4F49FFF731FFFFF795
:1047400035FF03F00DFE414A4C49FFF729FF03F006
:104750007FFD01464A4801F01FFE03F001FE3B4A7F
:104760004849FFF71DFF03F0FBFD384A012104F023
:1047700029F94FF4C861444801F04FFC434B4448C9
:10478000002400250121C3E9004501F09FF99FEDB8
:10479000281B9FED290B3E4801F02EF932213C48A1
:1047A00001F004F93B4BC3E900453B4BC3E900452D
:1047B0003A4B00261E603A4B31461868FFF742FD1F
:1047C000384BC3E90045384B31461868FFF73AFDCE
:1047D000364B37480121C3E9004501F077F99FEDD9
:1047E000141B9FED150B324801F006F96421304887
:1047F00001F0DCF801212F4801F068F99FED0C1B56
:104800009FED0D0B2B4801F0F7F86421294801F0CA
:10481000CDF803F0A5FD0D4A2749FFF7C1FE03F0CF
:104820009FFD264A012104F0CDF804B070BD00BF01
:104830000000000000E06F400000000000E06FC0DA
:10484000459F0D00D0DC03204E9F0D00D29D0D0032
:104850008B9F0D00999F0D00B8DB0320FD9E0D007E
:104860000C9F0D00239F0D00129F0D00169F0D0041
:10487000299F0D0094DB0320A79F0D00BB9F0D0017
:10488000D8E20320CF9F0D00D8DD0320C8DC032031
:1048900030DC0320B8DC0320A0DD032050DE032041
:1048A0000CDD0320B0DB032010DC032090DD0320AF
:1048B00070DE032018DD0320DE9F0D00ED9F0D004C
:1048C0002DE9F04F2DED0C8B9BB0FFF73FFE0DF166
:1048D0004201A34802F0EFFB80B103F041FDBDF8B7
:1048E0004240054621469E4802F0D6FB23460090F2
:1048F0009C4A0121284604F065F8E8E79A4801F04F
:10490000F3FE18B1984802F09AF82DE003F028FD64
:10491000964A9749FFF744FE11A802F073FE1199D9
:10492000914801F0C5FF11A804F0A2F803F018FDAA
:104930008E4A9049FFF734FE8B4801F0D5FE68B1EE
:104940008D49894802F0A7F98C4A8D49864802F0C2
:104950002FF803F005FD854A8A4903E003F000FDC6
:10496000824A8949FFF71CFE11A98848884C02F049
:1049700019FB189804F010FED4E9002305F0C8F8DC
:104980000546002844D103F0EBFC064602F092FDF8
:104990000746189804F000FE3B46CDE900017D4A29
:1049A0000121304604F00EF89FED7B7ADDED187A98
:1049B0006B4867EE877A2946FDEEE77A17EE902A74
:1049C00002F072FB02F076FD0546189804F0E4FD53
:1049D000CDE90401179804F0DFFDCDE90201169836
:1049E00004F0DAFD2A46CDE900016C496C48FFF776
:1049F000EFFD189804F0D0FD4FF0804300220646EA
:104A00000F4604F069FC674BC4E90067C3E9000185
:104A1000654801F0CFFC02F04DFD002104466248DC
:104A200001F02AFD012105465F4801F025FD022124
:104A300006465D4801F020FD032107465A4801F073
:104A40001BFD04218046584801F016FD05218146D2
:104A5000554801F011FD06218246534801F00CFD36
:104A600007218346504801F007FD08210F904E486A
:104A700001F002FD09210E904B4801F0FDFC0E9A59
:104A80000F9B08900792069322468DE8C0032B46A1
:104A900046494748CDF814B0CDF810A0FFF798FD6F
:104AA00005214148434E444C01F0E6FCB0F5FA6F55
:104AB00040F0928001213C483170217001F0DCFC13
:104AC000A0F2DC50B0F5FA7F04DA3C4B9842B8BF54
:104AD000184601E04FF4FA7004F04CFD384D394EA1
:104AE000C5E90001D6E9002305F012F868B903F022
:104AF00037FCD5E900230121CDE90023324A03F038
:104B000061FFD5E90023C6E900230221264801F010
:104B1000B3FCA0F2DC50B0F5FA7F04DA274B9842E0
:104B2000B8BF184601E04FF4FA7004F023FD274D9A
:104B3000274EC5E90001D6E9002304F0E9FF00286B
:104B400054D103F00DFCD5E900230121CDE9002368
:104B5000204A03F037FFD5E90023C6E9002345E0EA
:104B600094DB032011A00D00B8DB0320049E0D0090
:104B7000E09E0D00FD9E0D000C9F0D00239F0D007B
:104B8000129F0D00169F0D00299F0D00D0DC032001
:104B9000B8DD032029A00D000000C84234A00D009C
:104BA00076A00D00E8DC0320D8E203207AA00D00F7
:104BB00016A10D00A8DC0320E0DC03200CFEFFFFA3
:104BC000A0DD032010DB03201BA10D00B8DC0320B7
:104BD00000DB032036A10D0033783BB105219F484F
:104BE00001F04AFCB0F5FA6F40F0EB8408219B48D5
:104BF00001F042FCB0F5FA6F2DD12378984D023BBD
:104C0000012B0CD9974B02221A7003F0A9FBD5E9AE
:104C100000230121CDE90023934A03F0D3FE0121B3
:104C20008E4801F029FCA0F2DC5004F0A3FC002225
:104C30008E4B04F005FD00228D4B04F02BFEC5E9E0
:104C4000000103F08DFBD5E900230121CDE900230C
:104C5000884A03F0B7FE03F083FB03681B6998479B
:104C6000002800F0AC8003F07BFB03685B69984789
:104C7000054603F075FB064602F01CFC7E4B7F4A9E
:104C80008DE821000121304603F09CFE332D56D0E3
:104C900034DC312D4BD04EDC202D40F090800021B3
:104CA000774800F013FF774B00260027C3E9006721
:104CB000754BC3E90067754B00211868FFF7C2FA0E
:104CC0000021734800F002FF724BC3E90067724B8A
:104CD000C3E90067714B00211868FFF7B3FA0020A1
:104CE000FFF702FB6E4B01211860654800F0EEFEF5
:104CF0000121674800F0EAFE002334E0362D26D07B
:104D00000EDC352D5BD103F02BFB054602F0D2FB08
:104D1000594A644903462846FFF7AAFB022322E0CA
:104D2000382D22D0392D4AD1FFF7ACFB47E05C4D3E
:104D300028680A3806E05A4D28680A3002E0584DC3
:104D400028684042FFF7D0FA012328600BE003F007
:104D500007FB054602F0AEFB474A53490346284687
:104D6000FFF786FB0823237029E023783D4E4F4D43
:104D7000072B06D14E4800F031FF00232B70337013
:104D80001DE0072333704B4BD3E900013D4BC3E9D2
:104D90000001494B464893ED000B01F006F9474BE3
:104DA000434893ED000B01F0FDF8454B404819686E
:104DB00001F0FEF801232B70424B00221A6003F031
:104DC0005AFC414BD3F814A003F057FC03F053FCFA
:104DD0003E4B5B690E9303F050FC02F06BFB2378B3
:104DE000013B8346072B00F2F683DFE813F0F10066
:104DF0001B007700F403F403F403C802080003F077
:104E0000AFFA044602F056FB1B4A274903462046E8
:104E1000FFF72EFB02F04EFB2D4902462D48FFF70F
:104E2000D7FBD8E30E4DD5E9000104F0B9FE0130FF
:104E3000022800F2D0830323237003F091FA044682
:104E400002F038FBD5E900230121CDE90023034618
:104E5000214A204603F0B6FDBDE300BFD8E203209F
:104E6000E8DC0320E0DC032050A10D000080564068
:104E700000407F4056A10D00049E0D00569E0D007F
:104E800070DE0320B0DD0320B0DB03200CDD032047
:104E900018DD0320C0DD032090DD032010DC03209B
:104EA00050DE032070A10D008AA10D0014DC032048
:104EB000E8DE032048DE032020DB032018DB03208C
:104EC000F8DA0320B0DC032054DE0320F0DC0320FA
:104ED000A1A10D00C4A10D00C9A10D00AA4DD5E9E5
:104EE000000104F05DFE0028B8BF40420E2810DD2E
:104EF0000223237003F034FA044602F0DBFAD5E90A
:104F000000230121CDE900230346A04A204603F0F7
:104F100059FD9F4800F062FC002859D09D4C9E49E5
:104F20009E4ED4E90023C1E900239D49C1E9002335
:104F300003F016FA074602F0BDFAD4E90023CDE9E2
:104F40000423D6E90023CDE90223D5E9002301217A
:104F5000CDE900230346934A384603F033FD02F0BF
:104F6000A9FA07468A48D5E9008996ED00BBD4E93D
:104F7000004500F025FE8648B0EE408AF0EE608ADB
:104F800000F021FE8248B0EE409AF0EE609A00F008
:104F90001DFE7F48B0EE40AAF0EE60AA00F019FEB8
:104FA000814A824B824901280CBF184610460C905A
:104FB0008DED0AAB8DED089B8DED068BCDE904459B
:104FC0008DED02BBCDE900893A467A48FFF700FB38
:104FD000794B1A681AB9794AC2F800A0BFE0C2EB4F
:104FE0000B08B8F1000F40F3BC80744F744E386862
:104FF0004EF66023C0EB0A00584304F0BBFA0446A7
:1050000040460D4604F0B6FA00226E4B04F018FB41
:1050100002460B462046294604F03CFCC6E9000146
:10502000694800F0DBFB35460F97002800F09980B7
:1050300002F040FA584F654C0646634897ED009BD6
:1050400094ED00AB95ED008B00F0BAFD5E48B0EE3C
:1050500040BAF0EE60BA00F0B6FD5B48B0EE40CA70
:10506000F0EE60CA00F0B2FD5748B0EE40DAF0EE64
:1050700060DA00F0AEFD4C4B4C4A554901280CBF9C
:1050800010461846A046534C0C90324652488DEDBF
:105090000ADB8DED08CB8DED06BB8DED04AB8DED00
:1050A000029B8DED008BFFF793FAD8E90023D4E93A
:1050B000000104F013F930A3D3E90023B9460646F2
:1050C0000F4604F02FFD58B12DA3D3E9002330463D
:1050D000394604F045FD30B929A7D7E9006702E059
:1050E00025A7D7E900673946C4E90067304604F0D0
:1050F00057FD3A4B01461868FFF7DEF803F030F928
:10510000D8E90023CDE90623D9E90023CDE904231A
:10511000D5E900230121CDE90223CDF800B0304BC1
:10512000304A03F04FFC02F0C5F9D4E900232E49C0
:10513000CDE9002302462D48FFF74AFA03F010F9A3
:10514000D4E900230121CDE90223CDF800B0244B9E
:10515000274A03F037FC0F9BC3F800A0164BC3F897
:1051600000B0244B1E68002E48D1234A0E991160CE
:1051700024E200BFAFF300800000000000E06F40B9
:105180000000000000E06FC0E8DC0320E6A10D0095
:1051900030DC032018DC0320B8DC0320C8DC03204B
:1051A000A0DD032000A20D000AA00D0000A00D004C
:1051B00053A20D00EDA20D00C0DC0320D4DD0320BE
:1051C00028DC032000C0924070DE0320B0DD032005
:1051D000F8A20D00B0DB03208FA30D000CDD03202F
:1051E000049E0D0097A30D00CBA30D0013A40D008A
:1051F0001DA40D00A8DD0320ACDC0320C6EB0B06CC
:10520000002E40F3E881DFF82C930E9BD9F80000C4
:10521000AF4F181A4EF66023584304F0ABF904461A
:1052200030460D4604F0A6F90022AA4B04F008FA15
:1052300002460B462046294604F02CFBC7E9000134
:10524000A54800F0CBFA3D46002800F0C48102F0EA
:1052500031F9A24EA24C07469F4896ED009B94ED73
:1052600000AB95ED008B00F0ABFC9B48B0EE40BA74
:10527000F0EE60BA00F0A7FC9748B0EE40CAF0EE3E
:1052800060CA00F0A3FC9448B0EE40DAF0EE60DAB9
:1052900000F09FFC934B944A944901280CBF1046A0
:1052A0001846A046924C0C903A4692488DED0ADB87
:1052B0008DED08CB8DED06BB8DED04AB8DED029B26
:1052C0008DED008BFFF784F9D8E90023D4E90001C4
:1052D00004F004F87AA3D3E90023B2460F46064649
:1052E00004F020FC58B178A3D3E9002330463946B6
:1052F00004F036FC30B974A7D7E9006702E070A764
:10530000D7E900673946C4E90067304604F048FC35
:10531000794B01461868FEF7CFFF02F0CBF8D4E9CD
:1053200000237649CDE9002302467548FFF750F97E
:1053300003F016F8D8E90023CDE90623DAE90023C3
:10534000CDE90423D5E900230121CDE90223CDF8DD
:1053500000B06C4B6C4A03F035FB03F001F8D4E964
:1053600000230121CDE90223CDF800B0654B674A47
:1053700003F028FB0E9BC9F80030654B1EE1654B1E
:105380001D681DB9644AC2F800A017E1451B002D35
:1053900040F32181DFF88091604ED9F800004EF68D
:1053A0006023C0EB0A00584304F0E4F8074628469F
:1053B000884604F0DFF80022464B594D04F040F9CE
:1053C00002460B463846414604F064FAC6E900013D
:1053D0005448DFF8648100F043FCCDF83890B146C2
:1053E00000284ED0504B00261E7002F0B9FF074631
:1053F0004C4800F085FD4B48B0EE408AF0EE608AE4
:1054000000F09AFD4748B0EE409AF0EE609A00F046
:10541000B1FD3C4B454ACDF800B08DED060B0121A6
:1054200038468DED049B8DED028B03F0CBFA267090
:1054300000220023D5E9000103F050FF20A3D3E9A7
:10544000002306460F4604F06DFB58B11EA3D3E9B6
:1054500000233046394604F083FB30B91AA7D7E958
:10546000006702E016A7D7E900673946C5E900677B
:10547000304604F095FB0146D8F80000FEF71CFF0B
:10548000A9E02B4CD5E90001D4E9002303F026FF65
:105490000BA3D3E9002306460F4604F043FB002884
:1054A0004CD009A3D3E900233046394604F058FB19
:1054B000002846D104A7D7E9006742E0AFF3008097
:1054C0000000000000E06F400000000000E06FC03E
:1054D000C8DD032000C0924018DD0320A0DD0320BA
:1054E000C0DD03200AA00D0000A00D0035A40D00B2
:1054F00090DD0320BFA40D0010DC0320C8A40D0024
:1055000011A50D00049E0D001CA50D0051A50D0058
:10551000A8DD0320C0DC0320D4DD032028DC032029
:10552000B0DB0320E8DE032014DC03206AA50D00B5
:10553000B0DD0320ACDC03200CDD032030A7D7E96D
:1055400000673946C5E90067304604F029FB01468B
:10555000D8F80000FEF7B0FE02F002FFD4E9002305
:10556000CDE906231E4BD3E90023CDE90423D9E975
:1055700000230121CDE90223CDF800B0194B1A4ACE
:1055800003F020FA01F096FFD5E900231749CDE991
:10559000002302461648FFF71BF802F0E1FED5E9AA
:1055A00000230121CDE90223CDF800B00D4B114AB3
:1055B00003F008FA0E9BC3F800A00F4BC3F800B02D
:1055C00009E0002528463570FEF78EFE0B4B25704E
:1055D0001860FFF70BBB1BB0BDEC0C8BBDE8F08F68
:1055E000B8DC0320049E0D00A3A50D00CBA30D0085
:1055F00013A40D001DA40D00C0DC032050DE032009
:105600000000000000E06F4010B51021044603F0D8
:105610006FFC204610BD000070B52DED068B524B7F
:10562000524E534D82B000249FED458B1C609FED80
:1056300046AB01F05FFFB0EE482AF0EE682AB0EE0C
:105640004A1AF0EE6A1A9FED429B4A4BB0EE490AA5
:10565000F0EE690A1860324600942946464B4748E6
:1056600000F06AFAB0EE482AF0EE682AB0EE4A1A64
:10567000F0EE6A1AB0EE490AF0EE690A0094404B67
:10568000404A4149414800F057FA324629464048CD
:10569000404D00F09FFCB0EE482AF0EE682A9FEDE6
:1056A0002E1B9FED2F0B3C4B00943C4A3C493D4840
:1056B0003D4C00F041FA082206213C48FEF768FE06
:1056C000042205213A48FEF763FE6021204600F0DF
:1056D00017FD0321204600F0D9FC364B0421186049
:1056E000204600F0D3FC344B344C1860282237217C
:1056F000284601F00BFB22463149284603F0EAFB1D
:1057000003F068FB2F4D0A2301461022284601F0C2
:1057100099FC28462C4D2D49224603F0DBFB2C4BEF
:105720002C4940F25B72284600F0F6FE2A492246D8
:10573000284602B0BDEC068BBDE8704003F0CABB42
:1057400000000000000000009A9999999999B93FCA
:10575000FCA9F1D24D62D03F000000000000E03F04
:10576000000000000000004010DD0320B0DD032039
:1057700028DC032098DD0320B8DC032070DE032042
:10578000A0DD0320C0DD0320C8DD032018DD0320D9
:10579000E8DE0320D0DC0320C8DC032018DC032073
:1057A000E8DC032030DC0320D8DD0320F0DC03201C
:1057B00054DE03200CDD032010DC032090DB0320EB
:1057C000D9400D0094DB0320B8DB032011700D00DD
:1057D000DD400D0008DB03209D6C0D002DE9F04F2E
:1057E00090F8705087B004460DB900256FE001F0C5
:1057F00061FE236CA26D0390C31A9342F5D3636BD1
:10580000E16BD3E90089D1E9000142464B4603F040
:1058100063FDD4E90823CDE9040103F011FFD4E9C5
:10582000122303F05BFDD4E91AAB06460F46C4E928
:10583000126752465B4604F093F910B1C4E912AB0B
:105840000EE094ED187B304653EC172B39468DED66
:10585000007B04F067F918B19DED007B84ED127BAD
:10586000D4E90623DDE9040103F0EAFED4E91223BA
:1058700003F034FDD4E9142306460F46404649465A
:1058800003F02AFDD4E90A2303F0DAFE02460B46B0
:105890003046394603F020FD06460F4602460B46C9
:1058A0005046594604F03EF950B9D4E918AB304699
:1058B00052465B46394604F035F908B9B246BB4654
:1058C000A36BC3E900ABC4E91489039B2364284696
:1058D00007B0BDE8F08F00002DE9F34755EC104B01
:1058E00082460022002310EE100A294659EC118B43
:1058F00057EC126B04F016F9002851D10022002356
:105900004046494604F00EF9002849D10022002300
:105910003046394604F006F9002841D1CAE9028927
:10592000CAE90467CAE90045DAF8580003F012FE34
:1059300000221D4B03F0AEFFCAE90645CDE9000188
:1059400002460B464046494603F07AFE80468946A9
:10595000DDE9002330463946CAE9088903F09AFF99
:10596000DAF8303006460F46012BCAE90A6717D12C
:1059700022462B460020002103F0AEFC4246CAE935
:1059800006014B460020002103F0A6FC3246CAE97E
:1059900008013B460020002103F09EFCCAE90A01F1
:1059A00002B0BDE8F08700BF00408F40F8B50D1E83
:1059B000044620DD284603F0DDFD0646A06D0F46B7
:1059C00003F0C8FD02460B463046394603F062FF3D
:1059D00002460B4606460F46D4E9080103F030FEA6
:1059E0003246C4E908013B46D4E90A0103F052FFFC
:1059F000C4E90A01A565F8BD2DE9F84F55EC104B37
:105A000057EC116B824611EE102A3B4610EE100A3D
:105A1000294604F09BF8002833D19AF87030CAE97F
:105A20001845CAE91A6763B3DAF838B0DBE90089C8
:105A3000304642464B46394604F074F810B1CBE983
:105A4000006708E042464B462046294604F088F8A5
:105A500008B1CBE90045DAE91267DAE91A453046C0
:105A600022462B46394604F07BF840B9DAE918455E
:105A7000304622462B46394604F054F808B1CAE9AC
:105A80001245BDE8F88F2DE9D043836BD3E9006759
:105A9000C0E91267436BD0E91A89D3E900230446B1
:105AA000C0E91423394642464B46304604F058F8C4
:105AB00040B9D4E91889304642464B46394604F08D
:105AC00031F808B1C4E91289BDE8D08338B54B1E5E
:105AD0005D425D4190F8703083F001039D420446C1
:105AE00001D1FFF7D0FF84F8705038BD38B590F879
:105AF000703004460D46D3B1036B994217D0D0E9FC
:105B000006230021002003F0E7FBD4E90823C4E9C1
:105B100006010020002103F0DFFBD4E90A23C4E9D9
:105B200008010020002103F0D7FBC4E90A01256326
:105B300038BD00000000000010B52DED068BB0EE62
:105B4000408AF0EE608AB0EE419AF0EE619AC3634B
:105B50000023826380F8703000220023C0E91823FC
:105B6000B0EE42AAF0EE62AA13A3D3E90023C0E983
:105B70001A2364230446836541639DF82010FFF7D0
:105B8000B5FFB0EE4A2AF0EE6A2AB0EE491AF0EEFE
:105B9000691AB0EE480AF0EE680A2046FFF79CFE4C
:105BA00001F088FCBDEC068BA36DC01A2064204672
:105BB00010BD00BFAFF300800000000000E06F40A8
:105BC00090ED000B704790ED020B704790ED040BC9
:105BD000704790F87000704701F08CBC002380F88B
:105BE0002430704700000000D0B504468368D0E937
:105BF000F601C3E90001D4E9F4231046194603F085
:105C00006DFB0022144B03F01BFDD4E9F223064682
:105C10000F46D4E9F00103F05FFB0DA3D3E90023A5
:105C200003F00EFD02460B463046394603F032FEC5
:105C3000E36AC4E9F801A06AC01A03F08BFC0022F1
:105C4000064B03F027FEC4E9FA01D0BDAFF3008094
:105C50006E861BF0F92109400000104000408F4083
:105C60002DE9F74FD0F8B8230023092A824680F89F
:105C7000BD3307DD90F8242022B180F82430FFF7EF
:105C8000B3FF2FE101F016FCDAF83030DAF83420F7
:105C9000C31A9342834601D2002028E1DAF8043087
:105CA000CAF83000D3E900459AF8243001228AF876
:105CB000BD23D3B9CAE9F045CAE9F245CAE90445AA
:105CC000DAF80860CAF83C30CAF8B8338AF8BC334E
:105CD0008AF82420D6E90023DAE9F401CAE9F62398
:105CE00003F0FCFAC6E9000111E0DAE9F0232046EE
:105CF000294603F035FF08B1CAE9F045DAE9F22395
:105D00002046294603F00EFF08B1CAE9F245DAE958
:105D10000467DAE90689304642464B46394603F0C5
:105D2000DDFA02460B462046294603F019FF40B132
:105D3000DAE9F423DAE9F601DAF8086003F0CCFADC
:105D400014E042464B463046394603F0C5FA024657
:105D50000B462046294603F0E5FE48B1DAE9F42374
:105D6000DAE9F601DAF8086003F0B8FAC6E90001EA
:105D7000DAF8387001230AEBC7068AF800308AF88F
:105D8000013007F1FF384836B8F1000F28DB16ED77
:105D9000047B9AF800308DED007B5BB153EC172B40
:105DA000204629464FF0010903F0DAFE00B981468A
:105DB0008AF800909AF801305BB1DDE900232046B3
:105DC00029464FF0010903F0ADFE00B981468AF87B
:105DD00001909DED007B08F1FF3826ED027BD3E7B3
:105DE000082FCAE910457FF757AF9AF80030BBB1CA
:105DF000DAF83C3013B90123CAF83C30DAF83C3009
:105E0000013308D10123CAF83C308AF8BC33DAF8F0
:105E10002830CAF82C30CAF828B0DAF8B8331CE0B9
:105E20009AF80130EBB1DAF83C301BB94FF0FF3390
:105E3000CAF83C30DAF83C20012A0AD14FF0FF338F
:105E4000CAF83C30DAF8B8338AF8BC230133CAF810
:105E5000B833DAF8B833092B03DC0AEBC303C3E920
:105E6000DA459AF8BC33002B3ED0DAF8B843022C5E
:105E70003ADD0AEBC404D4E9D667D4E9D801324646
:105E80003B4603F029FA03F08BFE80EAE075D4E983
:105E9000D423A5EBE0753946304603F01DFA03F034
:105EA0007FFE0028B8BF40422844401003F062FB48
:105EB000DAE9F22304460D46DAE9F00103F00CFAC0
:105EC0000DA3D3E9002303F0BBFB02460B4620469B
:105ED000294603F027FE38B15046FFF785FE002320
:105EE0008AF82430012002E000208AF8BC0303B0C5
:105EF000BDE8F08FAFF300809A9999999999A93FDD
:105F000008B5036A012B03D107A3D3E9002302E0FC
:105F100007A3D3E90023D0E9F80103F091FB41EC9A
:105F2000100B08BDAFF30080333333333333E33F1B
:105F30009A9999999999D93F10B5036A012B04460A
:105F400003D14FF033320A4B02E007A3D3E9002319
:105F5000D4E9F80103F074FBD4E9FA2303F09AFCC6
:105F600041EC100B10BD00BFB81E85EB51B8DE3FF1
:105F70003333F33F10B5036A012B04460BD14FF0C6
:105F80003332074BD0E9F80103F05AFBD4E9FA2386
:105F900003F056FB01E00020002141EC100B10BD86
:105FA0003333B33F80EDF40B704780ED060B704741
:105FB000002902DD182906DC00E001218900FA230E
:105FC000816343637047642383630A2359434163B6
:105FD000704700000023D0B5036280F82430094FD9
:105FE000094B8260002600224160C0E90667C0E9D3
:105FF000F4230A210446FFF7DBFF01F05BFA20637C
:106000002046D0BD0000E03F00003E4001F072BAE3
:1060100000231A466C3000F0D0B870B506460C4626
:1060200006F16C0502F0B0FE02F05CF8284600F0C4
:106030002DF907EE904A7480B8EE670A284600F002
:1060400031F900240023E1B21A462846013400F059
:10605000B4F8102CF6D170BDB2F5805F134600F194
:106060006C0026BF00234FF48052002200F0A5B838
:1060700010B41AB95DF8044BFFF7CABF00234FF400
:1060800080526C305DF8044B00F097B8042930B5AD
:106090002DD80139C9B20C2303FB0102147B0CBBC0
:1060A000117301EB410200EB8202906069B101299A
:1060B0000FD0022910D0032915BF092306230A2473
:1060C000052414BF0825072509E009230A2408250B
:1060D00005E00B240D2502E0032304240D46157171
:1060E000547193710C2303FB0100043030BD002078
:1060F00030BD0022426002728270427002707047AE
:1061000037B5031D0D46044600F134011846FFF76C
:10611000F0FF0C338B42F9D1002384F8443084F82B
:106120004C30A4F8423084F8603084F86830A4F829
:106130005E30402104F16C0000F03DF825702946E6
:1061400001A800F038F89DF8043084F86C3020463F
:1061500003B030BD022938B504460D460AD00429E3
:1061600013D001291BD181784068FFF751FF2A46DF
:10617000617805E041784068FFF74AFFA178012285
:106180006068BDE83840FFF773BF41784068FFF7AB
:106190003FFFA1786068BDE83840FFF739BF38BDE0
:1061A0000A0101784068FFF757BF01F0A3B90368FF
:1061B000C9B29B68184701707047F8B50746154685
:1061C0001C460E4602F0E0FD397801F0C8FF02F0EF
:1061D000DBFD062101EB8601FFF7E9FF02F0D4FDAC
:1061E0002946FFF7E4FF02F0CFFD290AFFF7DFFFA2
:1061F00002F0CAFD2146FFF7DAFF02F0C5FD210AD1
:10620000FFF7D5FF02F0C0FDBDE8F84001F0AFBFD9
:1062100038B504460D4602F0B7FD217801F09FFF26
:1062200002F0B2FD036829469B68984702F0ACFD76
:1062300001F09DFF02F0A8FD0122217801F08CFF02
:1062400002F0A2FD03685B699847C0B238BD70B523
:10625000064614460D4602F097FD317801F07FFFA7
:1062600002F092FD036829469B68984702F08CFD76
:10627000036821469B68984702F086FDBDE87040A0
:1062800001F075BF00221146FFF7E1BF10B50446CB
:1062900002F07AFD01F026FF2046BDE81040FFF72E
:1062A000F1BF0000DFED2E7A87EE800A70B504465C
:1062B0002DED028BB7EE008A30EE488A02F050F8DE
:1062C000284902F074FA02F04BF8B0EE480A0221B5
:1062D00002F069FB18EE100A03F05EF9224B00226F
:1062E00002F0FCFF41EC100B02F062FF51EC100BCE
:1062F00003F07EFCC6B202F033F81C4902F057FAF4
:1063000002F02EF80A223146054602F063FA2846CA
:1063100002F054FA00212046FFF77AFF00F06F02E6
:10632000054642F0100220460021FFF790FF32465A
:106330002046FE21FFF78BFF2A4600212046FFF76B
:1063400086FF052002F00AFABDEC028B65F05E02C2
:106350002046D2B20021BDE87040FFF778BF00BFF1
:1063600020BCBE45E8A50D000000E03FFEA50D00E5
:1063700001F0C0B8042310B503704160044601F079
:1063800099F80023A06084F82C3084F82D30A4F80C
:10639000423084F8443010BD38B50C4605464FF401
:1063A000E131204601F04EFF21462846BDE8384045
:1063B000FFF7E0BFF8B504460026042560680368CF
:1063C0001B699847002856DD01F074F8A368A060A7
:1063D000C31A022B606888BF267003685B69984700
:1063E0002278C3B2032AE9D8DFE802F0020E2126A0
:1063F000202B3ED8DA1EDB43A4F8423084F82C6010
:1064000084F82D20012315E094F82C104A1C214417
:10641000D2B284F82C200B73B4F84210CB1AA4F833
:10642000423094F82D309342C8D1022302E084F820
:10643000443003232370C1E7000294F84430B4F8D9
:10644000422000F47F401844824212D1237B402B2B
:106450000FD122460123977B507B03F0FE010233CC
:106460002144DBB240EA0720152BC88502F1020265
:10647000F1D12570A2E7F8BD09299ABF00EB4100D0
:10648000C08D0020704701F035B8000038B5846930
:106490000A4B036005467CB16368013B63605BB9EE
:1064A000236820469B689847A368013BA3601BB9FB
:1064B00023682046DB689847284638BDACA60D0007
:1064C00010B50446FFF7E2FF20461C2102F010FD44
:1064D000204610BD38B51D46059B036300230446C6
:1064E000436302B1826419B104F1380002F01AFB6F
:1064F000049B2365069BE069A4F84C50FF2BB8BFB2
:10650000FF23A4F8543008B1FDF7CDFDB4F85400D2
:10651000FDF7C5FDE06138BD2DE9FF4104460025CA
:10652000174698460E4601F079FCE5610A4904F1E8
:10653000380002F0E4FAFF2302930F230093204671
:10654000A564CDF804803B4632462946FFF7C2FFDA
:10655000204604B0BDE8F081D6A80D0010B5044671
:10656000204601F0BFFB0028FAD0204601F063FA74
:10657000C0B210BD2DE9F0470546C4698846FFF753
:10658000EDFF2070EB6993F800A04FF001090AF0CD
:10659000F00A00274E462846FFF7E0FFEB699855C2
:1065A00000F07F0313FB09F31F44741C0306A4B21D
:1065B000BFB24FEAC91901D52646ECE7631EBAF10E
:1065C000300F88F8003013D12846D5F81C80FFF72B
:1065D000C5FF08F804002846F41CD5F81C800236D4
:1065E000FFF7BCFFB6B2A4B208F80600022300E031
:1065F00000231B1B9EB2A3199BB29F420BD92846B6
:10660000FFF7ACFFB5F85430A34284BFEB691855CF
:106610000134A4B2EFE7B5F85400A0422CBF2046E5
:106620000020BDE8F087F7B507468E461E461D469A
:10663000002402A905F07F032144ED0918BF43F0AF
:106640008003013401F8043CE4B2002DF1D1C4F11F
:106650000403D11802F803E0A54206DA2B1B01A8B7
:106660001344285C58710135F6E7721C2244384601
:1066700001F037F9054600F01DFF0134786234441B
:10668000A8B2231A5842584103B0F0BD10B5C369EF
:10669000E0221A70C36900225A7004460222C169BE
:1066A00001F01FF9204601F005FB00F003FF6062D6
:1066B000A06210BD0233F0B59BB20D466C1A15F8FE
:1066C000016BA4B23EB1B0F854709F4203D95C1C78
:1066D000D654A3B2F2E7191B0A44211202F8021C95
:1066E00002F8014C1846F0BD38B5054601F00FF927
:1066F000002814BF0124002402D1284601F0DAFA50
:10670000204638BD2DE9F04387B004468946174638
:106710001E46DDF83880FFF7E7FF0546002840F009
:10672000BD80A16C39B90346B4F84C20A16B20465A
:1067300001F0C4F909E0684601F0C0FE2B46B4F848
:106740004C206946204601F03BFA002800F0A28068
:10675000012323849DF84C30042B15D1524B18682B
:106760009A88ADF804200090E2699B7900988DF832
:106770000630531DC2F80500BDF804109DF8062030
:106780009A7199800C2312E0484BD4F81CC0186809
:1067900059681B7A6A4603C213706B4603CBCCF868
:1067A0000500CCF8091013788CF80D300E23B8F1E1
:1067B000000F0AD09DF840209DF83C10520142F095
:1067C000060242EAC102D2B200E002229DF848105D
:1067D00009B902F0FD022FB116B942F0800201E0C2
:1067E00042F0C002E169CA54226DE169581C1212DC
:1067F0000A549A1CE169206D88540333E2694946C2
:106800002046FFF757FFB8F1000F0BD00346E269AF
:1068100041462046FFF74EFFE269119903462046A4
:10682000FFF748FF67B10346E26939462046FFF7A4
:1068300041FF2EB10346E26931462046FFF73AFF99
:10684000431F9BB2E26910212046FFF7ECFE00F0E7
:1068500031FE4FF47A766062A062204601F042FA7F
:1068600040B900F027FEA36AC01A236D7343984213
:10687000F3D90FE069462046FFF77CFE042809D1D2
:10688000E369DE7836B900F015FE0125A06284F8D0
:106890002C6004E0204601F00DFA00E000252846B7
:1068A00007B0BDE8F08300BF10A60D0017A60D00CD
:1068B0007FB50423059301230493002303930293DC
:1068C000019300931A46FFF71DFF07B05DF804FB24
:1068D0002DE9F14F0D9E9DF828809DF82C509DF8D4
:1068E000307004468B4691469A46FFF7FDFE00281D
:1068F0004CD0B4F85420E069002103F002FA0523DB
:10690000E26959462046FFF7D5FE6B1E012B12D8CF
:10691000238CE26901339BB223841B121354411C64
:1069200089B2E369228C5A54023080B21EB1238CA2
:106930005A1C22843380002291B283188A459BB26C
:106940000AD9B4F854609E4202F1010204D919F840
:106950000160E169CE54EFE7B8F1000F0CBF3021C0
:1069600031210FB141F00801022D02D141F00401A3
:1069700003E0012D08BF41F00201053BE2699BB233
:10698000204601B0BDE8F04FFFF74DBE01B0BDE8B5
:10699000F08F1FB5089C0394002402949DF81C40BE
:1069A00001949DF818400094FFF792FF04B010BDC9
:1069B0007FB5054610460E46144603F0DDF9002368
:1069C0000293019300932246034631462846FFF77F
:1069D000E0FF04B070BD38B504460D46FFF784FEF5
:1069E00090B1E36962221A70E36902225A70E36986
:1069F0002A129A70E369DD700422E169204600F0F2
:106A000070FF003018BF012038BD38B504460D4670
:106A1000FFF76AFE90B1E36972221A70E3690222FD
:106A20005A70E3692A129A70E369DD700422E16901
:106A3000204600F056FF003018BF012038BD2DE978
:106A4000F04F83B000AF0446FFF74EFE81460028AA
:106A500000F0F68000F02EFD226D4FF47A73534360
:106A6000A26A821A9A42054603D8626A821A93423F
:106A700017D294F82C302BB1204601F01BF94FF0BF
:106A80000009DDE0E269C0211170E2695370E1693B
:106A90000222204600F025FF01236562A56284F8EA
:106AA0002C30204601F01EF9002800F0C980F91DA5
:106AB0002046FFF75FFD0246002800F0C180E36931
:106AC000A562187800F0F00130297DD1D4F830B0FB
:106AD000BBF1000F00F0B48097F807C003EB0C0087
:106AE000EA46817890F801E001EB0E2E1FFA8EFE47
:106AF0000EF1080121F00701ADEB010D6846002100
:106B00008EB2B64506D90CEB01061E44F678465403
:106B10000131F5E7002100F80E101E7806F0060698
:106B2000022E0CF10301CCEB02021ED17144CEEB1C
:106B3000020213F801801944053A497801EB08284C
:106B40000CF1050171441944D847E36940221A70D9
:106B5000E3695E70E3691FFA88F84FEA28229A70A9
:106B6000E369042283F8038020E0042E24D17144D9
:106B7000CEEB020213F801801944053A497801EB83
:106B800008280CF1050171441944D847E3695022E3
:106B90001A70E36902225A70E3691FFA88F84FEA13
:106BA00028229A70E369324683F80380E16920461F
:106BB00000F097FE656205E0033A7144CEEB0202F5
:106BC0001944D847D5463BE0502908D19978DB785D
:106BD00003EB012189B22046FFF7FDFE30E040299A
:106BE0000CD0602908D19978DB7803EB012189B2B8
:106BF0002046FFF70AFF23E070290DD1616BF9B140
:106C0000042A1DD110F0060F1AD19878DB7803EB17
:106C1000002080B2884713E0902911D0C0290AD102
:106C2000D0221A70E36900225A70E16902222046DC
:106C300000F057FE04E0D02904BF002384F82C3074
:106C400048460C37BD46BDE8F08F70B504460E4689
:106C50001546FFF749FDE8B1238C01339BB203B918
:106C600001232384238CE2691B125371E369228C74
:106C70009A71E269314607232046FFF71BFDE3695D
:106C80001D54031FE26920469BB28221BDE870407B
:106C9000FFF7C9BC70BD0022FFF7D7BF10B504468F
:106CA000FFF722FD10B12046FFF7F0FCE06908B1C4
:106CB000FDF7F9F904F1380001F0DAFE2046FFF79C
:106CC000E5FB204610BD00F015BC000038B50C46B1
:106CD000054628220021204603F013F80B2209491B
:106CE000204603F051F800230122E372E260AA6813
:106CF000636200232261A3610322E361024B6261AC
:106D0000236238BD20A60D000AD7233C10B5024CE3
:106D100004608160427110BD30A60D0070B506465A
:106D200014460D4602F030F8717901F018FA02F0BD
:106D30002BF8036829469B68984702F025F80368FA
:106D400021469B68984702F01FF801F010FA0120D5
:106D500070BD08B50A4601733D21FFF7DFFF1E2015
:106D6000BDE8084001F0FABC38B504460D4602F013
:106D70000BF8617901F0F3F902F006F8036829468F
:106D80009B68984702F000F801F0F1F901F0FCFF70
:106D90000122617901F0E0F901F0F6FF03685B6917
:106DA0009847C0B238BD38B50D46044601F0ECFF37
:106DB00001F098F900212046FFF7D6FFA02809D15D
:106DC00020460021FFF7C5FF20223F212046FFF784
:106DD000A5FF0BE04FF47A7001F0C0FC00212046C3
:106DE000FFF7C2FFA028EBD0002038BD00212046CD
:106DF000FFF7BAFFA02803D00A2001F0AFFCF5E7A7
:106E0000322001F0ABFC00223E212046FFF786FF36
:106E10000A2001F0A3FC002207212046FFF77EFF95
:106E200000223F212046FFF779FF0A2001F096FC5F
:106E300029462046FFF78DFF142001F08FFC01202A
:106E400038BDF8B5054616461C460F4601F09CFFB6
:106E5000697901F084F901F097FF036839469B686E
:106E6000984701F091FF01F082F901F08DFF224671
:106E7000697901F071F9013C751E3444A54207D0CF
:106E800001F082FF03685B69984705F8010FF5E799
:106E90000120F8BDF7B50D4617460021182204461B
:106EA00002F02FFF00230093ADF80430284606239C
:106EB0006A463946FFF7C5FF9DF800309DF801008E
:106EC0009DF803609DF8055043EA00209DF80230CC
:106ED00043EA06269DF80430142F43EA052500B244
:106EE00036B22DB223D003D8082F37D00E2F04E0AE
:106EF000282F33D02E2F31D01A2F49D102F03AFB50
:106F00000022254B02F09CFBC4E90001304602F050
:106F100031FB0022204B02F093FBC4E9020128461A
:106F200002F028FB00221C4B02F08AFB2EE002F04C
:106F300021FB0022194B02F0ADFCC4E900013046F0
:106F400002F018FB0022154B02F0A4FCC4E9020178
:106F5000284602F00FFB0022104B15E002F00AFB5E
:106F600000220F4B02F096FCC4E90001304602F00B
:106F700001FB00220A4B02F08DFCC4E90201284605
:106F800002F0F8FA064B002202F084FCC4E9040186
:106F9000204603B0F0BD00BF0000B03F00208C4091
:106FA0000000594070B50C46242686B0054632468E
:106FB0000021204602F0A5FE2660AB686360032333
:106FC000A36000F077FA1A22206129466846FFF78D
:106FD00061FFDDE9000102F02BFE6061DDE90201E5
:106FE00002F026FEA061DDE9040102F021FEE0616D
:106FF000012006B070BD00F07DBA00F07BBA000041
:1070000008B500F077FA014B186008BD20E30320B3
:1070100010B5054B03600446006900F089FB034B83
:1070200000221A60204610BD4CA60D0024E3032068
:1070300010B50446FFF7ECFF20461C2101F058FF75
:10704000204610BD10B5044607482272002284E88D
:107050000300E360A282A261980000F061FB034B91
:1070600020611C60204610BD4CA60D0024E30320C7
:1070700010B50446017A406801F03AF860680449A6
:1070800001F078F860680349BDE8104001F076B877
:107090008D710D00CD710D00C36899423ABF03692F
:1070A00053F8210000207047C36899423CBF036930
:1070B00043F82120704770B583698BB10022012508
:1070C000836905FA02F4234096B206D00E808369E4
:1070D00023EA04038361012070BD0132202AEFD12D
:1070E000184670BD02292DE9F04104460FD14068D1
:1070F00003685B699847C0B2A082606803685B69F7
:107100009847A38A43EA0020A082BDE8F0810629BF
:1071100039D1406803685B69984705466068036831
:107120005B699847EDB245EA002085B26068036864
:107130005B6998478046606803685B6998470646C4
:10714000606803685B6998470746606803685B6925
:107150009847E3689D4216D25FFA88F8360248EAFB
:10716000006006F47F4606433804236900F47F007C
:1071700030431F2D43F8250005D8A369012000FAEC
:1071800005F51D43A561BDE8F0810000034B0146F4
:10719000186808B1FFF7A6BF704700BF24E30320BB
:1071A00007B500230193C268838A934238BF0269FE
:1071B00040683CBF52F82330019303680422DB6827
:1071C0000DEB0201984703B05DF804FB024B186811
:1071D00008B1FFF7E5BF704724E3032000F08AB948
:1071E00000F088B908B5024B1B681B68019308BD05
:1071F0004C02030008B5024B1B685B68019308BD95
:107200004C02030008B5024B1B681B69019308BDC3
:107210004C02030008B5024B1B685B69019308BD73
:107220004C02030008B5024B1B689B69019308BD23
:107230004C02030008B5024B1B68DB69019308BDD3
:107240004C02030008B5024B1B681B6A019308BD82
:107250004C02030008B5024B1B689B69019308BDF3
:107260003802030008B5024B1B68DB69019308BDB7
:107270003802030008B5024B1B681B6A019308BD66
:107280003802030008B5024B1B689B6A019308BDD6
:107290003802030008B5024B1B681B6B019308BD45
:1072A0003802030008B5024B1B689B6B019308BDB5
:1072B0003802030008B5024B1B68DB68019308BD68
:1072C0002802030008B5024B1B689B69019308BDA7
:1072D0002802030008B5024B1B68DB69019308BD57
:1072E0002802030008B5024B1B681B6A019308BD06
:1072F0002802030008B5024B1B685B6A019308BDB6
:107300002802030008B5024B1B689B6A019308BD65
:107310002802030008B5024B1B68DB6A019308BD15
:107320002802030008B5024B1B681B6B019308BDC4
:107330002802030008B5024B1B685B6B019308BD74
:107340002802030008B5024B1B689B6B019308BD24
:107350002802030008B5024B1B68DB6B019308BDD4
:107360002802030008B5024B1B681B6C019308BD83
:107370002802030008B5024B1B681B6D019308BD72
:107380002802030008B5024B1B681B68019308BD67
:107390003C02030008B5024B1B68DB68019308BD83
:1073A0003C02030008B5024B1B681B69019308BD32
:1073B0003C02030008B5024B1B685B69019308BDE2
:1073C0003C02030008B5024B1B689B69019308BD92
:1073D0003C02030008B5024B1B68DB69019308BD42
:1073E0003C02030008B5024B1B681B6A019308BDF1
:1073F0003C02030008B5024B1B689B6A019308BD61
:107400003C02030008B5024B1B68DB6A019308BD10
:107410003C02030008B5024B1B685B69019308BD81
:107420006402030008B5024B1B681B6A019308BD88
:107430006402030008B5024B1B689B6A019308BDF8
:107440006402030008B5024B1B689B68019308BDEA
:107450004802030008B5024B1B681B69019308BD75
:107460004802030008B5024B1B685B69019308BD25
:107470004802030008B5024B1B685B6C019308BD12
:107480004802030008B5024B1B689B6C019308BDC2
:107490004802030008B5024B1B685B68019308BDF6
:1074A0001802030008B5024B1B68DB68019308BD96
:1074B0001802030008B5024B1B685B69019308BD05
:1074C0001802030008B5024B1B685B69019308BDF5
:1074D0006C02030008B5024B1B68DB69019308BD11
:1074E0003002030008B5024B1B681B6A019308BDFC
:1074F0003002030008B5024B1B681B68019308BDEE
:107500002C02030008B5024B1B689B68019308BD61
:107510002C02030008B5024B1B68DB68019308BD11
:107520002C02030008B5024B1B685B69019308BD80
:107530002C02030008B5024B1B689B69019308BD30
:107540002C02030008B5024B1B68DB69019308BDE0
:107550002C02030008B5024B1B681B6A019308BD8F
:107560002C02030008B5024B1B685B6A019308BD3F
:107570002C02030008B5024B1B689B68019308BDF1
:107580006802030008B5024B1B68DB68019308BD65
:107590006802030008B5024B1B685B68019308BDD5
:1075A0006002030008B5024B1B689B68019308BD8D
:1075B0006002030008B5024B1B68DB68019308BD3D
:1075C0006002030008B5024B1B689B69019308BD6C
:1075D0006002030008B5024B1B68DB69019308BD1C
:1075E0006002030008B5024B1B685B6B019308BD8A
:1075F0006002030008B5024B1B681B6D019308BDB8
:107600006002030008B5024B1B68DB69019308BDEB
:107610004402030008B5024B1B68DB6B019308BDF5
:107620004402030008B5024B1B685B68019308BD68
:107630004002030008B5024B1B689B68019308BD1C
:107640004002030008B5024B1B68DB68019308BDCC
:107650004002030008B5024B1B681B69019308BD7B
:107660004002030008B5024B1B685B69019308BD2B
:107670004002030008B5024B1B689B69019308BDDB
:107680004002030008B5024B1B68DB69019308BD8B
:107690004002030008B5024B1B681B6A019308BD3A
:1076A0004002030008B5024B1B681B6B019308BD29
:1076B0004002030008B5024B1B685B6B019308BDD9
:1076C0004002030008B5024B1B685B68019308BDCC
:1076D0002002030008B5024B1B685B69019308BDDB
:1076E0002002030008B5034B1B68D3F888300193D0
:1076F00008BD00002002030008B5034B1B68D3F847
:107700009430019308BD00002002030008B5034B2C
:107710001B68D3F8A030019308BD000020020300CD
:1077200008B5024B1B681B68019308BD1C020300CF
:1077300008B5024B1B685B68019308BD1C0203007F
:1077400008B5024B1B689B68019308BD1C0203002F
:1077500008B5024B1B685B6A019308BD1C0203005D
:1077600008B5024B1B68DB6A019308BD1C020300CD
:1077700008B5024B1B68DB6B019308BD1C020300BC
:1077800000231A464068FFF74DBF002202214068DF
:10779000FFF758BF002211464068FFF74BBF002299
:1077A00011464068FFF756BF00231A461946406845
:1077B000FFF758BF00231A4619464068FFF75ABF23
:1077C000002281F001014068FFF75CBF00224068A1
:1077D000FFF768BF002211464068FFF76BBF002229
:1077E00011464068FFF756BF2DE9F043002495B0DD
:1077F00016460D46074600F013FE214620220CA82F
:10780000009402F07EFA40230C9321466B460CAAAA
:107810003046FFF7B7FE0446002844D10246012156
:107820006868FFF717FF0221804622466868FFF765
:1078300011FF009E81462146002E34D0002932D10E
:107840007368022B02D00A2B09D02AE0B8F1000F8E
:1078500027D071693846043100F025FE20E0B9F1E7
:10786000000F1ED07469112201A802F04AFA062303
:107870008DF8143001AD04F1080318341868596804
:107880002A4603C20833A3421546F7D101A906A828
:1078900007AD00F0D3FD0FCD3C1D0FC42B68237046
:1078A0000121F669C8E70098FFF764FE384615B075
:1078B000BDE8F083024B034A1A6000225A60704709
:1078C00028E303205CA60D0037B502AC036804F87A
:1078D000011DDD6B01224FF0FF332146A84703B0A5
:1078E00030BD10B40368DC6B4FF0FF33A4465DF885
:1078F000044B604737B502AC036804F8011DDD6B2B
:10790000214613460122A84703B030BD704738B561
:1079100043691A68002A044605DAB3F88620B3F8EA
:1079200084309A4201D001250BE003681B69984717
:10793000002814BF0125002503D123682046DB6AF7
:107940009847284638BD43691868C043C00F704740
:1079500070470020704710B51421044601F0C8FAA2
:10796000204610BDFCF79DBB7FB516460022426045
:10797000029203925A1C04460D4608D04FF47A72C4
:10798000B3FBF2F1029102FB11314A4303926069A9
:107990000823009341F205026B4440F6FF71006832
:1079A000FFF758FC002808DB6069002332462946AF
:1079B0000068FFF76FFC002804DAFFF7D9FE0368C0
:1079C0006360002004B070BD10B5036804469B6876
:1079D0009847A368013BA3602BB923682046DB6866
:1079E000BDE81040184710BD70B504464D69054B01
:1079F00044F8043B8C3506460FCD0FC42B6823702A
:107A0000304670BD00A80D0010B54369B3F886205C
:107A1000B3F884309A42044605D06269B2F88430E3
:107A20001344187910BD03681B6998470028F4D1E6
:107A30004FF0FF3010BD10B54369B3F88620B3F89E
:107A400084309A42044608D06269B2F88430591CE6
:107A50001344A2F88410187910BD03681B69984775
:107A60000028F1D14FF0FF3010BDF8B5436917463B
:107A7000B3F88620B3F884309A4205460E4606D104
:107A800003681B69984710B94FF0FF3414E0696927
:107A9000B1F88430B1F88640E41ABC4228BF3C46B5
:107AA000194422460431304602F020F96A69B2F8DE
:107AB00084302344A2F884302046F8BD2DE9F043F9
:107AC0009846036893B0DB6A0D460646174698470A
:107AD00012AB002443F8484D224621462846FFF7C2
:107AE00051FD814600283DD1009B002B56D05B699B
:107AF000002B53D006A800F093FC009B5C696378D0
:107B0000022B01D1211D13E00A2B14D11122494669
:107B100001A802F0F6F8A36833BBE36823BB4FF675
:107B2000FF702569FFF77EFC85421DD104F1140129
:107B300006A800F0B8FC06A800F092FC00282DD0A2
:107B4000336807ADD3F82090184B0C930FCD0DACD4
:107B50000FC42B6823703A4643460CA93046C847E9
:107B600081461BE0A14619E004F1080301AD183479
:107B7000186859682A4603C20833A3421546F7D14C
:107B8000062301A90CA80DAD8DF8143000F056FCA9
:107B90000FCD07AC0FC42B682370CCE70098FFF71C
:107BA000E9FC484613B0BDE8F08300BF00A80D0013
:107BB00042690023A2F884304269A2F886307047F7
:107BC0002DE9F0411E4603680C468AB0DB6A054683
:107BD00017469847237DD5F81480042B0CBF02204C
:107BE0000A2006220121FFF75DFBC8F800006B693F
:107BF0001B68002B18DB2846FFF7DAFFD6B10023FD
:107C000003A9F0B20393ADF81030FFF75BFC58B94D
:107C100068690623009341F20B0203AB40F6FF7143
:107C20000068FFF717FB28B12B682846DB6A0024A1
:107C300098473BE01C263246002103A802F061F879
:107C4000237D8DF80C60042B0CD1022338468DF86F
:107C50000D30FFF7EFFBADF80E006068FFF7E2FBB9
:107C6000049013E00A2338468DF80D30FFF7E2FB4D
:107C700005AEADF80E00231D04F11407186859680D
:107C8000324603C20833BB421646F7D16B691C2249
:107C900003A91868FFF7EEFA0028C5D104340FCC09
:107CA0006D698C350FC523682B70012420460AB0FE
:107CB000BDE8F08110B5436904461868002801DB6F
:107CC000FFF7D0FA63694FF0FF321A606069112242
:107CD00000218C3002F015F82046BDE81040FFF777
:107CE00067BF000030B54269B2F886308BB00446F9
:107CF0001BB1B2F884209A4240D06369186800280A
:107D00003FDBB3F886507F2D3BD8191DC5F18002AB
:107D100008232944FFF7B6FA00280CDD6369B3F89D
:107D200086200AB9A3F884206269B2F88630184424
:107D3000A2F8860025E0FFF71BFD03680B2B20D07F
:107D4000FFF716FD03680B2B1BD0202300250293A1
:107D50000395FFF70DFD036801930E4B009302AAF4
:107D60002B460D493220FFF745FC63691868FFF781
:107D700079FA63694FF0FF321A6002E0FFF718FFEB
:107D8000BBE76269B2F88630B2F88400181A0BB00B
:107D900030BD00BFF7A60D00F0A60D0010B5002302
:107DA00004460160A0F88430A0F88630883000F0E6
:107DB00037FB204610BD00004FF47A7270B50023E7
:107DC0008260144A43600260436183610446A020DC
:107DD0000E46FCF762F9054610B13146FFF7DEFFAB
:107DE0001420FCF75AF9034628B101224260826050
:107DF000094A02600561A0696561A36128B1436811
:107E0000013B43600BB9FFF7DFFD2046FFF7D0FED3
:107E1000204670BDACA60D0090A60D0010B54FF029
:107E2000FF310446FFF7C8FF204610BD10B50446D9
:107E30000068002801DBFFF715FA204610BD10B5D9
:107E400004692046FFF7F2FF24B12046BDE8104048
:107E5000FCF727B910BD002211464068FFF71ABC95
:107E6000002211464068FFF725BC00224068FFF75A
:107E700019BC002281F001014068FFF703BC002318
:107E80001A4601214068FFF7F5BB00231A46194640
:107E90004068FFF7E7BB002211464068FFF7DABBF6
:107EA000002211464068FFF7C5BB0022022140684E
:107EB000FFF7C8BB00231A464068FFF7B3BB38B5CD
:107EC000054688B104684CB1A3681BB10322214662
:107ED000204698471021204601F00AF82846142130
:107EE000BDE8384001F004B838BD10B103685B68E4
:107EF0001847704710B503680446BBB15868FFF7D0
:107F0000A1FA78B923685A7C12B95868FFF7A2FA27
:107F100023685868FFF7A6FA20680023236028B179
:107F2000FFF7CDFF206808B1FFF7C9FF204610BD5D
:107F300038B50446D0F8C40108B1FCF7B4F8D4F859
:107F4000C00108B1FFF79EFAD4F8BC5135B12846FC
:107F5000FFF7D0FF0421284600F0CAFF206808B1CF
:107F6000FFF7C3FF204638BD10B5044B044640F868
:107F7000083BFFF7DDFF204610BD00BF10A70D0036
:107F800038B50E4C0E4B23600025022304F5E47037
:107F90006360A560C4F8C451C4F8C851FFF76AFA19
:107FA000084BC4F8CC5184F8D05123602046064ACF
:107FB0000649BDE8384000F08DBF00BF30E3032024
:107FC0005CA60D0010A70D0090DB0320697F0D005B
:107FD00010B5044601700846FFF77CFA0023636081
:107FE000204610BD0078FFF77DBA00221146406898
:107FF000FFF730BB002211464068FFF74BBB002261
:1080000011464068FFF756BB00224068FFF74ABBA5
:10801000002281F001014068FFF734BB00231A46BB
:1080200019464068FFF726BB00231A4619464068E8
:10803000FFF718BB002211464068FFF7FBBA002289
:1080400002214068FFF7FEBA00231A464068FFF796
:10805000E9BA0000024B04225A60024A1A607047D3
:1080600004E5032044A70D007047F8B50646154601
:108070000C468F18BC4206D0336814F8011B9B686D
:1080800030469847F6E72846F8BD0022007CFFF707
:1080900029B90021007CFFF72DB90021007CFFF7F2
:1080A00031B90021007CFFF735B90021007CFFF7D2
:1080B00039B910B51421044600F01AFF204610BD4E
:1080C00010B50446002363604FF47A73A360044B39
:1080D0002174084623601146FFF744F9204610BD7D
:1080E00078A70D0000231A461946007CFFF7E2B876
:1080F0000A4600230121007CFFF7DCB870B50C466E
:1081000086B0142506462A46002101A801F0F9FD93
:1081100023788DF8083063680393E36804930022A2
:10812000237A307CADF8045001A90593FFF722F9BA
:1081300006B070BD1FB500338DF800104FF064011C
:10814000039118BF0123694601928DF80830FFF7AB
:10815000D5FF05B05DF804FB0123FFF7EBBF00225C
:10816000007CFFF7AFB80022007CFFF7B3B8012115
:10817000FFF7F9BF0022007CFFF7E4B80022007C83
:10818000FFF7E8B80021007CFFF7D4B870474174CE
:10819000704708B5007CFFF72DF920EAE07008BDB4
:1081A00008B5007CFFF7FEF820EAE07008BD08B5CE
:1081B000007CFFF707F930EA200028BF4FF0FF30BE
:1081C00008BD08B5007CFFF7F5F830EA200028BFAD
:1081D0004FF0FF3008BD007CFFF7FCB810B514214C
:1081E000044600F085FE204610BD70B5457C04466F
:1081F0000E4625B9007CFFF7FDF8002805DD314665
:10820000207CBDE87040FFF7C5B8284670BD00006F
:1082100010B5044608461146002262604FF47A7297
:10822000A260054A22600122207462741A46FFF798
:10823000A9F8204610BD00BFA0A70D000023007CB8
:10824000FFF7E0B80022FFF7F9BF007CFFF7CAB8DC
:1082500038B50C4D296811F0010411D12846FBF7FF
:1082600024FF68B1084A094B09482146FFF7D0FFAF
:108270002846FBF71FFF074A0749054800F02AFE7A
:10828000034838BDA4E50320A8E5032020E503202A
:108290000CE5032090DB03208D810D0041747047B5
:1082A000704708B50021007CFEF7BCFF30EA2000D3
:1082B00028BF4FF0FF3008BD08B50121007CFEF754
:1082C000B1FF30EA200028BF4FF0FF3008BD08B5ED
:1082D000007CFEF79FFF20EAE07008BD08B5007C37
:1082E000FEF790FF20EAE07008BD007CFEF7AABF11
:1082F00010B51421044600F0FBFD204610BD38B532
:108300000446007C0D46FEF785FF002801DC607CFA
:1083100028B12946207CFEF78DFF20EAE07038BDA9
:1083200010B50446002363604FF47A73A360054BD5
:10833000236001230846217463741146FEF752FF3F
:10834000204610BDD0A70D000022007CFEF752BFD2
:1083500010B514220446002101F0D3FC204610BDC4
:1083600030B50E4D87B001A8FFF7F2FF296811F074
:10837000010410D12846FBF798FE60B101AA2146FE
:108380000748FFF7CDFF2846FBF794FE054A06494C
:10839000034800F09FFD024807B030BD2CE60320E3
:1083A00030E6032090DB0320A1820D00704710B55A
:1083B0001821044600F09CFD204610BDF0B5037D59
:1083C000062B8DB00E4600F104074FF0000402D0DA
:1083D00000F1080518E00CAD394605F8304D2F23A3
:1083E0002A460A20FFF716F8284601F0C5FC336834
:1083F0000246DB682946304698470FE024B12E211B
:10840000304600F0D8F9044415F8011D0A22304620
:1084100000F0E0F9BD420444F0D120460DB0F0BDBB
:1084200010B5054B0446112240F8043B002101F031
:1084300068FC204610BD00BF00A80D000346074A97
:1084400010B543F8042B01F1100251F8044B43F826
:10845000044B9142F9D10A781A7010BD00A80D00A2
:10846000037D042B01D1406808E0062B0AD1436844
:1084700053B9836843B9C36833B90069003018BF82
:1084800001207047002070470120704710B59DF80B
:10849000084044EA032343EA024242EA016104231A
:1084A0004160037510BD37B50D788B784A78C9786F
:1084B00000912946FFF7EAFF03B030BD10B5034B2A
:1084C00003600446FFF7EFFF204610BD00A80D0033
:1084D00010B58368044613B103220146984720462D
:1084E00010BD000008B50C4B33B1FFF739FF03682E
:1084F0001B699847002809DC084B63B1FFF7A8FE09
:1085000003681B699847002803DC08BDAFF30080AF
:10851000F2E7AFF3008008BD00000000000000009B
:1085200008B5FFF7DFFFFEF7C5FF014B186008BD78
:108530003CE703200248034A0349121A01F0D6BB64
:1085400000F4032004F4032020AA0D0007B5002343
:1085500000931A466FF07701FFF7CEF803B05DF88D
:1085600004FB000007B543880A2B08D0502B09D123
:10857000094B1B683BB103B05DF804EB1847FFF7EC
:10858000E5FF06E0002300931A466FF07701FFF73E
:10859000B3F803B05DF804FB44E6032038B5104C93
:1085A000104D2368AB42104B0CBF012200221A7001
:1085B00002D0FFF7BFFF2560FEF76CFF044601F015
:1085C000A9FB0A4B13B12046AFF3008000210748F6
:1085D000FFF720F800210648BDE83840FFF782B8D1
:1085E00000F403201E1C279A48E603200000000028
:1085F00065850D0010B50446FFF76AFF204610BDE3
:1086000010B50446FEF7DEFF844208D01CB1BDE879
:108610001040FEF7C7BFBDE81040FEF7CBBF10BD4E
:1086200070B505460E461446FEF7CCFF50B144EA3D
:10863000062040EA0540FEF7ADFFE720BDE87040A8
:10864000FEF7C8BF70BD00000348044A0449002378
:10865000836000F03FBC00BF4CE6032090DB0320AA
:10866000F5850D00826810B50AB900F054FCC368A6
:10867000BDE810401847FEF775BFFEF76BBF38B571
:10868000002383608B6804460D462BB10222984775
:10869000EB68E360AB68A360204638BDF8B50D4BCE
:1086A00053F8205006460F461C4635B12846FFF7C2
:1086B0000FFF1021284600F01BFC1020FBF7EDFCFB
:1086C000054610B13946FFF7DAFF44F82650284630
:1086D000F8BD00BF5CE60320F0B50C4685B005464A
:1086E00017461E46FEF72EFF21462846FFF7D6FF07
:1086F0000446C8B1002104238E4203918DF80C304A
:10870000A5BF9DF828308DF80E300B4603AB0093C3
:1087100002463B460749A8BF8DF80D602846FEF784
:1087200009FF08B1002002E0201C18BF012005B09D
:10873000F0BD00BF65860D00024B1A68024B1A603F
:10874000704700BF28DB0320ECE60320014B024A00
:108750001A607047F0E60320A5A80D000021FEF77F
:10876000B9BFF8B506460D468F180024BD420CD09F
:10877000336815F8011B9B6830469847002801DBD9
:108780000444F3E7002C08BF04462046F8BD70B54A
:1087900005460C46084649B101F0EEFA2B68024640
:1087A00021462846DB68BDE87040184770BD08B513
:1087B000FFF7EDFF08BD03689B68184738B50D212A
:1087C0000546FFF7F8FF0A2104462846FFF7F3FFA6
:1087D000204438BD30B58BB00B4600218DF82410F5
:1087E000012A98BF0A220DF12304B3FBF2F505FB21
:1087F000123303F0FF03092B94BF30333733DBB25E
:10880000214604F801392B46002DEED1FFF7BFFFBA
:108810000BB030BD2DE9F04757EC106B82460D468A
:1088200010EE102A3B4610EE100A394601F0A2F96C
:1088300008B14E4912E027F000494FF0FF324C4B8F
:108840003046494601F096F968B94FF0FF32484B7F
:108850003046494601F070F928B946495046FFF7BD
:1088600096FFBDE8F0874FF06042434B30463946F3
:1088700001F076F908B14149F0E74FF06042404B12
:108880003046394601F04EF90028F4D10022002389
:108890003046394601F046F940B12D215046FFF7E8
:1088A0008AFF07F1004304461F4600E004463549AD
:1088B0004FF0000800205FFA88F39D4206D900229D
:1088C000314B00F0E7FF08F10108F4E732463B4680
:1088D00000F004FD0F46064601F08AF90A2201461F
:1088E00080465046FFF776FF0444E5B3404600F06B
:1088F00031FE02460B463046394600F0EDFC064696
:108900000F4650462149FFF742FF044400221E4B08
:108910003046394600F094FE06460F4601F040F915
:10892000B0F1000907DA2D215046FFF744FFC9F1E5
:108930000001804602E049464FF000080A225046F6
:10894000FFF748FF40440444484600F013FE024647
:108950000B463046394600F0BFFC013D15F0FF05DF
:1089600006460F46D2D12046BDE8F0870EA90D007D
:10897000FFFFEF7F18A90D00FFFFEF4112A90D00C7
:10898000FFFFEFC10000E03F0000244016A90D00EA
:1089900038B5C9B20546FFF73DFF04462846FFF744
:1089A0000DFF204438BD38B5044610EE100A0D46C0
:1089B00000F0F2FD41EC100B29462046BDE838409E
:1089C000FFF7E6BF0CB42DE9F04387B000AF07F125
:1089D0003804054654F8049B3C600E4623464A463C
:1089E0001421381DFEF7B4FE132805D8391D28467A
:1089F000FFF7CDFE044613E000F1080323F0070360
:108A0000E846ADEB030D411C23464A4668463C60F0
:108A1000FEF79EFE69462846FFF7B9FE0446C546A6
:108A20001EB12846FFF7CAFE044420461C37BD4647
:108A3000BDE8F04302B0704710B50446006808B1C5
:108A4000FEF720FD204610BD10B5064C0023204641
:108A50002360FEF70FFD2046034A0449BDE810409D
:108A600000F038BAF4E6032090DB0320398A0D00C9
:108A700010B504460068FEF75BFE204610BD10B539
:108A80000446006808B1FEF753FE00232360A3608C
:108A9000636010BD38B504460D4600680131FEF72D
:108AA0004FFE10B184E82100012038BD10B50368E5
:108AB000044613B143688B4207D22046FFF7EAFF12
:108AC00020B1A3680BB922681370012010BD70B5E6
:108AD0000E46114604461546FFF7E8FF18B9204632
:108AE000FFF7CDFF09E02A463146A560206801F076
:108AF000FDF82268A3680021D154204670BD38B526
:108B00000023044603604360836003730D4639B15C
:108B1000084601F031F9294602462046FFF7D7FF03
:108B2000204638BD38B505460C4641B1084601F02F
:108B300023F9214602462846FFF7C9FF01E0FFF767
:108B40009EFF284638BD10B50446006818B1FEF7F0
:108B5000EFFD0023236010BD10B50446FFF7F3FFBF
:108B6000204610BD38B5B1F9043083800B460D4660
:108B700053F8062FC0F806209B8843810446FFF770
:108B8000E2FF2B6813B1236000232B60204638BD21
:108B9000B1F9043010B50BB90A689AB10C685CB130
:108BA000A288012A03D0042A06D1022205E0A48962
:108BB0004C818A710B8105E004220B814FF6FF7313
:108BC0008A714B8151F8063F03608B88838010BD0A
:108BD00010B500240470448000294FF6FF7484808F
:108BE00007DD0139994209D232F81130838001231F
:108BF00001E002D10223037010BD418010BD0000CE
:108C0000F0B58BB017461A46129B01930E4600240E
:108C1000119B0294054600933946109B3046FEF79F
:108C200075FD3B463246014605A8FFF7D1FF079484
:108C3000ADF820400D4C9DF81410BDF91620BDF87C
:108C400018308DF82210204607A9ADF82420ADF881
:108C50002630FFF787FF07A8FFF775FF2846214654
:108C6000FFF796FF28460BB0F0BD00BFF8E60320E3
:108C700010B5094C00204FF6FF732060A080A07152
:108C800020816381FEF71EFD2046044A0449BDE8A9
:108C9000104000F01FB900BFF8E6032090DB03206E
:108CA000598B0D00002211464068FEF7F3BC0022EC
:108CB00011464068FEF7FEBC00224068FEF7F2BC99
:108CC000002281F001014068FEF7DCBC00231A4657
:108CD00019464068FEF7CEBC00231A461946406884
:108CE000FEF7C0BC002211464068FEF7B3BC00226C
:108CF00011464068FEF79EBC002202214068FEF744
:108D0000A1BC00231A464068FEF78CBC024B03222C
:108D10005A60024A1A60704704E7032024A90D0034
:108D200070B5044614252A46094E002100F0E9FFDB
:108D3000258020253146A5602561284600F0DAF817
:108D400031466060284600F0D5F8E060204670BDEE
:108D500050A90D0070B5044614252A46094E00217D
:108D600000F0CFFF258020253146A56025612846EB
:108D700000F0C0F831466060284600F0BBF8E060C3
:108D8000204670BD50A90D0030B50E4D296811F078
:108D9000010487B013D12846FBF787F978B101A801
:108DA000FFF7BEFF01AA21460748FFF789F92846C9
:108DB000FBF780F9054A0649034800F08BF80248A2
:108DC00007B030BD0CE7032024E7032090DB03202D
:108DD00069800D0010B50E4C2368DB0786B013D4F4
:108DE0002046FBF762F978B101A8FFF7B3FF01AAAB
:108DF00001210848FFF764F92046FBF75BF9064AB2
:108E00000649044800F066F8024806B010BD00BFED
:108E100038E7032010E7032090DB032069800D0072
:108E200070B5184E316811F0010504460AD130467C
:108E3000FBF73BF930B129461348FFF7C9F8304634
:108E4000FBF738F91048FFF7CDF828B1A4F10B0370
:108E5000022B01D8002070BDFFF796FFFFF792F9B3
:108E600008B1012CF6D9FFF7F3F9FFF7EEF918B1C5
:108E7000A4F10903012BEDD9232C8CBF0020012084
:108E800070BD00BF40E7032044E70320232838B526
:108E900004460D460AD8FF2908D0FFF7C1FF28B1C4
:108EA00029462046BDE83840FEF72CBB38BD10B53A
:108EB0000446FEF72FFB0438C0B2012808D920462B
:108EC000FFF7AEFF20B12046BDE81040FEF72ABBF9
:108ED000002010BD0B460146184600F0F9BE000008
:108EE000024B1868BFF35F8F704700BF4CE7032049
:108EF000FBF7D7B800F000B810B5002814BF04463F
:108F000001242046FEF70CFC20B9FFF7E9FF08B169
:108F10008047F6E710BD08B5FEF722FC184B1A682B
:108F2000D1075CBF01221A60164B1A68D2075CBFDA
:108F300001221A60144B1A68D0075CBF01221A6024
:108F4000124B1A68D1075CBF01221A60104B1A68D5
:108F5000D2075CBF01221A600E4B1A68D0075CBFB3
:108F600001221A600C4B1A68D1075CBF01221A60FB
:108F70000A4B1A68D2075CBF01221A60704700BF13
:108F80006CE7032068E7032064E7032060E7032021
:108F90005CE7032058E7032054E7032050E7032051
:108FA000244B1A68D0075CBF01221A60224B1A6852
:108FB000D1075CBF01221A60204B1A68D2075CBF40
:108FC00001221A601E4B1A68D0075CBF01221A608A
:108FD0001C4B1A68D1075CBF01221A601A4B1A6831
:108FE000D2075CBF01221A60184B1A68D0075CBF19
:108FF00001221A60164B1A68D1075CBF01221A6061
:10900000144B1A68D2075CBF01221A60124B1A680F
:10901000D0075CBF01221A60104B1A68D1075CBFF1
:1090200001221A600E4B1A68D2075CBF01221A6037
:10903000704700BF9CE7032098E7032094E70320D4
:1090400090E703208CE7032088E7032084E70320D0
:1090500080E703207CE7032078E7032074E7032000
:1090600070E70320244B1A68D0075CBF01221A6006
:10907000224B1A68D1075CBF01221A60204B1A6884
:10908000D2075CBF01221A601E4B1A68D0075CBF72
:1090900001221A601C4B1A68D1075CBF01221A60BA
:1090A0001A4B1A68D2075CBF01221A60184B1A6863
:1090B000D0075CBF01221A60164B1A68D1075CBF4B
:1090C00001221A60144B1A68D2075CBF01221A6091
:1090D000124B1A68D0075CBF01221A60104B1A6845
:1090E000D1075CBF01221A600E4B1A68D2075CBF21
:1090F00001221A60704700BFCCE70320C8E70320B5
:10910000C4E70320C0E70320BCE70320B8E703203F
:10911000B4E70320B0E70320ACE70320A8E703206F
:10912000A4E70320A0E70320184B1A68D1075CBF0F
:1091300001221A60164B1A68D2075CBF01221A601E
:10914000144B1A68D0075CBF01221A60124B1A68D0
:10915000D1075CBF01221A60104B1A68D2075CBFAE
:1091600001221A600E4B1A68D0075CBF01221A60F8
:109170000C4B1A68D1075CBF01221A600A4B1A68AF
:10918000D2075CBF01221A60704700BFECE70320E2
:10919000E8E70320E4E70320E0E70320DCE703201F
:1091A000D8E70320D4E70320D0E703200000000025
:1091B00051EC100BC1F30A532DE9F041A3F2FF3536
:1091C000132D0C460F4610EE106A1DDC002D43DBFC
:1091D0003D4B43FA05F801EA0803034319D038A3CD
:1091E000D3E9002300F07AF80022002300F0B8FC55
:1091F00020B1002C49DB27EA08040026234632462A
:1092000043EC102BBDE8F081332D06DDB5F5806F02
:1092100032D041EC100BBDE8F081A3F213434FF0C4
:10922000FF3828FA03F810EA080FF2D024A3D3E994
:10923000002300F053F80022002300F091FC0028E6
:10924000DCD0002C27DB3C4626EA080623463246C3
:1092500043EC102BBDE8F08119A3D3E9002300F003
:109260003DF80022002300F07BFC0028C6D0002C33
:109270001CDB00263446C1E710EE102A0B4600F036
:109280002DF841EC100BBDE8F0814FF4801343FA48
:1092900005F52F44AFE7142D10D00123C5F1340597
:1092A00003FA05F5AE1928BFFF18CCE724F00042F9
:1092B000064B324318BF1C4600269FE70137C2E722
:1092C0009C7500883CE4377EFFFF0F000000F0BF74
:1092D00081F0004102E000BF83F0004330B54FEA67
:1092E00041044FEA430594EA050F08BF90EA020FD4
:1092F0001FBF54EA000C55EA020C7FEA645C7FEA67
:10930000655C00F0E2804FEA5454D4EB5555B8BF89
:109310006D420CDD2C4480EA020281EA030382EAFA
:10932000000083EA010180EA020281EA0303362D8C
:1093300088BF30BD11F0004F4FEA01314FF4801C5F
:109340004CEA113102D0404261EB410113F0004F71
:109350004FEA03334CEA133302D0524263EB430328
:1093600094EA050F00F0A780A4F10104D5F1200EC6
:109370000DDB02FA0EFC22FA05F2801841F1000121
:1093800003FA0EF2801843FA05F359410EE0A5F1F5
:1093900020050EF1200E012A03FA0EFC28BF4CF026
:1093A000020C43FA05F3C01851EBE37101F00045DC
:1093B00007D54FF0000EDCF1000C7EEB00006EEBE9
:1093C0000101B1F5801F1BD3B1F5001F0CD3490873
:1093D0005FEA30004FEA3C0C04F101044FEA4452CA
:1093E00012F5800F80F09A80BCF1004F08BF5FEA51
:1093F000500C50F1000041EB045141EA050130BD31
:109400005FEA4C0C404141EB010111F4801FA4F1D3
:109410000104E9D191F0000F04BF01460020B1FA28
:1094200081F308BF2033A3F10B03B3F120020CDA60
:109430000C3208DD02F1140CC2F10C0201FA0CF03E
:1094400021FA02F10CE002F11402D8BFC2F1200CA3
:1094500001FA02F120FA0CFCDCBF41EA0C01904059
:10946000E41AA2BF01EB0451294330BD6FEA0404A2
:109470001F3C1CDA0C340EDC04F11404C4F120028D
:1094800020FA04F001FA02F340EA030021FA04F39F
:1094900045EA030130BDC4F10C04C4F1200220FAF6
:1094A00002F001FA04F340EA0300294630BD21FA34
:1094B00004F0294630BD94F0000F83F4801306BFFA
:1094C00081F480110134013D4EE77FEA645C18BFEE
:1094D0007FEA655C29D094EA050F08BF90EA020F85
:1094E00005D054EA000C04BF1946104630BD91EA7D
:1094F000030F1EBF0021002030BD5FEA545C05D180
:109500004000494128BF41F0004130BD14F58004BE
:109510003CBF01F5801130BD01F0004545F0FE4132
:1095200041F470014FF0000030BD7FEA645C1ABF67
:10953000194610467FEA655C1CBF0B46024650EA9E
:10954000013406BF52EA033591EA030F41F40021CA
:1095500030BD00BF90F0000F04BF0021704730B550
:109560004FF4806404F132044FF000054FF0000125
:1095700050E700BF90F0000F04BF0021704730B5E6
:109580004FF4806404F1320410F0004548BF4042BB
:109590004FF000013EE700BF42004FEAE2014FEA10
:1095A00031014FEA02701FBF12F07F4393F07F4FEB
:1095B00081F06051704792F0000F14BF93F07F4F1D
:1095C000704730B54FF4607401F0004521F0004160
:1095D00020E700BF50EA010208BF704730B54FF0E6
:1095E00000050AE050EA010208BF704730B511F0EB
:1095F000004502D5404261EB41014FF4806404F123
:1096000032045FEA915C3FF4DCAE4FF003025FEAA4
:10961000DC0C18BF03325FEADC0C18BF033202EB2C
:10962000DC02C2F1200300FA03FC20FA02F001FA86
:1096300003FE40EA0E0021FA02F11444C1E600BF25
:1096400070B54FF0FF0C4CF4E06C1CEA11541DBFD8
:109650001CEA135594EA0C0F95EA0C0F00F0DEF8A3
:109660002C4481EA030621EA4C5123EA4C5350EA88
:10967000013518BF52EA033541F4801143F48013D9
:1096800038D0A0FB02CE4FF00005E1FB02E506F06A
:109690000042E0FB03E54FF00006E1FB03569CF0BF
:1096A000000F18BF4EF0010EA4F1FF04B6F5007FC5
:1096B00064F5407404D25FEA4E0E6D4146EB060637
:1096C00042EAC62141EA55514FEAC52040EA5E50C0
:1096D0004FEACE2EB4F1FD0C88BFBCF5E06F1ED86A
:1096E000BEF1004F08BF5FEA500E50F1000041EBA1
:1096F000045170BD06F0004646EA010140EA02004E
:1097000081EA0301B4EB5C04C2BFD4EB0C0541EA6F
:10971000045170BD41F480114FF0000E013C00F384
:10972000AB8014F1360FDEBF002001F0004170BDA8
:10973000C4F10004203C35DA0C341BDC04F11404C1
:10974000C4F1200500FA05F320FA04F001FA05F24D
:1097500040EA020001F0004221F0004110EBD3701A
:1097600021FA04F642EB06015EEA430E08BF20EA46
:10977000D37070BDC4F10C04C4F1200500FA04F3E9
:1097800020FA05F001FA04F240EA020001F000417B
:1097900010EBD37041F100015EEA430E08BF20EAEE
:1097A000D37070BDC4F1200500FA05F24EEA020E36
:1097B00020FA04F301FA05F243EA020321FA04F065
:1097C00001F0004121FA04F220EA020000EBD3701C
:1097D0005EEA430E08BF20EAD37070BD94F0000F1C
:1097E0000FD101F00046400041EB010111F4801F50
:1097F00008BF013CF7D041EA060195F0000F18BF01
:10980000704703F00046520043EB030313F4801F3C
:1098100008BF013DF7D043EA0603704794EA0C0FF6
:109820000CEA135518BF95EA0C0F0CD050EA41060C
:1098300018BF52EA4306D1D181EA030101F0004189
:109840004FF0000070BD50EA410606BF10461946B1
:1098500052EA430619D094EA0C0F02D150EA0136BD
:1098600013D195EA0C0F05D152EA03361CBF1046FE
:1098700019460AD181EA030101F0004141F0FE419D
:1098800041F470014FF0000070BD41F0FE4141F421
:10989000780170BD70B54FF0FF0C4CF4E06C1CEA21
:1098A00011541DBF1CEA135594EA0C0F95EA0C0FD6
:1098B00000F0A7F8A4EB050481EA030E52EA033591
:1098C0004FEA013100F088804FEA03334FF08055B2
:1098D00045EA131343EA12634FEA022245EA1115DF
:1098E00045EA10654FEA00260EF000419D4208BF90
:1098F000964244F1FD0404F5407402D25B084FEA3D
:109900003202B61A65EB03055B084FEA32024FF4E8
:1099100080104FF4002CB6EB020E75EB030E22BF45
:10992000B61A754640EA0C005B084FEA3202B6EB05
:10993000020E75EB030E22BFB61A754640EA5C00B4
:109940005B084FEA3202B6EB020E75EB030E22BF44
:10995000B61A754640EA9C005B084FEA3202B6EB45
:10996000020E75EB030E22BFB61A754640EADC0004
:1099700055EA060E18D04FEA051545EA16754FEA66
:1099800006164FEAC30343EA52734FEAC2025FEA84
:109990001C1CC0D111F4801F0BD141EA00014FF013
:1099A00000004FF0004CB6E711F4801F04BF0143E4
:1099B0000020B4F1FD0C88BFBCF5E06F3FF6AFAE00
:1099C000B5EB030C04BFB6EB020C5FEA500C50F190
:1099D000000041EB045170BD0EF0004E4EEA113113
:1099E00014EB5C04C2BFD4EB0C0541EA045170BD1A
:1099F00041F480114FF0000E013C90E645EA060E5E
:109A00008DE60CEA135594EA0C0F08BF95EA0C0F8B
:109A10003FF43BAF94EA0C0F0AD150EA01347FF4D3
:109A200034AF95EA0C0F7FF425AF104619462CE7AA
:109A300095EA0C0F06D152EA03353FF4FDAE10460D
:109A4000194622E750EA410618BF52EA43067FF45E
:109A5000C5AE50EA41047FF40DAF52EA43057FF4EE
:109A6000EBAE12E74FF0FF3C06E000BF4FF0010CF9
:109A700002E000BF4FF0010C4DF804CD4FEA410C5D
:109A80007FEA6C5C4FEA430C18BF7FEA6C5C1BD02A
:109A900001B050EA410C0CBF52EA430C91EA030FAB
:109AA00002BF90EA020F0020704710F1000F91EA08
:109AB000030F58BF994208BF90422CBFD8176FEAD6
:109AC000E37040F0010070474FEA410C7FEA6C5CA4
:109AD00002D150EA013C07D14FEA430C7FEA6C5CAB
